:1000000033C000004DC000004BC00000D1C3000051
:1000100047C0000045C0000043C0000041C00000D0
:100020003FC000003DC000003BC0000039C00000E0
:1000300037C0000035C0000033C0000031C00000F0
:100040006DC300002DC000002BC0000029C00000BF
:1000500027C0000025C0000023C0000021C0000010
:100060001FC000001DC0000011241FBECFEFD8E04C
:10007000DEBFCDBF21E0ACEEB1E001C01D92AD3FCF
:10008000B207E1F711E0A0E0B1E0E4E4F6E102C07C
:1000900005900D92AC3EB107D9F7F2D30C94200B2A
:1000A000AFCF0895CF92DF92EF92FF920F931F93FD
:1000B000CF93DF936C017A018B01C0E0D0E0CE15C5
:1000C000DF0589F0D8016D918D01D601ED91FC918C
:1000D0000190F081E02DC6010995892B11F47E0174
:1000E00002C02196ECCFC701DF91CF911F910F91F4
:1000F000FF90EF90DF90CF900895CF92DF92EF9234
:10010000FF92CF93DF93EC016A017B0120E030E0A6
:10011000A901C701B6019CD6882309F1809180000E
:10012000806280938000809180008F7E8093800029
:100130008F8D98A1BC0180E090E08ED69B01AC0130
:10014000C701B601EAD620E030E048EC52E4E4D73B
:100150000E94F40870938B0060938A0032C08091F3
:1001600080008F7D80938000809180008F7E8093BF
:100170008000E88197E09E9FF0011124E25CFE4F31
:10018000A281B3814C9121E030E0B901068002C028
:10019000660F771F0A94E2F7862F809584238C934D
:1001A000E8819E9FF0011124E25CFE4FA481B5819D
:1001B0008C91068002C0220F331F0A94E2F7282B8D
:1001C0002C93DF91CF91FF90EF90DF90CF90089527
:1001D000CF93DF93DC01EC9197E09E9FF001112417
:1001E000E25CFE4FC481D581588121E030E0B90145
:1001F000068002C0660F771F0A94E2F7462F4095EB
:1002000045234883EC919E9FF0011124E25CFE4F50
:10021000A281B3818C91068002C0220F331F0A9401
:10022000E2F7282B2C93DF91CF910895DC01EC911C
:10023000662399F0B7E0EB9FF0011124E25CFE4FDA
:10024000A281B3814C9121E030E0068002C0220FF0
:10025000331F0A94E2F7242B13C027E0E29FF0013A
:100260001124E25CFE4FA281B3814C9121E030E089
:10027000068002C0220F331F0A94E2F72095242340
:100280002C93DC01EC91B7E0EB9FF0011124E25CD0
:10029000FE4FA481B5812C9181E090E0068002C0E0
:1002A000880F991F0A94E2F7822B8C930895EF929E
:1002B000FF920F931F93CF93DF938C01C0E0D0E0A8
:1002C000E62EF12CF80180859185C817D90770F4C6
:1002D000B7010C2E02C0759567950A94E2F761701C
:1002E000C8018C0F9D1FA2DF2196ECCFC801DF91C2
:1002F000CF911F910F91FF90EF900895CF93DF93CF
:10030000EC01289660E0CE0191DF85E08A95F1F757
:10031000000061E0CE018ADF95E09A95F1F70000D8
:1003200060E0CE0183DF8FE891E00197F1F700C034
:100330000000DF91CF910895CF93DF93EC010996F0
:10034000B6DFCE01DF91CF91D9CF1F93CF93DF934B
:10035000EC01162F642F069669DFCE0107962F81D8
:100360002531D1F48B89612F84FF08C0CE01099615
:100370009EDFCE01DF91CF911F91C0CF70E084E06E
:10038000759567958A95E1F7CE01D6DF612FCE018D
:10039000DF91CF911F91D0CF60E048DFE3CF41E004
:1003A000D4DF81E090E0089540E0CFCFCF93DF939A
:1003B000CDB7DEB728970FB6F894DEBF0FBECDBF1E
:1003C00028E0E6E0F1E0DE01119601900D922A9519
:1003D000E1F7FC012789621710F06FEF620FFE0151
:1003E0003196E60FF11DE60FF11D608160682896D9
:1003F0000FB6F894DEBF0FBECDBFDF91CF91D4CF43
:1004000061E0D2DF8FE39FE10197F1F700C00000C8
:1004100008956115710579F0FB0101900020E9F75D
:100420003197AF01461B570BDC01ED91FC91028027
:10043000F381E02D099480E090E008950F931F93DD
:10044000CF93DF93EC0188819981009729F02A816D
:100450003B812617370788F48B016F5F7F4F0E941F
:100460004D0A009761F0998388831B830A832C814E
:100470003D81232B11F4FC01108281E001C080E05A
:10048000DF91CF911F910F910895CF92DF92EF925C
:10049000FF920F931F93CF93DF93CDB7DEB72797CC
:1004A0000FB6F894DEBF0FBECDBF8C01CB014AE082
:1004B0009E012F5F3F4F6901B901A1D4F601019060
:1004C0000020E9F73197EC19FD09D8011496ED9059
:1004D000FC9015973097B1F0EE0EFF1EB701C801E2
:1004E000ADDF882381F0F8012081318184819581FD
:1004F000B601820F931F0E94190BD8011596FC922A
:10050000EE92149781E027960FB6F894DEBF0FBEE7
:10051000CDBFDF91CF911F910F91FF90EF90DF90B2
:10052000CF900895EF92FF920F931F93CF93DF9395
:1005300000D0CDB7DEB78C0169831A82FC01E4805C
:10054000F580FFEFEF1AFF0AB70178DF882381F00B
:10055000F8012081318184819581BE016F5F7F4FD9
:10056000820F931F0E94190BF801F582E48281E04B
:100570000F900F90DF91CF911F910F91FF90EF900F
:100580000895EF92FF920F931F93CF93DF93EC01A7
:100590008A017901198218821B821A821D821C82AB
:1005A00060E070E04BDFE881F98181110BC030978A
:1005B00011F0CF01DAD6198218821D821C821B82AB
:1005C0001A8207C01D821C826BEE71E0CF010E946F
:1005D000190BE114F104A9F0EA94EF28D9F429E009
:1005E000209FC001219F900D112465E070E080D50F
:1005F000605E7F4FCE0149DF6FEDCE0193DF66E491
:1006000007C0B801CE0141DF6FEDCE018BDF63E49F
:10061000CE0188DFCE01DF91CF911F910F91FF9026
:10062000EF900895EF92FF920F931F93CF93DF9374
:1006300000D000D000D0CDB7DEB78C018091EC01A6
:100640009091ED01DDDE60E08091EC019091ED0193
:10065000ADDED8011696ED90FC90179766EE71E02E
:100660008091EC019091ED01D4DED8011496ED91CA
:10067000FC911597408151819701B801CE010196F7
:1006800080DF8091EC019091ED01DC01ED91FC9116
:100690004D815E8169817A810280F381E02D099527
:1006A00089819A8162D661E08091EC019091ED019F
:1006B0007DDEF801E680F78069EE71E08091EC0163
:1006C0009091ED01A6DED8011296ED91FC91139761
:1006D000408151819701B801CE01019652DF80918E
:1006E000EC019091ED01DC01ED91FC914D815E8179
:1006F00069817A810280F381E02D099589819A814F
:1007000034D626960FB6F894DEBF0FBECDBFDF916C
:10071000CF911F910F91FF90EF9008951F920F922C
:100720000FB60F9211242F933F938F939F93AF9304
:10073000BF938091F5019091F601A091F701B091DE
:10074000F8013091F40123E0230F2D3720F40196B6
:10075000A11DB11D05C026E8230F0296A11DB11DE4
:100760002093F4018093F5019093F601A093F70193
:10077000B093F8018091F0019091F101A091F20104
:10078000B091F3010196A11DB11D8093F0019093EA
:10079000F101A093F201B093F301BF91AF919F914A
:1007A0008F913F912F910F900FBE0F901F90189532
:1007B0001F920F920FB60F9211242F933F934F93D6
:1007C0005F938F939F93AF93BF93CF93DF93EF93F9
:1007D000FF938FE891E00197F1F700C00000E091EE
:1007E000EE01F091EF01A081B181CC9187E08C9F67
:1007F000E0011124C25CDE4FA881B9812C91A28155
:10080000B381AC918A9FD0011124AD01425C5E4F4F
:10081000DA018D919C91DC018C9130E00E8002C058
:10082000359527950A94E2F7217090E0DA01169643
:100830000C9002C0959587950A94E2F78170948197
:10084000281302C0915001C09F5F948384818F3F21
:1008500011F48AE803C0811102C086E78483FF9106
:10086000EF91DF91CF91BF91AF919F918F915F9168
:100870004F913F912F910F900FBE0F901F901895A1
:10088000CF93DF93CDB7DEB7CC55D1090FB6F8942F
:10089000DEBF0FBECDBF7E0125E5E20EF11C86E96D
:1008A00090E0D7018D939C936E01B3E5CB0ED11CE4
:1008B00084E690E0F601918380838FB7F8944091AD
:1008C000F5015091F6016091F7017091F8018FBF29
:1008D0001DA61CA68EE291E09BA78AA71FA61EA6B6
:1008E0008AE088AB85E189AB9BE09AAB9DE09BAB4E
:1008F00090E19CAB9CE09DAB91E19EAB8FAB88AF50
:1009000089AF8AAF1CAE1BAEB0979E01255C3F4FEE
:100910008191853109F064C260E0CE01C09686DC29
:1009200060E0CE01C29682DC8EA59FA5892B11F4D2
:100930001DAE02C080E18DAFCE01865A9F4FDC0113
:100940001C92FE01E75AFF4F27E120838E01045BD2
:100950001F4FD80116961C921E92159720E81496E8
:100960002C93149711969C938E931396FC93EE936D
:1009700012972EDCF801828193812ADCD801ED9157
:10098000FC9178948081883098F48091680081602F
:100990008093680020916B0081E090E0008002C0AD
:1009A000880F991F0A94E2F7822B80936B0029C06D
:1009B000803198F480916800826080936800309163
:1009C0006C002081285081E090E001C0880F2A95BA
:1009D000EAF7832B80936C0014C0883190F48091E7
:1009E000680084608093680030916D002081205100
:1009F00081E090E001C0880F2A95EAF7832B80936D
:100A00006D001093EF010093EE0185E169968FAFC1
:100A1000699786E168968FAF6897CE01885A9F4F95
:100A2000D7DBCE01895A9F4FD3DB5E01BAE2AB0E12
:100A3000B11CB092ED01A092EC018DAD88608DAF3C
:100A400082E022968FAF229723961FAE2397EFEF77
:100A5000F0E722E0E150F0402040E1F700C0000064
:100A600060E0CE01C096E2DB60E0CE01C296DEDB44
:100A700089A9853109F0BEC16DAD64FD1FC063E079
:100A8000C5015ADC8FE496E40197F1F700C000003D
:100A900063E0C50151DCAFE4B6E41197F1F700C0A3
:100AA000000063E0C50148DCE7E5F2E03197F1F7CB
:100AB00000C0000062E0C5013FDC17C06062C501F4
:100AC00073DC8FE496E40197F1F700C000006DAD90
:100AD0006062C50169DCA7E5B2E01197F1F700C0DB
:100AE00000006DAD6062C5015FDC6DAD6062C50187
:100AF0005BDC84E08EAF6CE0C50156DCC50180DCB8
:100B000082E0982E9FAE66E0C5014EDC8091EC013C
:100B10009091ED0175DC60E08091EC019091ED0128
:100B200045DC86E391E025969FAF8EAF25972B9607
:100B30001FAE1EAE2B972C961FAE2C972796DFAEBE
:100B4000CEAE27972996FFAEEEAE299799828CE01C
:100B5000EEE0F1E0DE01129601900D928A95E1F748
:100B600080E1EAE1F1E0DE011E9601900D928A95A6
:100B7000E1F780E090E4ACE1B6E48AA39BA3ACA3E8
:100B8000BDA38AE08F8F81E08E8F6C817D8180E4B0
:100B900096E0AED279A368A38091800080628093B2
:100BA0008000809180008F7E809380008091800003
:100BB0008E7F80938000809180008260809380008F
:100BC00080918100886080938100809181008061A4
:100BD0008093810088A199A19093870080938600DB
:100BE000909181008E8D892B80938100E98187E02F
:100BF0008E9FF0011124E25CFE4FA281B3819C9193
:100C000021E030E0A901068002C0440F551F0A947C
:100C1000E2F7492B4C93E9818E9FF0011124E25CAD
:100C2000FE4FA481B5818C91068002C0220F331F34
:100C30000A94E2F7282B2C9340E050E060E271E444
:100C4000CE0101965ADA3898409880E480937C006F
:100C500080917C008B7F80937C0080917C008D7FD5
:100C600080937C0080917C008E7F80937C008091BB
:100C70007A00846080937A0080917A008260809309
:100C80007A0080917A00816080937A0080917A0066
:100C9000806880937A0080917A008F7D80937A00BB
:100CA000C501AEDBCE018D5B9F4FBCDC22E030E0A6
:100CB00094E0292E312C44244394512C53E0A52E4A
:100CC000B12C64E6862E912C70E9672E77247394FC
:100CD000BFEFE1EEF4E0B150E040F040E1F700C0DA
:100CE0000000D80114968C911497E0E81496EC93C8
:100CF00014978A3828F01696BC92AE92159719C0B0
:100D0000813830F0D80116965C924E92159711C03A
:100D1000873720F4F801368225820BC087FD06C094
:100D2000D80116963C932E93159703C0F8011682AE
:100D30001582D80115968D919C9116970197843054
:100D4000910540F4FC01E65CFE4F8081082E000C0A
:100D5000990B02C080E090E0F70140815181840F3F
:100D6000951F8139F1E09F0720F0D7016D927C92A9
:100D70000AC08436910520F0F7019183808303C077
:100D8000D7018D929C9280917A00806480937A0042
:100D900080917A0086FDFCCF809178009091790057
:100DA000F6019183808360E070E0CB016C962FAFF9
:100DB0006C976D963FAF6D9717D280E090E04CD066
:100DC000AB01BC01CE01019698D9CE018D5B9F4F3E
:100DD00029DC6C962FAD6C976D963FAD6D9778CFF3
:100DE0008BAD9CAD01969CAF8BAFE217F30709F07A
:100DF0008FCD92CD60E0CE01C19618DA3DCEBB27F3
:100E0000FB015527AA27880F991FAA1FA41710F0C6
:100E1000A41B83955051B9F7A05DAA3308F0A95DD2
:100E2000A193009779F7B111B1931192CB0100C052
:100E3000DC01FC01672F71917723E1F7329704C041
:100E40007C916D9370836291AE17BF07C8F30895CC
:100E500040D008F481E00895E89409C097FB3EF47F
:100E600090958095709561957F4F8F4F9F4F9923F7
:100E7000A9F0F92F96E9BB279395F6958795779575
:100E80006795B795F111F8CFFAF4BB0F11F460FF35
:100E90001BC06F5F7F4F8F4F9F4F16C0882311F08D
:100EA00096E911C0772321F09EE8872F762F05C0A1
:100EB000662371F096E8862F70E060E02AF09A953C
:100EC000660F771F881FDAF7880F9695879597F931
:100ED0000895990F0008550FAA0BE0E8FEEF1616CB
:100EE0001706E807F907C0F012161306E407F5071E
:100EF00098F0621B730B840B950B39F40A2661F092
:100F0000232B242B252B21F408950A2609F4A14034
:100F1000A6958FEF811D811D08950BD078C069D0F3
:100F200028F06ED018F0952309F05AC05FC0112444
:100F3000A2C07ED0A0F3959FD1F3950F50E0551F2E
:100F4000629FF001729FBB27F00DB11D639FAA271E
:100F5000F00DB11DAA1F649F6627B00DA11D661F6D
:100F6000829F2227B00DA11D621F739FB00DA11D8E
:100F7000621F839FA00D611D221F749F3327A00D48
:100F8000611D231F849F600D211D822F762F6A2FE4
:100F900011249F5750408AF0E1F088234AF0EE0F69
:100FA000FF1FBB1F661F771F881F91505040A9F776
:100FB0009E3F510570F014C05EC05F3FECF3983E59
:100FC000DCF3869577956795B795F795E7959F5FDD
:100FD000C1F7FE2B880F911D9695879597F9089577
:100FE00097F99F6780E870E060E008959FEF80ECDC
:100FF000089500240A94161617061806090608957F
:1010000000240A9412161306140605060895092EE4
:101010000394000C11F4882352F0BB0F40F4BF2B53
:1010200011F460FF04C06F5F7F4F8F4F9F4F089593
:1010300057FD9058440F551F59F05F3F71F0479589
:10104000880F97FB991F61F09F3F79F0879508956E
:10105000121613061406551FF2CF4695F1DF08C08D
:10106000161617061806991FF1CF869571056105AA
:1010700008940895E894BB2766277727CB0197F952
:1010800008952F923F924F925F926F927F928F922C
:101090009F92AF92BF92CF92DF92EF92FF920F9307
:1010A0001F93CF93DF93CDB7DEB7CA1BDB0B0FB611
:1010B000F894DEBF0FBECDBF09942A8839884888CE
:1010C0005F846E847D848C849B84AA84B984C88464
:1010D000DF80EE80FD800C811B81AA81B981CE0F5B
:1010E000D11D0FB6F894DEBF0FBECDBFED01089540
:1010F000AA1BBB1B51E107C0AA1FBB1FA617B7073E
:1011000010F0A61BB70B881F991F5A95A9F7809559
:101110009095BC01CD0108950CD079CF71DF40F0DE
:1011200068DF30F021F45F3F19F05ACF5111A3CF9F
:101130005DCF7EDF98F39923C9F35523B1F3951B57
:10114000550BBB27AA2762177307840738F09F5FE8
:101150005F4F220F331F441FAA1FA9F333D00E2E57
:101160003AF0E0E830D091505040E695001CCAF7C4
:1011700029D0FE2F27D0660F771F881FBB1F261789
:1011800037074807AB07B0E809F0BB0B802DBF015C
:10119000FF2793585F4F2AF09E3F510568F020CFFC
:1011A0006ACF5F3FECF3983EDCF3869577956795C1
:1011B000B795F7959F5FC9F7880F911D969587950D
:1011C00097F90895E1E0660F771F881FBB1F62172C
:1011D00073078407BA0720F0621B730B840BBA0BEA
:1011E000EE1F88F7E09508952BDF88F09F5790F069
:1011F000B92F9927B751A0F0D1F0660F771F881F3C
:10120000991F1AF0BA95C9F712C0B13081F032DFD8
:10121000B1E008952FCF672F782F8827B85F39F076
:10122000B93FCCF3869577956795B395D9F73EF49A
:1012300090958095709561957F4F8F4F9F4F089542
:10124000CF93DF938230910510F482E090E0E0913B
:10125000FB01F091FC0120E030E0C0E0D0E03097ED
:1012600011F14081518148175907C0F048175907BB
:1012700061F482819381209719F09B838A832BC02C
:101280009093FC018093FB0126C02115310519F0D4
:101290004217530718F49A01BE01DF01EF010280E3
:1012A000F381E02DDCCF2115310509F1281B390B25
:1012B0002430310590F412968D919C91139761150D
:1012C000710521F0FB019383828304C09093FC019C
:1012D0008093FB01FD01329644C0FD01E20FF31F34
:1012E00081939193225031092D933C933AC02091E0
:1012F000F9013091FA01232B41F420910201309140
:1013000003013093FA012093F901209100013091FB
:1013100001012115310541F42DB73EB7409104017B
:1013200050910501241B350BE091F901F091FA0170
:10133000E217F307A0F42E1B3F0B2817390778F0AC
:10134000AC014E5F5F4F2417350748F04E0F5F1F0B
:101350005093FA014093F9018193919302C0E0E028
:10136000F0E0CF01DF91CF9108950F931F93CF93BA
:10137000DF93009709F48CC0FC013297138212822C
:101380000091FB011091FC010115110581F42081F0
:101390003181820F931F2091F9013091FA012817B2
:1013A000390779F5F093FA01E093F90171C0D8019A
:1013B00040E050E0AE17BF0750F412962D913C91DB
:1013C0001397AD012115310509F1D901F3CF9D0125
:1013D000DA013383228360817181860F971F821720
:1013E000930769F4EC0128813981260F371F2E5F9E
:1013F0003F4F318320838A819B8193838283452B56
:1014000029F4F093FC01E093FB0142C01396FC9396
:10141000EE931297ED01499159919E01240F351FCA
:10142000E217F30771F480819181840F951F029672
:1014300011969C938E938281938113969C938E93A5
:101440001297E0E0F0E0D80112968D919C911397ED
:10145000009719F0F8018C01F6CF8D919C919801BD
:101460002E5F3F4F820F931F2091F9013091FA01B7
:101470002817390769F4309729F41092FC0110926B
:10148000FB0102C0138212821093FA010093F9014A
:10149000DF91CF911F910F910895A0E0B0E0E2E5B8
:1014A000FAE0F3CDEC01009719F4CB01C9DEB4C02A
:1014B000FC01E60FF71F9C0122503109E217F307E8
:1014C00008F4A8C0D9010D911C91119706171707B0
:1014D000A8F00530110508F49BC0C80104978617D1
:1014E000970708F495C002501109061B170B0193CA
:1014F00011936D937C93CF0138DF8AC05B01A01AF2
:10150000B10A4C01800E911EA091FB01B091FC012B
:1015100040E050E0E12CF12C109709F44AC0A815E6
:10152000B905D1F56D907C901197630182E0C80EEA
:10153000D11CCA14DB0480F1A3014A195B096A01BA
:1015400082E0C80ED11C1296BC9012971396AC91F3
:10155000B5E0CB16D10440F0B282A383518340831F
:10156000D9016D937C930AC00E5F1F4FC301800F9A
:10157000911FF90191838083EB2DFA2FE114F1047F
:1015800031F0D7011396FC93EE93129741C0F0937C
:10159000FC01E093FB013CC08D919C911197481791
:1015A000590708F4AC017D0112960D90BC91A02D55
:1015B000B3CF8091F9019091FA0188159905E1F472
:1015C00046175707C8F480910001909101010097D8
:1015D00041F48DB79EB74091040150910501841BE1
:1015E000950BE817F907B0F4F093FA01E093F901CD
:1015F000F901718360830CC0CB0122DE7C0100976E
:1016000049F0A801BE010CD0CE01AFDEC70104C075
:10161000CE0102C080E090E0CDB7DEB7EEE051CD64
:10162000FB01DC0102C001900D9241505040D8F7FF
:101630000895FB01DC0101900D920020E1F708956F
:04164000F894FFCF4C
:101644000000FD018000000040001400540001006F
:10165400010008004000000100040100010008002E
:101664002000400080000001000400000000CF01C1
:101674005200000000001203510001FF0AF623008B
:101684002500240000230025002400012300250058
:101694002400022300250024000323002500240045
:1016A400042300250024000523002500240006232C
:1016B4000025002400072600280027000026002813
:1016C4000027000126002800270002260028002702
:1016D4000003260028002700042600280027000510
:1016E40026002800270006260028002700072900D6
:1016F4002B002A000029002B002A000129002B00BE
:101704002A000229002B002A000329002B002A00AA
:101714000429002B002A000529002B002A00062991
:0C172400002B002A0007533A004D3A0049
:00000001FF
