:1000000035C000005AC0000058C000009EC5000066
:1000100054C0000014C5000050C000004EC00000D5
:100020004CC000004AC0000048C0000046C00000AC
:1000300044C0000042C0000040C000003EC00000BC
:100040003AC500003AC0000038C0000036C00000C9
:1000500034C0000032C0000030C000002EC00000DC
:100060002CC000002AC00000EE05FB0811241FBEB2
:10007000CFEFD8E0DEBFCDBF22E0ACE0B2E001C000
:100080001D92AB35B207E1F712E0A0E0B1E0E8E87D
:10009000FAE102C005900D92AC30B107D9F710E03B
:1000A000C5E3D0E004C02197FE010E949E0AC4333C
:1000B000D107C9F7BCD50C94380DA2CFDC01ED9166
:1000C000FC910190F081E02D0994DC01ED91FC910F
:1000D000DB0114964D915C9115976D917C91028096
:1000E000F381E02D0994CF92DF92EF92FF920F936C
:1000F0001F93CF93DF936C017A018B01C0E0D0E0B6
:10010000CE15DF0589F0D8016D918D01D601ED91F5
:10011000FC910190F081E02DC6010995892B11F425
:100120007E0102C02196ECCFC701DF91CF911F91D4
:100130000F91FF90EF90DF90CF900895CF92DF92D4
:10014000EF92FF92CF93DF93EC016A017B0120E0F5
:1001500030E0A901C701B6010E943A09882321F1C4
:1001600080918000806280938000809180008F7EEB
:10017000809380008F8D98A1BC0180E090E00E9468
:100180003E099B01AC01C701B6010E949F0920E016
:1001900030E048EC52E40E94A40A0E940C0B7093D9
:1001A0008B0060938A0032C0809180008F7D8093A5
:1001B0008000809180008F7E80938000E88197E0AE
:1001C0009E9FF0011124E65CFE4FA281B3814C9109
:1001D00021E030E0B901068002C0660F771F0A9463
:1001E000E2F7862F809584238C93E8819E9FF0010F
:1001F0001124E65CFE4FA481B5818C91068002C07B
:10020000220F331F0A94E2F7282B2C93DF91CF9112
:10021000FF90EF90DF90CF900895FC01789480815B
:100220008830A0F4809168008160809368004091DC
:100230006B0021E030E0C901008002C0880F991FE7
:100240000A94E2F7842B80936B000895803198F430
:100250008091680082608093680030916C002081FA
:10026000285081E090E001C0880F2A95EAF7832B9F
:1002700080936C000895883190F4809168008460C8
:100280008093680030916D002081205181E090E0E2
:1002900001C0880F2A95EAF7832B80936D0008959B
:1002A000DC01EC91B7E0EB9FF0011124E65CFE4F1E
:1002B000A081B1818C9190E0068002C095958795D0
:1002C0000A94E2F781700895CF93DF93DC01EC91FB
:1002D00097E09E9FF0011124E65CFE4FC481D5811A
:1002E000588121E030E0B901068002C0660F771F17
:1002F0000A94E2F7462F409545234883EC919E9F50
:10030000F0011124E65CFE4FA281B3818C9106803E
:1003100002C0220F331F0A94E2F7282B2C93DF919F
:10032000CF910895DC01EC91662399F0B7E0EB9F43
:10033000F0011124E65CFE4FA281B3814C9121E0D3
:1003400030E0068002C0220F331F0A94E2F7242B0C
:1003500013C027E0E29FF0011124E65CFE4FA2816A
:10036000B3814C9121E030E0068002C0220F331FA0
:100370000A94E2F7209524232C93DC01EC91B7E05A
:10038000EB9FF0011124E65CFE4FA481B5812C9116
:1003900081E090E0068002C0880F991F0A94E2F77E
:1003A000822B8C930895EF92FF920F931F93CF931C
:1003B000DF938C01C0E0D0E0E62EF12CF8018085BF
:1003C0009185C817D90770F4B7010C2E02C0759536
:1003D00067950A94E2F76170C8018C0F9D1FA2DF38
:1003E0002196ECCFC801DF91CF911F910F91FF9023
:1003F000EF900895E0911602F091170220812223D8
:1004000069F08FEC97E00197F1F700C00000E091F0
:100410001202F0911302808191810895E0911402FB
:10042000F09115022081222379F0EFECF7E031976B
:10043000F1F700C00000E0911402F0911502108263
:10044000FC0184819581089580E090E00895E09119
:100450001602F091170280818823A1F08FEC97E0BB
:100460000197F1F700C00000E0911002F091110235
:10047000908181E089278083E0911602F091170234
:10048000108215C0E0911402F0911502808188233A
:1004900071F08FEC97E00197F1F700C00000E09158
:1004A0001402F0911502108280E090E0089581E03E
:1004B00090E00895CF93DF93EC01289660E0CE01A1
:1004C00031DF85E08A95F1F7000061E0CE012ADF97
:1004D00095E09A95F1F7000060E0CE0123DF8FE808
:1004E00091E00197F1F700C00000DF91CF910895EE
:1004F000CF93DF93EC01099656DFCE01DF91CF91C8
:10050000D9CF1F93CF93DF93EC01162F642F06965C
:1005100009DFCE0107962F812531D1F48B89612F18
:1005200084FF08C0CE0109963EDFCE01DF91CF9156
:100530001F91C0CF70E084E0759567958A95E1F7CB
:10054000CE01D6DF612FCE01DF91CF911F91D0CFA9
:1005500060E0E8DEE3CF41E0D4DF81E090E00895A1
:1005600040E0CFCFCF93DF93CDB7DEB728970FB65C
:10057000F894DEBF0FBECDBF9C0188E0EAE0F1E059
:10058000DE01119601900D928A95E1F7F9018789B4
:10059000481710F04FEF480FFE013196E40FF11DA0
:1005A000E40FF11D9081690F6068C90128960FB6AC
:1005B000F894DEBF0FBECDBFDF91CF91D1CF61E008
:1005C000CFDF8FE39FE10197F1F700C000000895AE
:1005D000CF93DF93EC018091180290911902EFDF25
:1005E00040E060E08091180290911902BBDF6E81BB
:1005F000809118029091190261DD40E062E08091E3
:10060000180290911902AEDFBE01685F7F4F8091A2
:1006100018029091190259DD40E067E080911802BC
:10062000909119029FDF6F818091180290911902B9
:1006300045DD41E060E0809118029091190292DF5F
:100640006E81809118029091190238DD41E062E0DC
:10065000809118029091190285DFBE01665E7F4F7E
:10066000809118029091190230DD41E067E080919D
:1006700018029091190276DF6F8180911802909193
:100680001902DF91CF911ACD6115710579F0FB0147
:1006900001900020E9F73197AF01461B570BDC01B1
:1006A000ED91FC910280F381E02D099480E090E0CF
:1006B00008950F931F93CF93DF93EC018881998165
:1006C000009729F02A813B812617370788F48B0190
:1006D0006F5F7F4F0E94650C009761F0998388835C
:1006E0001B830A832C813D81232B11F4FC01108292
:1006F00081E001C080E0DF91CF911F910F910895BB
:10070000CF92DF92EF92FF920F931F93CF93DF93DD
:10071000CDB7DEB727970FB6F894DEBF0FBECDBFBB
:100720008C01CB014AE09E012F5F3F4F6901B90167
:1007300078D5F60101900020E9F73197EC19FD0911
:10074000D8011496ED90FC9015973097B1F0EE0E0D
:10075000FF1EB701C801ADDF882381F0F8012081B9
:10076000318184819581B601820F931F0E94310DE2
:10077000D8011596FC92EE92149781E027960FB659
:10078000F894DEBF0FBECDBFDF91CF911F910F91C7
:10079000FF90EF90DF90CF900895EF92FF920F932C
:1007A0001F93CF93DF9300D0CDB7DEB78C01698361
:1007B0001A82FC01E480F580FFEFEF1AFF0AB7010F
:1007C00078DF882381F0F80120813181848195814F
:1007D000BE016F5F7F4F820F931F0E94310DF801A2
:1007E000F582E48281E00F900F90DF91CF911F910D
:1007F0000F91FF90EF900895EF92FF920F931F9348
:10080000CF93DF93EC01198218821B821A821D821A
:100810001C826115710539F18B01FB0101900020EB
:10082000E9F731977F01E61AF70AB70142DF28811D
:10083000398181110CC02115310511F0C901ADD7E5
:10084000198218821D821C821B821A820CC0FD82B2
:10085000EC82B801C901DF91CF911F910F91FF90F8
:10086000EF900C94310DDF91CF911F910F91FF907C
:10087000EF900895CF93DF93EC0186EE91E099839A
:1008800088838CE38E838EE38F8362EF71E0CE01E9
:100890000896B2DF67EF71E0CE010E96ADDF6CEF28
:1008A00071E0CE014496A8DF61E072E0CE014A9685
:1008B000A3DFE0911202F0911302808191819D8368
:1008C0008C831B821A82DF91CF910895EF92FF9261
:1008D0000F931F93CF93DF93EC018A0179016BEFA4
:1008E00071E08ADFE114F104A9F0EA94EF28D9F469
:1008F00029E0209FC001219F900D112465E070E048
:1009000009D6605E7F4FCE01FBDE6FEDCE0145DF85
:1009100066E407C0B801CE01F3DE6FEDCE013DDF26
:1009200063E4CE013ADFCE01DF91CF911F910F91A9
:10093000FF90EF900895EF92FF920F931F93CF9344
:10094000DF9300D000D000D0CDB7DEB78C0180910E
:1009500018029091190233DE40E060E080911802A5
:1009600090911902FFDDD8011896ED90FC9019972F
:1009700066E072E0809118029091190285DED8013C
:100980001696ED91FC911797408151819701B8011E
:10099000CE0101969BDFBE016F5F7F4F80911802F1
:1009A0009091190292DB89819A81F7D641E060E04B
:1009B0008091180290911902D5DDF801E084F1844C
:1009C00069E072E080911802909119025DDED80111
:1009D0001496ED91FC911597408151819701B801D2
:1009E000CE01019673DFBE016F5F7F4F80911802C9
:1009F000909119026ADB89819A81CFD6E091100229
:100A0000F09111028081882369F040E067E08091D5
:100A1000180290911902A6DD66E280911802909169
:100A200019024CDB26960FB6F894DEBF0FBECDBF81
:100A3000DF91CF911F910F91FF90EF9008951F923A
:100A40000F920FB60F9211242F933F934F935F9302
:100A50006F937F938F939F93AF93BF93EF93FF9386
:100A60008FE79CE00197F1F700C000008091290218
:100A700090912A0215DC811103C081E08093280245
:100A800080912602909127020BDC811103C081E046
:100A900080932502FF91EF91BF91AF919F918F912C
:100AA0007F916F915F914F913F912F910F900FBE6A
:100AB0000F901F9018951F920F920FB60F9211244E
:100AC0002F933F938F939F93AF93BF938091210276
:100AD00090912202A0912302B09124023091200231
:100AE00023E0230F2D3720F40196A11DB11D05C071
:100AF00026E8230F0296A11DB11D209320028093AA
:100B0000210290932202A0932302B09324028091A9
:100B10001C0290911D02A0911E02B0911F0201962D
:100B2000A11DB11D80931C0290931D02A0931E0273
:100B3000B0931F02BF91AF919F918F913F912F91E1
:100B40000F900FBE0F901F9018951F920F920FB627
:100B50000F9211241F932F933F934F935F936F93A3
:100B60007F938F939F93AF93BF93CF93DF93EF9335
:100B7000FF938FE891E00197F1F700C00000C0916A
:100B80001A02D0911B02888199818ADB182F8A81F1
:100B90009B8186DB9C81181302C0915001C09F5F2E
:100BA0009C838C818F3F11F48AE803C0811102C0BD
:100BB00086E78C83FF91EF91DF91CF91BF91AF9149
:100BC0009F918F917F916F915F914F913F912F9165
:100BD0001F910F900FBE0F901F901895EBE4F2E05D
:100BE0008EEE91E0918380831186108680E091E003
:100BF0009583848382E091E09783868381E090E00F
:100C0000938382838BE292E035DE85E18093560206
:100C100086E592E059DB86E592E0FFDA86E1809393
:100C2000550285E592E050DB85E592E0F6CACF9368
:100C3000DF93CDB7DEB7C058D1090FB6F894DEBF49
:100C40000FBECDBF7E012AE7E20EF11C86E990E0DF
:100C5000D7018D939C936E01B8E7CB0ED11C84E62F
:100C600090E0F601918380835E01F6E7AF0EB11C40
:100C7000D5011D921C924E01BEE78B0E911CF40112
:100C800010828FB7F8944091210250912202609116
:100C90002302709124028FBF3E01FAE46F0E711C93
:100CA000D30113961C921E92129782E391E0119643
:100CB0009C938E9315961C921E9214978AE016961A
:100CC0008C93169785E117968C9317979BE018964F
:100CD0009C9318979DE019969C93199790E11A960A
:100CE0009C931A979CE01B969C931B9791E11C96F2
:100CF0009C931C971D968C931D971E968C931E9704
:100D00001F968C931F9750968C93509752961C92D7
:100D10001E925197F301399693012F5E3F4F8191B7
:100D2000853109F054C260E0C3010696FBDA60E049
:100D3000C3010896F7DAF30184819581892B11F4B8
:100D4000138A02C080E1838BCE0183589F4FFC0140
:100D50001082319727E120838E0103591F4FD8015C
:100D600016961C921E92159720E814962C931497B1
:100D700011969C938E931396FC93EE931297A4DA9C
:100D8000F80182819381A0DAD8018D919C9145DA96
:100D900010931B0200931A027092190260921802BB
:100DA000F30183898860838B82E0878B108EFFEF4D
:100DB00020E742E0F15020404040E1F700C0000051
:100DC00060E0C3010696AEDA60E0C3010896AADAD5
:100DD000D30117968C91853109F008C2F30163891C
:100DE00064FD1FC063E0C30183DB8FE496E40197D9
:100DF000F1F700C0000063E0C3017ADBAFE4B6E4C2
:100E00001197F1F700C0000063E0C30171DBE7E573
:100E1000F2E03197F1F700C0000062E0C30168DB47
:100E20001BC06062C3019CDB8FE496E40197F1F77D
:100E300000C00000D30153966C916062C30190DB47
:100E4000E7E5F2E03197F1F700C00000D3015396D7
:100E50006C916062C30184DBF30163896062C3014A
:100E60007FDB84E0D30154968C936CE0C30178DB84
:100E7000C301A5DB22E0F301258B66E0C301C05866
:100E8000DF4F2883C058D0406BDB809118029091CF
:100E9000190295DB40E060E0809118029091190200
:100EA00061DB8FE092E090931702809316028EE050
:100EB00092E0909315028093140290921102809216
:100EC0001002B0920D02A0920C022E01F4E74F0E18
:100ED000511C50921302409212028EEE91E0A596A0
:100EE0009FAF8EAFA597AD961FAE1EAEAD97A996DC
:100EF000DFAECEAEA997AB96FFAEEEAEAB97222497
:100F00002394312CA7963FAE2EAEA797CE018A969A
:100F1000B1DCC058DF4F2881C058D04029838CE015
:100F2000E2E1F1E0DE01129601900D928A95E1F77F
:100F300080E1EEE1F1E0DE011E9601900D928A95CE
:100F4000E1F780E090E4ACE1B6E48AA39BA3ACA314
:100F5000BDA38AE08F8F81E08E8F6C817D8180E4DC
:100F600096E0D8D279A368A38091800080628093B4
:100F70008000809180008F7E80938000809180002F
:100F80008E7F8093800080918000826080938000BB
:100F900080918100886080938100809181008061D0
:100FA0008093810088A199A1909387008093860007
:100FB000909181008E8D892B80938100E98187E05B
:100FC0008E9FF0011124E65CFE4FA281B3819C91BB
:100FD0009101068002C0220F331F0A94E2F7292BE9
:100FE0002C93A9818A9FD0011124A65CBE4F149630
:100FF000ED91FC911597808116960C9002C0220C01
:10100000331C0A94E2F7282A208240E050E060E294
:1010100071E4CE01019692D83898409880E480938C
:101020007C0080917C008B7F80937C0080917C0091
:101030008D7F80937C0080917C008E7F80937C00EC
:1010400080917A00846080937A0080917A00826037
:1010500080937A0080917A00816080937A008091F9
:101060007A00806880937A0080917A008F7D8093E7
:101070007A00C301A4DACE018D599F4F5CDC23E0D6
:1010800030E094E6292E312C40E9642E77247394C5
:101090004FEF81EE94E0415080409040E1F700C076
:1010A0000000D80114968C911497E0E81496EC9304
:1010B00014978A3828F016963C932E93159719C0EA
:1010C000813818F0E1E0F0E004C0873740F4E4E054
:1010D000F0E0D8011696FC93EE9315970AC087FDB1
:1010E00003C0E2E0F0E0F5CFD80116961C921E9204
:1010F0001597F8018581968101978430910540F418
:10110000FC01EA5CFE4F8081082E000C990B02C0A6
:1011100080E090E0D5018D939C93F40140814111D2
:1011200008C0D7014D915C911197840F951F8D9345
:101130009C93F701808191818139F1E09F0720F034
:10114000D7016D927C9206C08436910518F4F701A0
:101150003182208280917A00806480937A0080912D
:101160007A0086FDFCCF8091780090917900D601BD
:101170008D939C9360E070E0CB01C058DF4F2883D3
:10118000C058D040C158DF4F3883CF57D04044D2E9
:1011900080E090E073D0AB01BC01CE0101960E94CB
:1011A0009E00CE018D599F4F52D9F20191838083C9
:1011B000CE018D599F4FBFDBC058DF4F2881C058EB
:1011C000D040C158DF4F3881CF57D04061CFD301D5
:1011D00051968D919C915297019652969C938E9325
:1011E0005197E217F30709F09ACD9DCD60E0C30156
:1011F000079698D8F3CDCF93DF93CBE2D2E086EE7B
:1012000091E0998388838A8D9B8DC7D28C899D8933
:10121000C4D28E859F85C1D288859985DF91CF9173
:10122000BCC2BB27FB015527AA27880F991FAA1FFD
:10123000A41710F0A41B83955051B9F7A05DAA33F1
:1012400008F0A95DA193009779F7B111B1931192BC
:10125000CB0100C0DC01FC01672F71917723E1F71E
:10126000329704C07C916D9370836291AE17BF0773
:10127000C8F3089540D008F481E00895E89409C0C7
:1012800097FB3EF490958095709561957F4F8F4FB9
:101290009F4F9923A9F0F92F96E9BB279395F695CF
:1012A000879577956795B795F111F8CFFAF4BB0F4D
:1012B00011F460FF1BC06F5F7F4F8F4F9F4F16C0B1
:1012C000882311F096E911C0772321F09EE8872F3B
:1012D000762F05C0662371F096E8862F70E060E0F7
:1012E0002AF09A95660F771F881FDAF7880F969570
:1012F000879597F90895990F0008550FAA0BE0E814
:10130000FEEF16161706E807F907C0F012161306C7
:10131000E407F50798F0621B730B840B950B39F407
:101320000A2661F0232B242B252B21F408950A266D
:1013300009F4A140A6958FEF811D811D08950BD062
:1013400078C069D028F06ED018F0952309F05AC003
:101350005FC01124A2C07ED0A0F3959FD1F3950F5A
:1013600050E0551F629FF001729FBB27F00DB11D29
:10137000639FAA27F00DB11DAA1F649F6627B00DB9
:10138000A11D661F829F2227B00DA11D621F739FA2
:10139000B00DA11D621F839FA00D611D221F749FB0
:1013A0003327A00D611D231F849F600D211D822FF7
:1013B000762F6A2F11249F5750408AF0E1F088233E
:1013C0004AF0EE0FFF1FBB1F661F771F881F91504B
:1013D0005040A9F79E3F510570F014C05EC05F3FBA
:1013E000ECF3983EDCF3869577956795B795F7957E
:1013F000E7959F5FC1F7FE2B880F911D9695879506
:1014000097F9089597F99F6780E870E060E0089584
:101410009FEF80EC089500240A941616170618060C
:101420000906089500240A941216130614060506E8
:101430000895092E0394000C11F4882352F0BB0F79
:1014400040F4BF2B11F460FF04C06F5F7F4F8F4FDC
:101450009F4F089557FD9058440F551F59F05F3F17
:1014600071F04795880F97FB991F61F09F3F79F0C6
:1014700087950895121613061406551FF2CF469548
:10148000F1DF08C0161617061806991FF1CF8695CA
:101490007105610508940895E894BB2766277727AE
:1014A000CB0197F908952F923F924F925F926F92DE
:1014B0007F928F929F92AF92BF92CF92DF92EF92E4
:1014C000FF920F931F93CF93DF93CDB7DEB7CA1B65
:1014D000DB0B0FB6F894DEBF0FBECDBF09942A8890
:1014E000398848885F846E847D848C849B84AA8438
:1014F000B984C884DF80EE80FD800C811B81AA81C5
:10150000B981CE0FD11D0FB6F894DEBF0FBECDBF8F
:10151000ED010895AA1BBB1B51E107C0AA1FBB1F09
:10152000A617B70710F0A61BB70B881F991F5A956F
:10153000A9F780959095BC01CD010895EE0FFF1F8E
:101540000590F491E02D09940CD073CF6BDF40F03F
:1015500062DF30F021F45F3F19F054CF51119DCF7D
:1015600057CF78DF98F39923C9F35523B1F3951B2F
:10157000550BBB27AA2762177307840738F09F5FB4
:101580005F4F220F331F441FAA1FA9F333D00E2E23
:101590003AF0E0E830D091505040E695001CCAF790
:1015A00029D0FE2F27D0660F771F881FBB1F261755
:1015B00037074807AB07B0E809F0BB0B802DBF0128
:1015C000FF2793585F4F2AF09E3F510568F01ACFCE
:1015D00064CF5F3FECF3983EDCF386957795679593
:1015E000B795F7959F5FC9F7880F911D96958795D9
:1015F00097F90895E1E0660F771F881FBB1F6217F8
:1016000073078407BA0720F0621B730B840BBA0BB5
:10161000EE1F88F7E095089525DF88F09F5790F03A
:10162000B92F9927B751A0F0D1F0660F771F881F07
:10163000991F1AF0BA95C9F712C0B13081F02CDFAA
:10164000B1E0089529CF672F782F8827B85F39F048
:10165000B93FCCF3869577956795B395D9F73EF466
:1016600090958095709561957F4F8F4F9F4F08950E
:10167000CF93DF938230910510F482E090E0E09107
:101680005902F0915A0220E030E0C0E0D0E03097FB
:1016900011F14081518148175907C0F04817590787
:1016A00061F482819381209719F09B838A832BC0F8
:1016B00090935A028093590226C02115310519F0E2
:1016C0004217530718F49A01BE01DF01EF010280AF
:1016D000F381E02DDCCF2115310509F1281B390BF1
:1016E0002430310590F412968D919C9113976115D9
:1016F000710521F0FB019383828304C090935A0209
:1017000080935902FD01329644C0FD01E20FF31FA0
:1017100081939193225031092D933C933AC02091AB
:10172000570230915802232B41F420910601309149
:101730000701309358022093570220910401309101
:1017400005012115310541F42DB73EB7409108013F
:1017500050910901241B350BE0915702F09158027A
:10176000E217F307A0F42E1B3F0B2817390778F078
:10177000AC014E5F5F4F2417350748F04E0F5F1FD7
:1017800050935802409357028193919302C0E0E036
:10179000F0E0CF01DF91CF9108950F931F93CF9386
:1017A000DF93009709F48CC0FC01329713821282F8
:1017B0000091590210915A020115110581F42081FE
:1017C0003181820F931F20915702309158022817C0
:1017D000390779F5F0935802E093570271C0D801A8
:1017E00040E050E0AE17BF0750F412962D913C91A7
:1017F0001397AD012115310509F1D901F3CF9D01F1
:10180000DA013383228360817181860F971F8217EB
:10181000930769F4EC0128813981260F371F2E5F69
:101820003F4F318320838A819B8193838283452B21
:1018300029F4F0935A02E093590242C01396FC93A4
:10184000EE931297ED01499159919E01240F351F96
:10185000E217F30771F480819181840F951F02963E
:1018600011969C938E938281938113969C938E9371
:101870001297E0E0F0E0D80112968D919C911397B9
:10188000009719F0F8018C01F6CF8D919C91980189
:101890002E5F3F4F820F931F2091570230915802C5
:1018A0002817390769F4309729F410925A021092D8
:1018B000590202C0138212821093580200935702F9
:1018C000DF91CF911F910F910895A0E0B0E0EAE67B
:1018D000FCE0EDCDEC01009719F4CB01C9DEB4C0FA
:1018E000FC01E60FF71F9C0122503109E217F307B4
:1018F00008F4A8C0D9010D911C911197061717077C
:10190000A8F00530110508F49BC0C801049786179C
:10191000970708F495C002501109061B170B019395
:1019200011936D937C93CF0138DF8AC05B01A01ABD
:10193000B10A4C01800E911EA0915902B0915A0239
:1019400040E050E0E12CF12C109709F44AC0A815B2
:10195000B905D1F56D907C901197630182E0C80EB6
:10196000D11CCA14DB0480F1A3014A195B096A0186
:1019700082E0C80ED11C1296BC9012971396AC91BF
:10198000B5E0CB16D10440F0B282A38351834083EB
:10199000D9016D937C930AC00E5F1F4FC301800F66
:1019A000911FF90191838083EB2DFA2FE114F1044B
:1019B00031F0D7011396FC93EE93129741C0F09348
:1019C0005A02E09359023CC08D919C91119748179F
:1019D000590708F4AC017D0112960D90BC91A02D21
:1019E000B3CF809157029091580288159905E1F480
:1019F00046175707C8F4809104019091050100979C
:101A000041F48DB79EB74091080150910901841BA4
:101A1000950BE817F907B0F4F0935802E0935702DA
:101A2000F901718360830CC0CB0122DE7C01009739
:101A300049F0A801BE010CD0CE01AFDEC70104C041
:101A4000CE0102C080E090E0CDB7DEB7EEE04BCD36
:101A5000FB01DC0102C001900D9241505040D8F7CB
:101A60000895FB01DC0101900D920020E1F708953B
:101A700010E0C5E3D0E003C0FE0160DD2196C6336F
:081A8000D107D1F7F894FFCF64
:101A88009600960000005B028000000040001400F1
:101A9800540001000100080040000001000401009A
:101AA8000100080020004000800000010004000040
:101AB8000000AB02730001FF0AF623002500240092
:101AC8000023002500240001230025002400022310
:101AD80000250024000323002500240004230025FA
:101AE80000240005230025002400062300250024E7
:101AF80000072600280027000026002800270001EC
:101B080026002800270002260028002700032600B8
:101B180028002700042600280027000526002800A2
:101B28002700062600280027000729002B002A0086
:101B38000029002B002A000129002B002A00022975
:101B4800002B002A000329002B002A000429002B5F
:101B5800002A000529002B002A000629002B002A4C
:101B6800000700000000E802FA01000000009B04E2
:101B780027024D41494E0043414C20004F505453D9
:0C1B8800004D454E5500533A004D3A0008
:00000001FF
