:1000000034C0000059C0000057C000007AC400008E
:1000100053C00000BFC400004FC000004DC000002E
:100020004BC0000049C0000047C0000045C00000B0
:1000300043C0000041C000003FC000003DC00000C0
:1000400016C4000039C0000037C0000035C00000F1
:1000500033C0000031C000002FC000002DC00000E0
:100060002BC0000029C00000020511241FBECFEFE5
:10007000D8E0DEBFCDBF22E0ACEEB1E001C01D9202
:10008000A530B207E1F711E0A0E0B1E0ECE7F7E15D
:1000900002C005900D92AC3EB107D9F710E0C5E360
:1000A000D0E004C02197FE010E942209C433D10789
:1000B000C9F7BAD40C94BC0BA3CFCF92DF92EF92C6
:1000C000FF920F931F93CF93DF936C017A018B0103
:1000D000C0E0D0E0CE15DF0589F0D8016D918D012B
:1000E000D601ED91FC910190F081E02DC6010995BA
:1000F000892B11F47E0102C02196ECCFC701DF915C
:10010000CF911F910F91FF90EF90DF90CF900895C6
:10011000CF92DF92EF92FF92CF93DF93EC016A01CF
:100120007B0120E030E0A901C701B60127D7882371
:1001300011F1809180008062809380008091800026
:100140008F7E809380008F8D98A1BC0180E090E02D
:1001500019D79B01AC01C701B60175D720E030E08B
:1001600048EC52E40E9428090E94900970938B0089
:1001700060938A0032C0809180008F7D80938000E0
:10018000809180008F7E80938000E88197E09E9F21
:10019000F0011124E25CFE4FA281B3814C9121E079
:1001A00030E0B901068002C0660F771F0A94E2F7BB
:1001B000862F809584238C93E8819E9FF0011124E3
:1001C000E25CFE4FA481B5818C91068002C0220FB3
:1001D000331F0A94E2F7282B2C93DF91CF91FF90E5
:1001E000EF90DF90CF900895FC0178948081883063
:1001F000A0F48091680081608093680040916B005A
:1002000021E030E0C901008002C0880F991F0A94E4
:10021000E2F7842B80936B000895803198F48091ED
:10022000680082608093680030916C0020812850C3
:1002300081E090E001C0880F2A95EAF7832B809334
:100240006C000895883190F48091680084608093F8
:10025000680030916D002081205181E090E001C064
:10026000880F2A95EAF7832B80936D000895DC01AF
:10027000EC91B7E0EB9FF0011124E25CFE4FA0810E
:10028000B1818C9190E0068002C0959587950A9483
:10029000E2F781700895CF93DF93DC01EC9197E052
:1002A0009E9FF0011124E25CFE4FC481D5815881EC
:1002B00021E030E0B901068002C0660F771F0A9482
:1002C000E2F7462F409545234883EC919E9FF0012D
:1002D0001124E25CFE4FA281B3818C91068002C0A2
:1002E000220F331F0A94E2F7282B2C93DF91CF9132
:1002F0000895DC01EC91662399F0B7E0EB9FF001E3
:100300001124E25CFE4FA281B3814C9121E030E0E8
:10031000068002C0220F331F0A94E2F7242B13C079
:1003200027E0E29FF0011124E25CFE4FA281B3813D
:100330004C9121E030E0068002C0220F331F0A9466
:10034000E2F7209524232C93DC01EC91B7E0EB9F9E
:10035000F0011124E25CFE4FA481B5812C9181E073
:1003600090E0068002C0880F991F0A94E2F7822B62
:100370008C930895EF92FF920F931F93CF93DF9387
:100380008C01C0E0D0E0E62EF12CF801808591854B
:10039000C817D90770F4B7010C2E02C07595679580
:1003A0000A94E2F76170C8018C0F9D1FA2DF2196AD
:1003B000ECCFC801DF91CF911F910F91FF90EF908B
:1003C0000895FC01A091F201B091F3018C91882372
:1003D00079F08FEC97E00197F1F700C0000080857D
:1003E00091E098279087E091F201F091F30111C01C
:1003F000E091F001F091F1018081882359F08FECB8
:1004000097E00197F1F700C00000E091F001F09152
:10041000F10110820895CF93DF93EC01289660E0FC
:10042000CE0167DF85E08A95F1F7000061E0CE013B
:1004300060DF95E09A95F1F7000060E0CE0159DFAA
:100440008FE891E00197F1F700C00000DF91CF91B4
:100450000895CF93DF93EC0109968CDFCE01DF91F5
:10046000CF91D9CF1F93CF93DF93EC01162F642F39
:1004700006963FDFCE0107962F812531D1F48B8977
:10048000612F84FF08C0CE01099674DFCE01DF9191
:10049000CF911F91C0CF70E084E0759567958A95E4
:1004A000E1F7CE01D6DF612FCE01DF91CF911F9111
:1004B000D0CF60E01EDFE3CF41E0D4DF81E090E009
:1004C000089540E0CFCFCF93DF93CDB7DEB7289725
:1004D0000FB6F894DEBF0FBECDBF9C0188E0E6E00A
:1004E000F1E0DE01119601900D928A95E1F7F90194
:1004F0008789481710F04FEF480FFE013196E40F3F
:10050000F11DE40FF11D9081690F6068C901289603
:100510000FB6F894DEBF0FBECDBFDF91CF91D1CF24
:1005200061E0CFDF8FE39FE10197F1F700C00000AA
:1005300008956115710579F0FB0101900020E9F73C
:100540003197AF01461B570BDC01ED91FC91028006
:10055000F381E02D099480E090E008950F931F93BC
:10056000CF93DF93EC0188819981009729F02A814C
:100570003B812617370788F48B016F5F7F4F0E94FE
:10058000E90A009761F0998388831B830A832C8191
:100590003D81232B11F4FC01108281E001C080E039
:1005A000DF91CF911F910F910895CF92DF92EF923B
:1005B000FF920F931F93CF93DF93CDB7DEB72797AB
:1005C0000FB6F894DEBF0FBECDBF8C01CB014AE061
:1005D0009E012F5F3F4F6901B901A7D4F601019039
:1005E0000020E9F73197EC19FD09D8011496ED9038
:1005F000FC9015973097B1F0EE0EFF1EB701C801C1
:10060000ADDF882381F0F8012081318184819581DB
:10061000B601820F931F0E94B50BD8011596FC926C
:10062000EE92149781E027960FB6F894DEBF0FBEC6
:10063000CDBFDF91CF911F910F91FF90EF90DF9091
:10064000CF900895EF92FF920F931F93CF93DF9374
:1006500000D0CDB7DEB78C0169831A82FC01E4803B
:10066000F580FFEFEF1AFF0AB70178DF882381F0EA
:10067000F8012081318184819581BE016F5F7F4FB8
:10068000820F931F0E94B50BF801F582E48281E08E
:100690000F900F90DF91CF911F910F91FF90EF90EE
:1006A0000895EF92FF920F931F93CF93DF93EC0186
:1006B0008A017901198218821B821A821D821C828A
:1006C00060E070E04BDFE881F98181110BC0309769
:1006D00011F0CF01E6D6198218821D821C821B827E
:1006E0001A8207C01D821C826BEE71E0CF010E944E
:1006F000B50BE114F104A9F0EA94EF28D9F429E04C
:10070000209FC001219F900D112465E070E086D5E7
:10071000605E7F4FCE0149DF6FEDCE0193DF66E46F
:1007200007C0B801CE0141DF6FEDCE018BDF63E47E
:10073000CE0188DFCE01DF91CF911F910F91FF9005
:10074000EF900895EF92FF920F931F93CF93DF9353
:1007500000D000D000D0CDB7DEB78C018091F4017D
:100760009091F501DDDE40E060E08091F401909130
:10077000F501A9DED8011696ED90FC90179766EE6C
:1007800071E08091F4019091F501D3DED8011496C7
:10079000ED91FC911597408151819701B801CE01EF
:1007A00001967FDF8091F4019091F501DC01ED91DC
:1007B000FC914D815E8169817A810280F381E02D17
:1007C000099589819A816DD641E060E08091F401BC
:1007D0009091F50178DEF801E680F78069EE71E02E
:1007E0008091F4019091F501A4DED8011296ED916B
:1007F000FC911397408151819701B801CE01019678
:1008000050DF8091F4019091F501DC01ED91FC91B4
:100810004D815E8169817A810280F381E02D0995A5
:1008200089819A813ED6F8018085882399F040E03D
:1008300067E08091F4019091F50145DE8091F4012B
:100840009091F501DC01ED91FC910190F081E02D9A
:1008500066E2099526960FB6F894DEBF0FBECDBFAF
:10086000DF91CF911F910F91FF90EF9008951F920C
:100870000F920FB60F9211242F933F938F939F9354
:10088000AF93BF938091FD019091FE01A091FF0174
:10089000B09100023091FC0123E0230F2D3720F4AA
:1008A0000196A11DB11D05C026E8230F0296A11DCA
:1008B000B11D2093FC018093FD019093FE01A09354
:1008C000FF01B09300028091F8019091F901A0918D
:1008D000FA01B091FB010196A11DB11D8093F801B1
:1008E0009093F901A093FA01B093FB01BF91AF91EE
:1008F0009F918F913F912F910F900FBE0F901F905E
:1009000018951F920F920FB60F9211241F932F93D9
:100910003F934F935F936F937F938F939F93AF9387
:10092000BF93CF93DF93EF93FF938FE891E001970D
:10093000F1F700C00000C091F601D091F701888165
:10094000998195DC182F8A819B8191DC9C811813F9
:1009500002C0915001C09F5F9C838C818F3F11F436
:100960008AE803C0811102C086E78C83FF91EF9172
:10097000DF91CF91BF91AF919F918F917F916F91B7
:100980005F914F913F912F911F910F900FBE0F904C
:100990001F9018951F920F920FB60F9211242F934C
:1009A0003F934F935F936F937F938F939F93AF93F7
:1009B000BF93EF93FF938FE79CE00197F1F700C09F
:1009C00000008FEE91E053DC811103C081E0809341
:1009D000ED018EEE91E04BDC811103C081E080934C
:1009E000EC01FF91EF91BF91AF919F918F917F911A
:1009F0006F915F914F913F912F910F900FBE0F908C
:100A00001F90189585E18093EF018FEE91E043DC14
:100A10008FEE91E0E9DB86E18093EE018EEE91E0CE
:100A20003ADC8EEE91E0E0CBCF93DF93CDB7DEB72B
:100A3000CA55D1090FB6F894DEBF0FBECDBF7E01F7
:100A400025E5E20EF11C86E990E0D7018D939C9399
:100A50006E01B3E5CB0ED11C84E690E0F6019183E4
:100A600080838FB7F8944091FD015091FE01609111
:100A7000FF01709100028FBF1DA61CA68EE291E0BF
:100A80009BA78AA71FA61EA68AE088AB85E189AB33
:100A90009BE09AAB9DE09BAB90E19CAB9CE09DAB57
:100AA00091E19EAB8FAB88AF89AF8AAF1CAE1BAE16
:100AB000B0979E01255C3F4F8191853109F026C298
:100AC00060E0CE01C09615DC60E0CE01C29611DC7C
:100AD0008EA59FA5892B11F41DAE02C080E18DAFBC
:100AE000CE01885A9F4FDC011C92FE01E95AFF4F4C
:100AF00027E120838E01045B1F4FD80116961C92BC
:100B00001E92159720E814962C93149711969C9397
:100B10008E931396FC93EE931297BDDBF8018281BE
:100B20009381B9DBD8018D919C915EDB1093F70125
:100B30000093F6015E01BAE2AB0EB11CB092F50172
:100B4000A092F4018DAD88608DAF82E022968FAFC8
:100B5000229723961FAE2397EFEFF0E722E0E150B4
:100B6000F0402040E1F700C0000060E0CE01C096F8
:100B7000C0DB60E0CE01C296BCDB89A9853109F0FB
:100B8000CFC16DAD64FD1FC063E0C50162DC8FE4C1
:100B900096E40197F1F700C0000063E0C50159DC5D
:100BA000AFE4B6E41197F1F700C0000063E0C501BF
:100BB00050DCE7E5F2E03197F1F700C0000062E0B9
:100BC000C50147DC17C06062C5017BDC8FE496E499
:100BD0000197F1F700C000006DAD6062C50171DCE6
:100BE000A7E5B2E01197F1F700C000006DAD6062BB
:100BF000C50167DC6DAD6062C50163DC84E08EAF6A
:100C00006CE0C5015EDCC5018BDC82E0982E9FAEF6
:100C100066E0C50156DC8091F4019091F50180DC1D
:100C200040E060E08091F4019091F5014CDC8DEEA4
:100C300091E09093F3018093F2018CEE91E0909318
:100C4000F1018093F00186E391E025969FAF8EAF8E
:100C500025972B961FAE1EAE2B972C961FAE2C976A
:100C60002796DFAECEAE27972996FFAEEEAE299738
:100C700099828CE0EEE0F1E0DE01129601900D9297
:100C80008A95E1F780E1EAE1F1E0DE011E9601904C
:100C90000D928A95E1F780E090E4ACE1B6E48AA396
:100CA0009BA3ACA3BDA38AE08F8F81E08E8F6C8164
:100CB0007D8180E496E0B2D279A368A38091800020
:100CC000806280938000809180008F7E809380007E
:100CD000809180008E7F8093800080918000826070
:100CE0008093800080918100886080938100809152
:100CF000810080618093810088A199A190938700F1
:100D000080938600909181008E8D892B8093810045
:100D1000E98187E08E9FF0011124E25CFE4FA28101
:100D2000B3819C9121E030E0A901068002C0440F0C
:100D3000551F0A94E2F7492B4C93E9818E9FF001ED
:100D40001124E25CFE4FA481B5818C91068002C023
:100D5000220F331F0A94E2F7282B2C9340E050E037
:100D600060E271E4CE010196D3D93898409880E4CE
:100D700080937C0080917C008B7F80937C008091AD
:100D80007C008D7F80937C0080917C008E7F80939F
:100D90007C0080917A00846080937A0080917A0050
:100DA000826080937A0080917A00816080937A00DB
:100DB00080917A00806880937A0080917A008F7D9C
:100DC00080937A00C501ACDBCE018D5B9F4FBADC0E
:100DD00022E030E094E0292E312C44244394512C1D
:100DE00053E0A52EB12C64E6862E912C70E9672E77
:100DF00077247394BFEFE1EEF4E0B150E040F040AF
:100E0000E1F700C00000D80114968C911497E0E837
:100E10001496EC9314978A3828F01696BC92AE92EA
:100E2000159719C0813830F0D80116965C924E9211
:100E3000159711C0873720F4F801368225820BC040
:100E400087FD06C0D80116963C932E93159703C0D4
:100E5000F80116821582D80115968D919C911697EE
:100E600001978430910540F4FC01E65CFE4F8081DF
:100E7000082E000C990B02C080E090E0F701408141
:100E80005181840F951F8139F1E09F0720F0D70130
:100E90006D927C920AC08436910520F0F70191830F
:100EA000808303C0D7018D929C9280917A008064E8
:100EB00080937A0080917A0086FDFCCF8091780043
:100EC00090917900F6019183808360E070E0CB011E
:100ED0006A962FAF6A976B963FAF6B9721D280E0EF
:100EE00090E050D0AB01BC01CE01019611D9CE01EA
:100EF0008D5B9F4F66DACE018D5B9F4F23DC6A9638
:100F00002FAD6A976B963FAD6B9774CF8BAD9CAD51
:100F100001969CAF8BAFE217F30709F0CDCDD0CD92
:100F200060E0CE01C196E5D92CCEBB27FB01552749
:100F3000AA27880F991FAA1FA41710F0A41B839536
:100F40005051B9F7A05DAA3308F0A95DA1930097AD
:100F500079F7B111B1931192CB0100C0DC01FC0112
:100F6000672F71917723E1F7329704C07C916D93DD
:100F700070836291AE17BF07C8F3089540D008F49C
:100F800081E00895E89409C097FB3EF49095809520
:100F9000709561957F4F8F4F9F4F9923A9F0F92F3F
:100FA00096E9BB279395F695879577956795B795BD
:100FB000F111F8CFFAF4BB0F11F460FF1BC06F5FA3
:100FC0007F4F8F4F9F4F16C0882311F096E911C0B5
:100FD000772321F09EE8872F762F05C0662371F0D6
:100FE00096E8862F70E060E02AF09A95660F771FEA
:100FF000881FDAF7880F9695879597F90895990FC6
:101000000008550FAA0BE0E8FEEF16161706E807D2
:10101000F907C0F012161306E407F50798F0621BF3
:10102000730B840B950B39F40A2661F0232B242BC8
:10103000252B21F408950A2609F4A140A6958FEFE7
:10104000811D811D08950BD078C069D028F06ED025
:1010500018F0952309F05AC05FC01124A2C07ED0B9
:10106000A0F3959FD1F3950F50E0551F629FF001BB
:10107000729FBB27F00DB11D639FAA27F00DB11D14
:10108000AA1F649F6627B00DA11D661F829F22279D
:10109000B00DA11D621F739FB00DA11D621F839F24
:1010A000A00D611D221F749F3327A00D611D231FFA
:1010B000849F600D211D822F762F6A2F11249F5748
:1010C00050408AF0E1F088234AF0EE0FFF1FBB1F6B
:1010D000661F771F881F91505040A9F79E3F51050A
:1010E00070F014C05EC05F3FECF3983EDCF3869571
:1010F00077956795B795F795E7959F5FC1F7FE2BB5
:10110000880F911D9695879597F9089597F99F6790
:1011100080E870E060E008959FEF80EC089500247F
:101120000A941616170618060906089500240A944C
:1011300012161306140605060895092E0394000CD2
:1011400011F4882352F0BB0F40F4BF2B11F460FF61
:1011500004C06F5F7F4F8F4F9F4F089557FD90588A
:10116000440F551F59F05F3F71F04795880F97FB6B
:10117000991F61F09F3F79F0879508951216130625
:101180001406551FF2CF4695F1DF08C01616170654
:101190001806991FF1CF8695710561050894089589
:1011A000E894BB2766277727CB0197F908952F92FC
:1011B0003F924F925F926F927F928F929F92AF92E7
:1011C000BF92CF92DF92EF92FF920F931F93CF9334
:1011D000DF93CDB7DEB7CA1BDB0B0FB6F894DEBFCB
:1011E0000FBECDBF09942A88398848885F846E84F1
:1011F0007D848C849B84AA84B984C884DF80EE803B
:10120000FD800C811B81AA81B981CE0FD11D0FB643
:10121000F894DEBF0FBECDBFED010895AA1BBB1B26
:1012200051E107C0AA1FBB1FA617B70710F0A61BE6
:10123000B70B881F991F5A95A9F780959095BC0107
:10124000CD010895EE0FFF1F0590F491E02D099454
:101250000CD073CF6BDF40F062DF30F021F45F3FE2
:1012600019F054CF51119DCF57CF78DF98F39923C0
:10127000C9F35523B1F3951B550BBB27AA2762175A
:101280007307840738F09F5F5F4F220F331F441F9F
:10129000AA1FA9F333D00E2E3AF0E0E830D09150D7
:1012A0005040E695001CCAF729D0FE2F27D0660FC4
:1012B000771F881FBB1F261737074807AB07B0E803
:1012C00009F0BB0B802DBF01FF2793585F4F2AF019
:1012D0009E3F510568F01ACF64CF5F3FECF3983E14
:1012E000DCF3869577956795B795F7959F5FC9F776
:1012F000880F911D9695879597F90895E1E0660FFF
:10130000771F881FBB1F621773078407BA0720F077
:10131000621B730B840BBA0BEE1F88F7E0950895E0
:1013200025DF88F09F5790F0B92F9927B751A0F08B
:10133000D1F0660F771F881F991F1AF0BA95C9F769
:1013400012C0B13081F02CDFB1E0089529CF672FB2
:10135000782F8827B85F39F0B93FCCF38695779519
:101360006795B395D9F73EF4909580957095619502
:101370007F4F8F4F9F4F0895CF93DF93823091051A
:1013800010F482E090E0E0910302F091040220E08A
:1013900030E0C0E0D0E0309711F140815181481732
:1013A0005907C0F04817590761F48281938120974B
:1013B00019F09B838A832BC09093040280930302CD
:1013C00026C02115310519F04217530718F49A0168
:1013D000BE01DF01EF010280F381E02DDCCF21159A
:1013E000310509F1281B390B2430310590F4129690
:1013F0008D919C9113976115710521F0FB019383E9
:10140000828304C09093040280930302FD0132960C
:1014100044C0FD01E20FF31F8193919322503109E3
:101420002D933C933AC02091010230910202232B6C
:1014300041F4209102013091030130930202209384
:10144000010220910001309101012115310541F483
:101450002DB73EB74091040150910501241B350B77
:10146000E0910102F0910202E217F307A0F42E1BB3
:101470003F0B2817390778F0AC014E5F5F4F2417F8
:10148000350748F04E0F5F1F509302024093010250
:101490008193919302C0E0E0F0E0CF01DF91CF9122
:1014A00008950F931F93CF93DF93009709F48CC097
:1014B000FC01329713821282009103021091040200
:1014C0000115110581F420813181820F931F209134
:1014D0000102309102022817390779F5F0930202D0
:1014E000E093010271C0D80140E050E0AE17BF07A1
:1014F00050F412962D913C911397AD0121153105B1
:1015000009F1D901F3CF9D01DA0133832283608190
:101510007181860F971F8217930769F4EC01288168
:101520003981260F371F2E5F3F4F318320838A81F9
:101530009B8193838283452B29F4F0930402E093EB
:10154000030242C01396FC93EE931297ED0149916A
:1015500059919E01240F351FE217F30771F4808122
:101560009181840F951F029611969C938E93828190
:10157000938113969C938E931297E0E0F0E0D8014C
:1015800012968D919C911397009719F0F8018C0198
:10159000F6CF8D919C9198012E5F3F4F820F931F44
:1015A00020910102309102022817390769F430971F
:1015B00029F4109204021092030202C013821282D4
:1015C0001093020200930102DF91CF911F910F91BE
:1015D0000895A0E0B0E0EEEEFAE0EDCDEC0100976A
:1015E00019F4CB01C9DEB4C0FC01E60FF71F9C0162
:1015F00022503109E217F30708F4A8C0D9010D9170
:101600001C91119706171707A8F00530110508F46B
:101610009BC0C80104978617970708F495C002502D
:101620001109061B170B019311936D937C93CF0146
:1016300038DF8AC05B01A01AB10A4C01800E911EEE
:10164000A0910302B091040240E050E0E12CF12CA3
:10165000109709F44AC0A815B905D1F56D907C9092
:101660001197630182E0C80ED11CCA14DB0480F11B
:10167000A3014A195B096A0182E0C80ED11C1296C7
:10168000BC9012971396AC91B5E0CB16D10440F004
:10169000B282A38351834083D9016D937C930AC0A6
:1016A0000E5F1F4FC301800F911FF901918380834B
:1016B000EB2DFA2FE114F10431F0D7011396FC93CE
:1016C000EE93129741C0F0930402E09303023CC0F2
:1016D0008D919C9111974817590708F4AC017D0131
:1016E00012960D90BC91A02DB3CF809101029091E4
:1016F000020288159905E1F446175707C8F480914E
:10170000000190910101009741F48DB79EB740917F
:10171000040150910501841B950BE817F907B0F4FB
:10172000F0930202E0930102F901718360830CC01F
:10173000CB0122DE7C01009749F0A801BE010CD04C
:10174000CE01AFDEC70104C0CE0102C080E090E050
:10175000CDB7DEB7EEE04BCDFB01DC0102C001905E
:101760000D9241505040D8F70895FB01DC010190E3
:0C1770000D920020E1F70895F894FFCFDF
:10177C00000005028000000040001400540001002D
:10178C0001000800400000010004010001000800F5
:10179C0020004000800000010004000000005C02FA
:1017AC005D0000000000A203E10101FF0AF6230026
:1017BC00250024000023002500240001230025001F
:1017CC00240002230025002400032300250024000C
:1017DC0004230025002400052300250024000623F3
:1017EC0000250024000726002800270000260028DA
:1017FC0000270001260028002700022600280027C9
:10180C0000032600280027000426002800270005D6
:10181C00260028002700062600280027000729009C
:10182C002B002A000029002B002A000129002B0084
:10183C002A000229002B002A000329002B002A0071
:10184C000429002B002A000529002B002A00062958
:0C185C00002B002A0007533A004D3A0010
:00000001FF
