:1000000035C000005AC0000058C00000B3C2000054
:1000100054C0000029C2000050C000004EC00000C3
:100020004CC000004AC0000048C0000046C00000AC
:1000300044C0000042C0000040C000003EC00000BC
:100040004FC200003AC0000038C0000036C00000B7
:1000500034C0000032C0000030C000002EC00000DC
:100060002CC000002AC00000130BFD0A11241FBE83
:10007000CFEFD8E0DEBFCDBF22E0ACE0B2E001C000
:100080001D92A935B207E1F712E0A0E0B1E0E8EE79
:10009000FFE102C005900D92AC30B107D9F710E036
:1000A000C5E3D0E004C02197FE010E94E50CC433F3
:1000B000D107C9F7F1D40C94E80FA2CFDC01ED9180
:1000C000FC910190F081E02D0994DC01ED91FC910F
:1000D000DB0114964D915C9115976D917C91028096
:1000E000F381E02D0994CF92DF92EF92FF920F936C
:1000F0001F93CF93DF936C017A018B01C0E0D0E0B6
:10010000CE15DF0589F0D8016D918D01D601ED91F5
:10011000FC910190F081E02DC6010995892B11F425
:100120007E0102C02196ECCFC701DF91CF911F91D4
:100130000F91FF90EF90DF90CF900895DC01EC914C
:10014000B7E0EB9FF0011124E65CFE4FA081B18186
:100150008C9190E0068002C0959587950A94E2F70D
:1001600081700895E0914A02F0914B022081222390
:1001700069F08FEC97E00197F1F700C00000E09183
:100180005302F0915402808191810895E0914802D8
:10019000F09149022081222359F0AFECB7E011978A
:1001A000F1F700C000001082FC0184819581089560
:1001B00080E090E00895E0914A02F0914B02808146
:1001C000882381F08FEC97E00197F1F700C00000E1
:1001D000A0914602B09147029C9181E089278C93BF
:1001E000108211C0E0914802F09149028081882379
:1001F00051F08FEC97E00197F1F700C000001082FA
:1002000080E090E0089581E090E008956115710527
:1002100079F0FB0101900020E9F73197AF01461B0F
:10022000570BDC01ED91FC910280F381E02D0994E4
:1002300080E090E008950F931F93CF93DF93EC013C
:1002400088819981009729F02A813B8126173707F9
:1002500088F48B016F5F7F4F0E94150F009761F04C
:10026000998388831B830A832C813D81232B11F47E
:10027000FC01108281E001C080E0DF91CF911F91ED
:100280000F910895CF92DF92EF92FF920F931F93F9
:10029000CF93DF93CDB7DEB727970FB6F894DEBFC5
:1002A0000FBECDBF8C01CB014AE09E012F5F3F4FB7
:1002B0006901B9010E94580BF60101900020E9F78D
:1002C0003197EC19FD09D8011496ED90FC90159723
:1002D0003097B1F0EE0EFF1EB701C801ACDF8823E6
:1002E00081F0F8012081318184819581B601820FEE
:1002F000931F0E94E10FD8011596FC92EE9214977D
:1003000081E027960FB6F894DEBF0FBECDBFDF9118
:10031000CF911F910F91FF90EF90DF90CF900895B4
:10032000EF92FF920F931F93CF93DF9300D0CDB73F
:10033000DEB78C0169831A82FC01E480F580FFEF4F
:10034000EF1AFF0AB70177DF882381F0F8012081D7
:10035000318184819581BE016F5F7F4F820F931F32
:100360000E94E10FF801F582E48281E00F900F9086
:10037000DF91CF911F910F91FF90EF900895EF9231
:10038000FF920F931F93CF93DF93EC011982188292
:100390001B821A821D821C826115710541F18B013D
:1003A000FB0101900020E9F731977F01E61AF70A77
:1003B000B70141DF2881398181110DC02115310537
:1003C00019F0C9010E947D0E198218821D821C82BB
:1003D0001B821A820CC0FD82EC82B801C901DF9138
:1003E000CF911F910F91FF90EF900C94E10FDF914F
:1003F000CF911F910F91FF90EF900895EF92FF9290
:100400000F931F93CF93DF93EC018A0179016BEF78
:1004100071E0B5DFE114F104B1F0EA94EF28E1F402
:1004200029E0209FC001219F900D112465E070E01C
:100430000E94D10C605E7F4FCE0124DF6FEDCE01B4
:100440006FDF66E407C0B801CE011CDF6FEDCE019F
:1004500067DF63E4CE0164DFCE01DF91CF911F91AE
:100460000F91FF90EF9008951F920F920FB60F9289
:1004700011242F933F934F935F936F937F938F93A9
:100480009F93AF93BF93EF93FF938FE79CE0019708
:10049000F1F700C0000080911A0290911B024EDE1D
:1004A000811103C081E0809319028091170290911D
:1004B000180244DE811103C081E080931602FF918F
:1004C000EF91BF91AF919F918F917F916F915F91CC
:1004D0004F913F912F910F900FBE0F901F90189545
:1004E0001F920F920FB60F9211242F933F938F9369
:1004F0009F93AF93BF938091120290911302A091AA
:100500001402B09115023091520223E0230F2D37CF
:1005100020F40196A11DB11D05C026E8230F029607
:10052000A11DB11D209352028093120290931302D9
:10053000A0931402B093150280914E0290914F0245
:10054000A0915002B09151020196A11DB11D80935E
:100550004E0290934F02A0935002B0935102BF916C
:10056000AF919F918F913F912F910F900FBE0F9060
:100570001F9018951F920F920FB60F9211241F9380
:100580002F933F934F935F936F937F938F939F939B
:10059000AF93BF93CF93DF93EF93FF938FE891E0F7
:1005A0000197F1F700C00000C0911002D091110234
:1005B00088819981C3DD182F8A819B81BFDD9C8151
:1005C000181302C0915001C09F5F9C838C818F3FA4
:1005D00011F48AE803C0811102C086E78C83FF9181
:1005E000EF91DF91CF91BF91AF919F918F917F91CB
:1005F0006F915F914F913F912F911F910F900FBE7F
:100600000F901F901895FC01789480818830A0F499
:100610008091680081608093680040916B0021E0C8
:1006200030E0C901008002C0880F991F0A94E2F7E8
:10063000842B80936B000895803198F4809168003A
:1006400082608093680030916C002081285081E0A6
:1006500090E001C0880F2A95EAF7832B80936C0005
:100660000895883190F480916800846080936800D8
:1006700030916D002081205181E090E001C0880F11
:100680002A95EAF7832B80936D000895CF93DF932B
:10069000DC01EC9197E09E9FF0011124E65CFE4F97
:1006A000C281D381588121E030E0B901068002C0C7
:1006B000660F771F0A94E2F7462F4095452348833B
:1006C000EC919E9FF0011124E65CFE4FA481B58160
:1006D0008C91068002C0220F331F0A94E2F7282B68
:1006E0002C93DF91CF910895CF93DF93DC01EC91B0
:1006F00097E09E9FF0011124E65CFE4FC481D581F6
:10070000588121E030E0B901068002C0660F771FF2
:100710000A94E2F7462F409545234883EC919E9F2B
:10072000F0011124E65CFE4FA281B3818C9106801A
:1007300002C0220F331F0A94E2F7282B2C93DF917B
:10074000CF910895DC01EC91662399F0B7E0EB9F1F
:10075000F0011124E65CFE4FA281B3814C9121E0AF
:1007600030E0068002C0220F331F0A94E2F7242BE8
:1007700013C027E0E29FF0011124E65CFE4FA28146
:10078000B3814C9121E030E0068002C0220F331F7C
:100790000A94E2F7209524232C93DC01EC91B7E036
:1007A000EB9FF0011124E65CFE4FA481B5812C91F2
:1007B00081E090E0068002C0880F991F0A94E2F75A
:1007C000822B8C930895CF93DF93EC01289660E001
:1007D000CE01B8DF85E08A95F1F7000061E0CE0137
:1007E000B1DF95E09A95F1F7000060E0CE01AADF55
:1007F0008FE891E00197F1F700C00000DF91CF9101
:100800000895EF92FF920F931F93CF93DF938C0184
:10081000C0E0D0E0E62EF12CF80180859185C81764
:10082000D90770F4B7010C2E02C0759567950A942C
:10083000E2F76170C8018C0F9D1F84DF2196ECCF19
:10084000C801DF91CF911F910F91FF90EF90089514
:10085000CF93DF93EC010996D4DFCE01DF91CF91E6
:10086000B2CF1F93CF93DF93EC01162F642F069620
:1008700069DFCE0107962F812531D1F48B89612F55
:1008800084FF08C0CE010996BCDFCE01DF91CF9175
:100890001F9199CF70E084E0759567958A95E1F78F
:1008A000CE01D6DF612FCE01DF91CF911F91D0CF46
:1008B00060E048DFE3CF41E0D4DF81E090E00895DD
:1008C00040E0CFCFCF93DF93CDB7DEB728970FB6F9
:1008D000F894DEBF0FBECDBF9C0188E0E2E3F1E0FB
:1008E000DE01119601900D928A95E1F7F901878951
:1008F000481710F04FEF480FFE013196E40FF11D3D
:10090000E40FF11D9081690F6068C90128960FB648
:10091000F894DEBF0FBECDBFDF91CF91D1CF61E0A4
:10092000CFDF8FE39FE10197F1F700C0000008954A
:100930000F931F93CF93DF938C01C0914C02D09102
:100940004D02CE01ECDF40E060E0CE01BBDFF801FC
:100950006681CE01B3DB40E062E0CE01B3DFB801D7
:10096000685F7F4FCE01B1DB40E067E0CE01AADFD8
:10097000F8016781CE01A2DB41E060E0CE01A2DF99
:10098000F8016681CE019ADB41E062E0CE019ADF98
:10099000B801665E7F4FCE0198DB41E067E0CE0193
:1009A00091DFF8016781CE01DF91CF911F910F9107
:1009B00085CBCF92DF92EF92FF920F931F93CF934D
:1009C000DF9300D000D000D0CDB7DEB77C0100911E
:1009D0004C0210914D02C801A2DF40E060E0C80166
:1009E00071DFD7011896CD90DC90199766E072E020
:1009F000C8010CDCD7011696ED91FC911797408148
:100A000051819601B701CE010196F8DCBE016F5FFE
:100A10007F4FC8015ADB89819A810E947D0E41E097
:100A200060E0C8014FDFF701C084D18469E072E063
:100A3000C801ECDBD7011496ED91FC91159740812C
:100A400051819601B701CE010196D8DCBE016F5FDE
:100A50007F4FC8013ADB89819A810E947D0EE09127
:100A60004602F09147028081882339F040E067E038
:100A7000C80128DF66E2C80121DB26960FB6F8948C
:100A8000DEBF0FBECDBFDF91CF911F910F91FF90C1
:100A9000EF90DF90CF900895CF93DF93CDB7DEB77F
:100AA000CF5BD1090FB6F894DEBF0FBECDBF8E016C
:100AB00005571F4FD80113961C921E9212978AE277
:100AC00091E011969C938E9315961C921E9214970A
:100AD0008AE016968C93169785E117968C93179754
:100AE0009BE018969C9318979DE019969C931997F4
:100AF00090E11A969C931A979CE01B969C931B97E7
:100B000091E11C969C931C971D968C931D971E96A5
:100B10008C931E971F968C931F9750968C9350978B
:100B200052961C921E925197F801399698012F5EA9
:100B30003F4F8191853109F04CC560E0C8010696B0
:100B400001DE60E0C8010896FDDDF8018481958131
:100B5000892B11F4138A02C080E1838BCE018F545C
:100B60009F4FFC011082319727E12083C755DF4F4B
:100B700019821882C95AD04020E8C855DF4F28830F
:100B8000C85AD040CC55DF4F99838883C45AD0408F
:100B9000CA55DF4FF983E883C65AD040A5DDCA5550
:100BA000DF4F88819981C65AD0409EDDCC55DF4FFA
:100BB00088819981C45AD04026DD24EA30E02C0F88
:100BC0003D1F30931102209310024E013FEA830E25
:100BD000911C85E1D4018C93C40186DDC40113DD31
:100BE0003E01BEEA6B0E711C86E1F3018083C301F6
:100BF0007BDDC30108DD5E01FBEAAF0EB11C88E0BE
:100C0000D5018C9312961C921E9211973898EC91F4
:100C1000B7E0EB9FF0011124E65CFE4FA281B381A7
:100C20002C9181E090E0068002C0880F991F0A9401
:100C3000E2F7809582238C9380E480937C00F50119
:100C400080818A30B1F040F4883079F08930E9F55C
:100C500080917C008B7F2DC08C30E9F098F08D3036
:100C6000A1F580917C00846024C080917C008B7F02
:100C700015C080917C008B7F80937C0080917C00EC
:100C8000826011C080917C008B7F80937C0080917A
:100C90007C00826013C080917C00846080937C0023
:100CA00080917C008D7F80937C0080917C008E7F82
:100CB0000AC080937C0080917C008D7F80937C00B3
:100CC00080917C00816080937C0080917A008460B8
:100CD00080937A0080917A00826080937A0080917C
:100CE0007A00816080937A0080917A008068809396
:100CF0007A00D50111968D919C9112970097D1F0B1
:100D00000197E9F480917A00806280937A00809163
:100D10007B008B7F80937B0080917B008D7F809315
:100D20007B0080917B008E7F80937B0080917A0096
:100D3000806403C080917A008F7D80937A006E0179
:100D4000B2E6CB0ED11C92E0D6019D938CE0EAE096
:100D5000F1E001900D928A95E1F780E1E6E1F1E0A2
:100D6000D6011D9601900D928A95E1F7F601168E37
:100D700010930D0200930C02D80153968C91539757
:100D8000886053968C93539757969C935797589691
:100D90001C92BFEFE0E7F2E0B150E040F040E1F735
:100DA00000C0000060E0C8010696CCDC60E0C8012D
:100DB0000896C8DCD80117968C91853109F018C4C3
:100DC000F801638964FD1FC063E0C80141DD8FE461
:100DD00096E40197F1F700C0000063E0C80138DD38
:100DE000AFE4B6E41197F1F700C0000063E0C8017A
:100DF0002FDDE7E5F2E03197F1F700C0000062E097
:100E0000C80126DD1BC06062C8015ADD8FE496E48C
:100E10000197F1F700C00000D80153966C91606211
:100E2000C8014EDDE7E5F2E03197F1F700C00000C0
:100E3000D80153966C916062C80142DDF801638964
:100E40006062C8013DDD84E0D80154968C936CE06B
:100E5000C80136DDC80163DD82E0F801858B66E0FC
:100E6000C8012EDD80910C0290910D0258DD40E00A
:100E700060E080910C0290910D0224DD90921B02A3
:100E800080921A02709218026092170224EA30E0EF
:100E90002C0F3D1F30930F0220930E021C821B82E9
:100EA00081E090E09E838D831F8226E930E03987C0
:100EB00028879E01225E3F4F26963FAF2EAF269792
:100EC0002450310924963FAF2EAF2497285F3F4F1F
:100ED00028963FAF2EAF2897A1961FAEA1976C968C
:100EE0001CAE1DAE1EAE1FAE6C9740E050E06FE72B
:100EF00073E4A0964CAF5DAF6EAF7FAFA09744E6B2
:100F000050E060E070E068964CAF5DAF6EAF7FAFD1
:100F100068971FAE1EAE22969FAF8EAF229721E03C
:100F2000A2962FAFA29780E090E0A0E0B0E48EA35D
:100F30009FA3A8A7B9A740E050E060EA70E44AA7E1
:100F40005BA76CA77DA740E050E060E87FE34EA779
:100F50005FA768AB79AB8AAB9BABACABBDAB80E0BA
:100F600090E0A0E0BFE38EAB9FABA8AFB9AF80E04D
:100F700090E0A0E2B1E48AAF9BAFACAFBDAF3FB7AA
:100F8000F8948091120290911302A0911402B091F2
:100F900015023FBF68964CAD5DAD6EAD7FAD6897F5
:100FA000841B950BA60BB70B2C968CAF9DAFAEAFE9
:100FB000BFAF2C97BD8AAC8ADB8ACA8A80E090E4F6
:100FC000ACE1B6E4F60181A392A3A3A3B4A38AE0A3
:100FD000868F258F6381748180E496E0E2D470A3CC
:100FE000678F80819BEE980F923008F456C0813055
:100FF00041F580918000806880938000809180001E
:101000008F7B80938000809180008E7F8093800012
:101010008091800082608093800080918100886050
:101020008093810080918100806180938100878D11
:1010300090A1909387008093860090918100858D88
:1010400029C0823051F580918000806280938000B9
:10105000809180008F7E80938000809180008E7FC1
:1010600080938000809180008260809380008091D6
:1010700081008860809381008091810080618093ED
:101080008100878D90A19093870080938600909136
:101090008100858D892B809381008A899B89F6DA6E
:1010A00081E090E09F878E87998B888B6C961CAE31
:1010B0001DAE1EAE1FAE6C97412C512C88EC682ED5
:1010C00082E4782EA0964CAE5DAE6EAE7FAEA09759
:1010D000A1968FADA197882309F44AC026960EAD3C
:1010E0001FAD2697F80180809180A280B380A30174
:1010F0009201C501B40168D518163CF4D8014D928F
:101100005D926D927C9213970DC020E030E0A901B2
:10111000C501B401F6D287FF05C0F8011082118223
:101120001282138260964CAC5DAC6EAC7FAC609763
:10113000A0968CAC9DACAEACBFACA097A5019401C1
:10114000C301B20141D518166CF06C968CAC9DAC05
:10115000AEACBFAC6C97A5019401C301B201D1D272
:1011600087FF06C060968CAE9DAEAEAEBFAE6097F8
:10117000FF81C154DF4FF883CF5BD0408B819C81CE
:101180009A8389838D819E81998B888B9F878E8797
:10119000888599859B878A872FEF31EE44E021501F
:1011A00030404040E1F700C00000EC89FD898181BA
:1011B0009281892B11F1609178007091790080E023
:1011C00090E0A3D22AEF3EE74AE25FE3FFD226E6B1
:1011D00036E648E153E4FFD3CBD47D876C87C15416
:1011E000DF4F5881CF5BD040511111C02A853B851C
:1011F000E20EF31EFB86EA860AC080917A008064C4
:1012000080937A0080917A0086FDFCCFD4CF2A8526
:101210003B852139A1E03A0728F0E0E9F1E0FB87BE
:10122000EA8707C02436310520F424E630E03B8706
:101230002A8780E090E069D26A8F7B8F8C8F9D8FA8
:101240006A857B8580E090E060D26AA37BA38CA353
:101250009DA3A1968FADA197882309F445C18FB7AF
:10126000F89420911202309113024091140250918F
:101270001502C554DF4F288339834A835B83CB5BD8
:10128000D0408FBF2C968CAD9DADAEADBFAD2C9731
:10129000C554DF4F488159816A817B81CB5BD04047
:1012A000481B590B6A0B7B0B68968CAD9DADAEADA0
:1012B000BFAD6897481759076A077B0708F414C140
:1012C0002496EEADFFAD249780819181A281B381F8
:1012D000CE54DF4F88839983AA83BB83C25BD040FF
:1012E0002896EEADFFAD28979C01AD01608171811C
:1012F0008281938170D34B015C0164962CAD3DAD2E
:101300004EAD5FAD6497CE54DF4F688179818A819D
:101310009B81C25BD0405FD36B017C012EA93FA9AA
:1013200048AD59ADC501B40151D260962CAD3DAD6B
:101330004EAD5FAD609750D32B013C0160966CAF12
:101340007DAF8EAF9FAF6097A2969FADA297CA5414
:10135000DF4F9883C65BD040911112C02AA93BA9E8
:101360004CA95DA9C701B60131D29B01AC01C301F3
:10137000B20131D360966CAF7DAF8EAF9FAF6097F7
:1013800060964CAC5DAC6EAC7FAC60976D960FAD6B
:101390006D976E963FAC6E976F962FAC6F97A09639
:1013A0001FADA097202F332D422D512FC301B20125
:1013B0000BD418162CF4802F932DA22DB12F1BC007
:1013C0006C962CAD3DAD4EAD5FAD6C97C954DF4F03
:1013D000288339834A835B83C75BD040C301B20152
:1013E00090D187FF0EC0C954DF4F88819981AA81AF
:1013F000BB81C75BD04060968CAF9DAFAEAFBFAF37
:101400006097CA54DF4F9881C65BD040992351F052
:101410002AA93BA94CA95DA9C501B401D7D14B01AB
:101420005C0103C0812C912C54012AAD3BAD4CAD25
:101430005DADC701B601CAD19B01AC0160966CAD30
:101440007DAD8EAD9FAD6097C6D29B01AC01C5014D
:10145000B401C2D26B017C01202F332D422D512FBC
:10146000B3D31816CCF069960FAD69976A963FAC66
:101470006A976B962FAC6B976C961FAD6C97202F6D
:10148000332D422D512FB601C7013BD187FD04C03A
:101490000C2D3D2C2E2C1F2D2696EEADFFAD269744
:1014A000802F932DA22DB12F80839183A283B383AC
:1014B000CE54DF4F288139814A815B81C25BD040A5
:1014C00064962CAF3DAF4EAF5FAF6497C554DF4F0E
:1014D00088819981AA81BB81CB5BD0402C968CAF4F
:1014E0009DAFAEAFBFAF2C97CE88DF88E88CF98C6C
:1014F0000A891B8920E030E0A901C701B60101D1AA
:10150000882311F180918000806280938000809117
:1015100080008F7E80938000D8015F966D917C91D2
:10152000909780E090E0F1D09B01AC01C701B6013B
:101530004DD120E030E048EC52E4B2D219D37093A0
:101540008B0060938A000CC0809180008F7D809317
:101550008000909180009F7E90938000C80196D873
:10156000E0910E02F0910F02848190E894838A3812
:1015700018F083E090E004C0813828F081E090E02A
:10158000968385830EC0873718F484E090E0F8CF07
:1015900087FD05C022E030E03683258302C0168235
:1015A00015828581968101978430910540F4FC0174
:1015B000E25DFE4FE0800E2C000CFF0802C0E12C23
:1015C000F12C10921902109216028CE392E0F1D9DC
:1015D000E3CDD80151968D919C91529701965296E8
:1015E0009C938E935197E217F30709F0A2CAA5CAFC
:1015F00060E0C8010796A6D8E3CBCF93DF93CCE198
:10160000D2E08EEE91E0998388838A8D9B8D75D38D
:101610008C899D8972D38E859F856FD388859985A6
:10162000DF91CF916AC3CF93DF93ECE3F2E086EED4
:1016300091E0918380831186108680E091E095830C
:10164000848382E091E09783868381E090E09383B6
:101650008283CCE1D2E08EEE91E0998388838CE3A3
:101660008E838EE38F8362EF71E084E292E00E94CA
:10167000BF0167EF71E08AE292E00E94BF016CEF68
:1016800071E080E392E00E94BF0161E072E086E3D6
:1016900092E00E94BF01E0915302F09154028081D8
:1016A00091819D838C831B821A82DF91CF91089553
:1016B000BB27FB015527AA27880F991FAA1FA4172C
:1016C00010F0A41B83955051B9F7A05DAA3308F020
:1016D000A95DA193009779F7B111B1931192CB0154
:1016E00000C0DC01FC01672F71917723E1F732978D
:1016F00004C07C916D9370836291AE17BF07C8F3ED
:10170000089540D008F481E00895E89409C097FB5B
:101710003EF490958095709561957F4F8F4F9F4FC8
:101720009923A9F0F92F96E9BB279395F69587950C
:1017300077956795B795F111F8CFFAF4BB0F11F4CF
:1017400060FF1BC06F5F7F4F8F4F9F4F16C0882376
:1017500011F096E911C0772321F09EE8872F762FAC
:1017600005C0662371F096E8862F70E060E02AF0ED
:101770009A95660F771F881FDAF7880F96958795D9
:1017800097F90895990F0008550FAA0BE0E8FEEFAE
:1017900016161706E807F907C0F012161306E40735
:1017A000F50798F0621B730B840B950B39F40A262E
:1017B00061F0232B242B252B21F408950A2609F40C
:1017C000A140A6958FEF811D811D08950BD078C093
:1017D00069D028F06ED018F0952309F05AC05FC088
:1017E0001124A2C07ED0A0F3959FD1F3950F50E0B5
:1017F000551F629FF001729FBB27F00DB11D639FC3
:10180000AA27F00DB11DAA1F649F6627B00DA11D68
:10181000661F829F2227B00DA11D621F739FB00D0E
:10182000A11D621F839FA00D611D221F749F33277E
:10183000A00D611D231F849F600D211D822F762F17
:101840006A2F11249F5750408AF0E1F088234AF014
:10185000EE0FFF1FBB1F661F771F881F9150504060
:10186000A9F79E3F510570F014C05EC05F3FECF3D6
:10187000983EDCF3869577956795B795F795E7954C
:101880009F5FC1F7FE2B880F911D9695879597F95D
:10189000089597F99F6780E870E060E008959FEFF2
:1018A00080EC089500240A941616170618060906F7
:1018B000089500240A9412161306140605060895C6
:1018C000092E0394000C11F4882352F0BB0F40F44E
:1018D000BF2B11F460FF04C06F5F7F4F8F4F9F4F8E
:1018E000089557FD9058440F551F59F05F3F71F010
:1018F0004795880F97FB991F61F09F3F79F0879577
:101900000895121613061406551FF2CF4695F1DFFF
:1019100008C0161617061806991FF1CF869571058F
:10192000610508940895E894BB2766277727CB01C3
:1019300097F908952F923F924F925F926F927F9204
:101940008F929F92AF92BF92CF92DF92EF92FF92CF
:101950000F931F93CF93DF93CDB7DEB7CA1BDB0B7B
:101960000FB6F894DEBF0FBECDBF09942A88398820
:1019700048885F846E847D848C849B84AA84B98427
:10198000C884DF80EE80FD800C811B81AA81B98133
:10199000CE0FD11D0FB6F894DEBF0FBECDBFED0147
:1019A0000895AA1BBB1B51E107C0AA1FBB1FA617A6
:1019B000B70710F0A61BB70B881F991F5A95A9F7F8
:1019C00080959095BC01CD010895EE0FFF1F059005
:1019D000F491E02D09945058BB27AA270ED070CF60
:1019E00061DF30F066DF20F031F49F3F11F41EF428
:1019F00056CF0EF4E095E7FB4CCFE92F72DF80F372
:101A0000BA17620773078407950718F071F49EF5FB
:101A10008ACF0EF4E0950B2EBA2FA02D0B01B90141
:101A200090010C01CA01A0011124FF27591B99F054
:101A3000593F50F4503E68F11A16F040A22F232F60
:101A4000342F4427585FF3CF469537952795A795B0
:101A5000F0405395C9F77EF41F16BA0B620B730B57
:101A6000840BBAF09150A1F0FF0FBB1F661F771FC8
:101A7000881FC2F70EC0BA0F621F731F841F48F47D
:101A8000879577956795B795F7959E3F08F0B3CF03
:101A90009395880F08F09927EE0F979587950895ED
:101AA0000CD00ECF06DF40F0FDDE30F021F45F3FBA
:101AB00019F0EFCE511138CFF2CE13DF98F39923FE
:101AC000C9F35523B1F3951B550BBB27AA27621702
:101AD0007307840738F09F5F5F4F220F331F441F47
:101AE000AA1FA9F333D00E2E3AF0E0E830D091507F
:101AF0005040E695001CCAF729D0FE2F27D0660F6C
:101B0000771F881FBB1F261737074807AB07B0E8AA
:101B100009F0BB0B802DBF01FF2793585F4F2AF0C0
:101B20009E3F510568F0B5CEFFCE5F3FECF3983E87
:101B3000DCF3869577956795B795F7959F5FC9F71D
:101B4000880F911D9695879597F90895E1E0660FA6
:101B5000771F881FBB1F621773078407BA0720F01F
:101B6000621B730B840BBA0BEE1F88F7E095089588
:101B7000C0DE88F09F5790F0B92F9927B751A0F099
:101B8000D1F0660F771F881F991F1AF0BA95C9F711
:101B900012C0B13081F0C7DEB1E00895C4CE672F26
:101BA000782F8827B85F39F0B93FCCF386957795C1
:101BB0006795B395D9F73EF49095809570956195AA
:101BC0007F4F8F4F9F4F0895DDDD08F48FEF08950D
:101BD000CF93DF938230910510F482E090E0E091A2
:101BE0005702F091580220E030E0C0E0D0E030979A
:101BF00011F14081518148175907C0F04817590722
:101C000061F482819381209719F09B838A832BC092
:101C1000909358028093570226C02115310519F080
:101C20004217530718F49A01BE01DF01EF01028049
:101C3000F381E02DDCCF2115310509F1281B390B8B
:101C40002430310590F412968D919C911397611573
:101C5000710521F0FB019383828304C090935802A5
:101C600080935702FD01329644C0FD01E20FF31F3D
:101C700081939193225031092D933C933AC0209146
:101C8000550230915602232B41F4209106013091E8
:101C900007013093560220935502209104013091A0
:101CA00005012115310541F42DB73EB740910801DA
:101CB00050910901241B350BE0915502F091560219
:101CC000E217F307A0F42E1B3F0B2817390778F013
:101CD000AC014E5F5F4F2417350748F04E0F5F1F72
:101CE00050935602409355028193919302C0E0E0D5
:101CF000F0E0CF01DF91CF9108950F931F93CF9321
:101D0000DF93009709F48CC0FC0132971382128292
:101D100000915702109158020115110581F420819C
:101D20003181820F931F209155023091560228175E
:101D3000390779F5F0935602E093550271C0D80146
:101D400040E050E0AE17BF0750F412962D913C9141
:101D50001397AD012115310509F1D901F3CF9D018B
:101D6000DA013383228360817181860F971F821786
:101D7000930769F4EC0128813981260F371F2E5F04
:101D80003F4F318320838A819B8193838283452BBC
:101D900029F4F0935802E093570242C01396FC9343
:101DA000EE931297ED01499159919E01240F351F31
:101DB000E217F30771F480819181840F951F0296D9
:101DC00011969C938E938281938113969C938E930C
:101DD0001297E0E0F0E0D80112968D919C91139754
:101DE000009719F0F8018C01F6CF8D919C91980124
:101DF0002E5F3F4F820F931F209155023091560264
:101E00002817390769F4309729F410925802109274
:101E1000570202C013821282109356020093550299
:101E2000DF91CF911F910F910895A0E0B0E0EAE11A
:101E3000FFE084CDEC01009719F4CB01C9DEB4C0FA
:101E4000FC01E60FF71F9C0122503109E217F3074E
:101E500008F4A8C0D9010D911C9111970617170716
:101E6000A8F00530110508F49BC0C8010497861737
:101E7000970708F495C002501109061B170B019330
:101E800011936D937C93CF0138DF8AC05B01A01A58
:101E9000B10A4C01800E911EA0915702B0915802D8
:101EA00040E050E0E12CF12C109709F44AC0A8154D
:101EB000B905D1F56D907C901197630182E0C80E51
:101EC000D11CCA14DB0480F1A3014A195B096A0121
:101ED00082E0C80ED11C1296BC9012971396AC915A
:101EE000B5E0CB16D10440F0B282A3835183408386
:101EF000D9016D937C930AC00E5F1F4FC301800F01
:101F0000911FF90191838083EB2DFA2FE114F104E5
:101F100031F0D7011396FC93EE93129741C0F093E2
:101F20005802E09357023CC08D919C91119748173D
:101F3000590708F4AC017D0112960D90BC91A02DBB
:101F4000B3CF809155029091560288159905E1F41E
:101F500046175707C8F48091040190910501009736
:101F600041F48DB79EB74091080150910901841B3F
:101F7000950BE817F907B0F4F0935602E093550279
:101F8000F901718360830CC0CB0122DE7C010097D4
:101F900049F0A801BE010CD0CE01AFDEC70104C0DC
:101FA000CE0102C080E090E0CDB7DEB7EEE0E2CC3B
:101FB000FB01DC0102C001900D9241505040D8F766
:101FC0000895FB01DC0101900D920020E1F70895D6
:101FD00010E0C5E3D0E003C0FE01F7DC2196C63374
:081FE000D107D1F7F894FFCFFF
:101FE80096009600000059028000010001000800D8
:101FF800400000010004010001000800200040002A
:10200800800000010004000000005B04730001FF71
:102018000AF60000400014005400230025002400A4
:1020280000230025002400012300250024000223AA
:102038000025002400032300250024000423002594
:102048000024000523002500240006230025002481
:102058000007260028002700002600280027000186
:102068002600280027000226002800270003260053
:10207800280027000426002800270005260028003D
:102088002700062600280027000729002B002A0021
:102098000029002B002A000129002B002A00022910
:1020A800002B002A000329002B002A000429002BFA
:1020B800002A000529002B002A000629002B002AE7
:1020C800000700000000D904DB00000000009804AD
:1020D800B2004D41494E0043414C20004F505453EB
:0C20E800004D454E5500533A004D3A00A3
:00000001FF
