:1000000034C0000059C0000057C0000033C50000D4
:1000100053C0000078C500004FC000004DC0000074
:100020004BC0000049C0000047C0000045C00000B0
:1000300043C0000041C000003FC000003DC00000C0
:10004000CFC4000039C0000037C0000035C0000038
:1000500033C0000031C000002FC000002DC00000E0
:100060002BC0000029C00000BB0511241FBECFEF2C
:10007000D8E0DEBFCDBF22E0A8E0B2E001C01D9213
:10008000A732B207E1F712E0A0E0B1E0ECEBF9E152
:1000900002C005900D92A830B107D9F710E0C5E372
:1000A000D0E004C02197FE010E94420AC433D10768
:1000B000C9F773D50C94DC0CA3CFDC01ED91FC9156
:1000C0000190F081E02D0994DC01ED91FC91DB01C0
:1000D00014964D915C9115976D917C910280F381FE
:1000E000E02D0994CF92DF92EF92FF920F931F932E
:1000F000CF93DF936C017A018B01C0E0D0E0CE1585
:10010000DF0589F0D8016D918D01D601ED91FC914B
:100110000190F081E02DC6010995892B11F47E0133
:1001200002C02196ECCFC701DF91CF911F910F91B3
:10013000FF90EF90DF90CF900895CF92DF92EF92F3
:10014000FF92CF93DF93EC016A017B0120E030E066
:10015000A901C701B6010E94DE08882321F1809120
:100160008000806280938000809180008F7E8093E9
:1001700080008F8D98A1BC0180E090E00E94E20891
:100180009B01AC01C701B6010E94430920E030E0A9
:1001900048EC52E40E94480A0E94B00A70938B0017
:1001A00060938A0032C0809180008F7D80938000B0
:1001B000809180008F7E80938000E88197E09E9FF1
:1001C000F0011124EA5BFE4FA281B3814C9121E042
:1001D00030E0B901068002C0660F771F0A94E2F78B
:1001E000862F809584238C93E8819E9FF0011124B3
:1001F000EA5BFE4FA481B5818C91068002C0220F7C
:10020000331F0A94E2F7282B2C93DF91CF91FF90B4
:10021000EF90DF90CF900895FC0178948081883032
:10022000A0F48091680081608093680040916B0029
:1002300021E030E0C901008002C0880F991F0A94B4
:10024000E2F7842B80936B000895803198F48091BD
:10025000680082608093680030916C002081285093
:1002600081E090E001C0880F2A95EAF7832B809304
:100270006C000895883190F48091680084608093C8
:10028000680030916D002081205181E090E001C034
:10029000880F2A95EAF7832B80936D000895DC017F
:1002A000EC91B7E0EB9FF0011124EA5BFE4FA081D7
:1002B000B1818C9190E0068002C0959587950A9453
:1002C000E2F781700895CF93DF93DC01EC9197E022
:1002D0009E9FF0011124EA5BFE4FC481D5815881B5
:1002E00021E030E0B901068002C0660F771F0A9452
:1002F000E2F7462F409545234883EC919E9FF001FD
:100300001124EA5BFE4FA281B3818C91068002C06A
:10031000220F331F0A94E2F7282B2C93DF91CF9101
:100320000895DC01EC91662399F0B7E0EB9FF001B2
:100330001124EA5BFE4FA281B3814C9121E030E0B1
:10034000068002C0220F331F0A94E2F7242B13C049
:1003500027E0E29FF0011124EA5BFE4FA281B38106
:100360004C9121E030E0068002C0220F331F0A9436
:10037000E2F7209524232C93DC01EC91B7E0EB9F6E
:10038000F0011124EA5BFE4FA481B5812C9181E03C
:1003900090E0068002C0880F991F0A94E2F7822B32
:1003A0008C930895EF92FF920F931F93CF93DF9357
:1003B0008C01C0E0D0E0E62EF12CF801808591851B
:1003C000C817D90770F4B7010C2E02C07595679550
:1003D0000A94E2F76170C8018C0F9D1FA2DF21967D
:1003E000ECCFC801DF91CF911F910F91FF90EF905B
:1003F0000895E0911402F09115022081222359F012
:100400008FEC97E00197F1F700C000008091120295
:10041000909113020895E0911002F0911102208151
:10042000222379F0EFECF7E03197F1F700C00000FC
:10043000E0911002F09111021082FC0182819381FF
:10044000089580E090E00895E0911402F091150283
:1004500080818823A1F08FEC97E00197F1F700C02D
:100460000000E0910E02F0910F02908181E0892757
:100470008083E0911402F0911502108215C0E09182
:100480001002F09111028081882371F08FEC97E0C7
:100490000197F1F700C00000E0911002F091110205
:1004A000108280E090E0089581E090E00895CF937D
:1004B000DF93EC01289660E0CE0133DF85E08A957A
:1004C000F1F7000061E0CE012CDF95E09A95F1F79D
:1004D000000060E0CE0125DF8FE891E00197F1F7A1
:1004E00000C00000DF91CF910895CF93DF93EC011E
:1004F000099658DFCE01DF91CF91D9CF1F93CF93CB
:10050000DF93EC01162F642F06960BDFCE010796C2
:100510002F812531D1F48B89612F84FF08C0CE0152
:10052000099640DFCE01DF91CF911F91C0CF70E0DF
:1005300084E0759567958A95E1F7CE01D6DF612F46
:10054000CE01DF91CF911F91D0CF60E0EADEE3CF03
:1005500041E0D4DF81E090E0089540E0CFCFCF9339
:10056000DF93CDB7DEB728970FB6F894DEBF0FBE86
:10057000CDBF9C0188E0E6E0F1E0DE01119601903C
:100580000D928A95E1F7F9018789481710F04FEF2E
:10059000480FFE013196E40FF11DE40FF11D90812B
:1005A000690F6068C90128960FB6F894DEBF0FBEC8
:1005B000CDBFDF91CF91D1CF61E0CFDF8FE39FE15E
:1005C0000197F1F700C000000895CF93DF93EC018D
:1005D0008091160290911702EFDF40E060E0809179
:1005E000160290911702BBDF6C81809116029091E8
:1005F000170263DD40E062E08091160290911702DD
:10060000AEDFBE016A5F7F4F8091160290911702A4
:100610005BDD40E067E080911602909117029FDF5A
:100620006D81809116029091170247DD41E060E0F4
:10063000809116029091170292DF6C8180911602D0
:10064000909117023ADD41E062E0809116029091AC
:10065000170285DFBE01685E7F4F80911602909180
:10066000170232DD41E067E0809116029091170297
:1006700076DF6D818091160290911702DF91CF9104
:100680001CCD6115710579F0FB0101900020E9F79F
:100690003197AF01461B570BDC01ED91FC910280B5
:1006A000F381E02D099480E090E008950F931F936B
:1006B000CF93DF93EC0188819981009729F02A81FB
:1006C0003B812617370788F48B016F5F7F4F0E94AD
:1006D000090C009761F0998388831B830A832C811E
:1006E0003D81232B11F4FC01108281E001C080E0E8
:1006F000DF91CF911F910F910895CF92DF92EF92EA
:10070000FF920F931F93CF93DF93CDB7DEB7279759
:100710000FB6F894DEBF0FBECDBF8C01CB014AE00F
:100720009E012F5F3F4F6901B9011FD5F60101906E
:100730000020E9F73197EC19FD09D8011496ED90E6
:10074000FC9015973097B1F0EE0EFF1EB701C8016F
:10075000ADDF882381F0F80120813181848195818A
:10076000B601820F931F0E94D50CD8011596FC92FA
:10077000EE92149781E027960FB6F894DEBF0FBE75
:10078000CDBFDF91CF911F910F91FF90EF90DF9040
:10079000CF900895EF92FF920F931F93CF93DF9323
:1007A00000D0CDB7DEB78C0169831A82FC01E480EA
:1007B000F580FFEFEF1AFF0AB70178DF882381F099
:1007C000F8012081318184819581BE016F5F7F4F67
:1007D000820F931F0E94D50CF801F582E48281E01C
:1007E0000F900F90DF91CF911F910F91FF90EF909D
:1007F0000895EF92FF920F931F93CF93DF93EC0135
:10080000198218821B821A821D821C826115710551
:1008100039F18B01FB0101900020E9F731977F014D
:10082000E61AF70AB70142DF2881398181110CC02D
:100830002115310511F0C90154D7198218821D8282
:100840001C821B821A820CC0FD82EC82B801C90195
:10085000DF91CF911F910F91FF90EF900C94D50CE9
:10086000DF91CF911F910F91FF90EF900895EF923C
:10087000FF920F931F93CF93DF93EC018A017901CD
:100880006DEF71E0B6DFE114F104A9F0EA94EF280E
:10089000D9F429E0209FC001219F900D112465E02B
:1008A00070E0DCD5605E7F4FCE0127DF6FEDCE01BB
:1008B00071DF66E407C0B801CE011FDF6FEDCE0126
:1008C00069DF63E4CE0166DFCE01DF91CF911F9136
:1008D0000F91FF90EF900895EF92FF920F931F9367
:1008E000CF93DF9300D000D000D0CDB7DEB78C011E
:1008F00080911602909117025FDE40E060E08091E7
:100900001602909117022BDED8011696ED90FC90FE
:1009100017976EEE71E08091160290911702B1DE8A
:10092000D8011496ED91FC91159740815181970162
:10093000B801CE0101969BDFBE016F5F7F4F8091B2
:10094000160290911702C0DB89819A81CAD641E0D4
:1009500060E0809116029091170201DEF801E680B6
:10096000F78061EF71E0809116029091170289DEA5
:10097000D8011296ED91FC91139740815181970116
:10098000B801CE01019673DFBE016F5F7F4F80918A
:1009900016029091170298DB89819A81A2D6E09184
:1009A0000E02F0910F028081882369F040E067E039
:1009B0008091160290911702D2DD66E280911602B4
:1009C000909117027ADB26960FB6F894DEBF0FBE21
:1009D000CDBFDF91CF911F910F91FF90EF900895C0
:1009E0001F920F920FB60F9211242F933F938F9364
:1009F0009F93AF93BF9380911F0290912002A0918B
:100A00002102B091220230911E0223E0230F2D37E4
:100A100020F40196A11DB11D05C026E8230F029602
:100A2000A11DB11D20931E0280931F0290932002EE
:100A3000A0932102B093220280911A0290911B028E
:100A4000A0911C02B0911D020196A11DB11D8093C1
:100A50001A0290931B02A0931C02B0931D02BF9137
:100A6000AF919F918F913F912F910F900FBE0F905B
:100A70001F9018951F920F920FB60F9211241F937B
:100A80002F933F934F935F936F937F938F939F9396
:100A9000AF93BF93CF93DF93EF93FF938FE891E0F2
:100AA0000197F1F700C00000C0911802D09119021F
:100AB00088819981F4DB182F8A819B81F0DB9C81EE
:100AC000181302C0915001C09F5F9C838C818F3F9F
:100AD00011F48AE803C0811102C086E78C83FF917C
:100AE000EF91DF91CF91BF91AF919F918F917F91C6
:100AF0006F915F914F913F912F911F910F900FBE7A
:100B00000F901F9018951F920F920FB60F921124FD
:100B10002F933F934F935F936F937F938F939F9305
:100B2000AF93BF93EF93FF938FE79CE00197F1F7AB
:100B300000C000008DE092E0B2DB811103C081E0D3
:100B400080930B028CE092E0AADB811103C081E06C
:100B500080930A02FF91EF91BF91AF919F918F9186
:100B60007F916F915F914F913F912F910F900FBEA9
:100B70000F901F90189585E180930D028DE092E013
:100B8000A2DB8DE092E048DB86E180930C028CE0F2
:100B900092E099DB8CE092E03FCBCF93DF93CDB72F
:100BA000DEB7C857D1090FB6F894DEBF0FBECDBF70
:100BB0007E0124E7E20EF11C86E990E0D7018D93D7
:100BC0009C936E01B2E7CB0ED11C84E690E0F60157
:100BD000918380835E01F0E7AF0EB11CD5011D92B9
:100BE0001C924E01B8E78B0E911CF40110828FB756
:100BF000F89440911F02509120026091210270915F
:100C000022028FBF3E01F8E46F0E711CD3011396D0
:100C10001C921E9212978EE291E011969C938E93F5
:100C200015961C921E9214978AE016968C9316972E
:100C300085E117968C9317979BE018969C931897CD
:100C40009DE019969C93199790E11A969C931A9798
:100C50009CE01B969C931B9791E11C969C931C9780
:100C60001D968C931D971E968C931E971F968C93A2
:100C70001F9750968C93509752961C921E925197A4
:100C8000F301399693012F5E3F4F8191853109F031
:100C900058C260E0C301069644DB60E0C3010896D9
:100CA00040DBF30184819581892B11F4138A02C002
:100CB00080E1838BCE0189589F4FFC0110823197D0
:100CC00027E120838E0107591F4FD80116961C92E9
:100CD0001E92159720E814962C93149711969C93C6
:100CE0008E931396FC93EE931297EDDAF8018281BE
:100CF0009381E9DAD8018D919C918EDA10931902D3
:100D0000009318027092170260921602F301838911
:100D10008860838B82E0878B108EFFEF20E782E074
:100D2000F15020408040E1F700C0000060E0C301C6
:100D30000696F7DA60E0C3010896F3DAD301179656
:100D40008C91853109F00CC2F301638964FD1FC0E9
:100D500063E0C301CADB8FE496E40197F1F700C0BA
:100D6000000063E0C301C1DBAFE4B6E41197F1F723
:100D700000C0000063E0C301B8DBE7E5F2E03197B3
:100D8000F1F700C0000062E0C301AFDB1BC060628E
:100D9000C301E3DB8FE496E40197F1F700C00000A4
:100DA000D30153966C916062C301D7DBE7E5F2E0B3
:100DB0003197F1F700C00000D30153966C91606247
:100DC000C301CBDBF30163896062C301C6DB84E04E
:100DD000D30154968C936CE0C301BFDBC301ECDB01
:100DE00082E0582EF301558A66E0C301B6DB80919C
:100DF000160290911702E0DB40E060E0809116025D
:100E000090911702ACDB8BE092E0909315028093F7
:100E100014028AE092E09093110280931002909263
:100E20000F0280920E02B0920902A092080286E39D
:100E300091E0A3969FAF8EAFA397A9961FAE1EAE6B
:100E4000A997A596DFAECEAEA597A796FFAEEEAE5C
:100E5000A7978EE391E09BA78AA78CE38EA78EE3EA
:100E60008FA764EF71E0CE01C096C3DC69EF71E03B
:100E7000CE01C696BEDC6EEF71E0CE01CC96B9DC39
:100E800063E072E08AE290E08C0F9D1F4896B1DC2F
:100E900080911202909113029DA78CA759828CE039
:100EA000EEE0F1E0DE01129601900D928A95E1F7F5
:100EB00080E1EAE1F1E0DE011E9601900D928A9553
:100EC000E1F780E090E4ACE1B6E48AA39BA3ACA395
:100ED000BDA38AE08F8F81E08E8F6C817D8180E45D
:100EE00096E0BCD279A368A3809180008062809351
:100EF0008000809180008F7E8093800080918000B0
:100F00008E7F80938000809180008260809380003B
:100F10008091810088608093810080918100806150
:100F20008093810088A199A1909387008093860087
:100F3000909181008E8D892B80938100E98187E0DB
:100F40008E9FF0011124EA5BFE4FA281B3819C9138
:100F500021E030E0A901068002C0440F551F0A9429
:100F6000E2F7492B4C93E9818E9FF0011124EA5B53
:100F7000FE4FA481B5818C91068002C0220F331FE1
:100F80000A94E2F7282B2C9340E050E060E271E4F1
:100F9000CE010196D2D83898409880E480937C00A6
:100FA00080917C008B7F80937C0080917C008D7F82
:100FB00080937C0080917C008E7F80937C00809168
:100FC0007A00846080937A0080917A0082608093B6
:100FD0007A0080917A00816080937A0080917A0013
:100FE000806880937A0080917A008F7D80937A0068
:100FF000C301E2DACE018F599F4F6EDCCE018F59CB
:101000009F4F3C0194E6292E312C20E9422E552495
:1010100053949FEFA1EEB4E09150A040B040E1F7AF
:1010200000C00000F801848120E824838A3828F079
:1010300083E090E09683858316C0813818F0E1E064
:10104000F0E004C0873740F4E4E0F0E0D801169601
:10105000FC93EE93159707C087FD03C0E2E0F0E034
:10106000F5CF16821582F80185819681019784302B
:10107000910540F4FC01EE5BFE4F8081082E000CD0
:10108000990B02C080E090E0D5018D939C93F40110
:101090002081211108C0D7012D913C911197820F19
:1010A000931F8D939C93F701808191818139F1E0A9
:1010B0009F0720F0D7014D925C9206C084369105BF
:1010C00018F4F7013182208280917A008064809345
:1010D0007A0080917A0086FDFCCF80917800909113
:1010E0007900D6018D939C9360E070E0CB0138D2FB
:1010F00080E090E067D0AB01BC01CE0101961DD825
:10110000D301ED91FC910280F381E02DC30109959B
:10111000009739F0019761F4FE01EF59FF4F3F014D
:1011200007C01092130210921202CE018A963C015F
:10113000D301ED91FC910190F081E02DC30109955F
:1011400068CFD30151968D919C91529701965296FA
:101150009C938E935197E217F30709F096CD99CDA2
:1011600060E0C3010796DDD8EFCDBB27FB01552713
:10117000AA27880F991FAA1FA41710F0A41B8395F4
:101180005051B9F7A05DAA3308F0A95DA19300976B
:1011900079F7B111B1931192CB0100C0DC01FC01D0
:1011A000672F71917723E1F7329704C07C916D939B
:1011B00070836291AE17BF07C8F3089540D008F45A
:1011C00081E00895E89409C097FB3EF490958095DE
:1011D000709561957F4F8F4F9F4F9923A9F0F92FFD
:1011E00096E9BB279395F695879577956795B7957B
:1011F000F111F8CFFAF4BB0F11F460FF1BC06F5F61
:101200007F4F8F4F9F4F16C0882311F096E911C072
:10121000772321F09EE8872F762F05C0662371F093
:1012200096E8862F70E060E02AF09A95660F771FA7
:10123000881FDAF7880F9695879597F90895990F83
:101240000008550FAA0BE0E8FEEF16161706E80790
:10125000F907C0F012161306E407F50798F0621BB1
:10126000730B840B950B39F40A2661F0232B242B86
:10127000252B21F408950A2609F4A140A6958FEFA5
:10128000811D811D08950BD078C069D028F06ED0E3
:1012900018F0952309F05AC05FC01124A2C07ED077
:1012A000A0F3959FD1F3950F50E0551F629FF00179
:1012B000729FBB27F00DB11D639FAA27F00DB11DD2
:1012C000AA1F649F6627B00DA11D661F829F22275B
:1012D000B00DA11D621F739FB00DA11D621F839FE2
:1012E000A00D611D221F749F3327A00D611D231FB8
:1012F000849F600D211D822F762F6A2F11249F5706
:1013000050408AF0E1F088234AF0EE0FFF1FBB1F28
:10131000661F771F881F91505040A9F79E3F5105C7
:1013200070F014C05EC05F3FECF3983EDCF386952E
:1013300077956795B795F795E7959F5FC1F7FE2B72
:10134000880F911D9695879597F9089597F99F674E
:1013500080E870E060E008959FEF80EC089500243D
:101360000A941616170618060906089500240A940A
:1013700012161306140605060895092E0394000C90
:1013800011F4882352F0BB0F40F4BF2B11F460FF1F
:1013900004C06F5F7F4F8F4F9F4F089557FD905848
:1013A000440F551F59F05F3F71F04795880F97FB29
:1013B000991F61F09F3F79F08795089512161306E3
:1013C0001406551FF2CF4695F1DF08C01616170612
:1013D0001806991FF1CF8695710561050894089547
:1013E000E894BB2766277727CB0197F908952F92BA
:1013F0003F924F925F926F927F928F929F92AF92A5
:10140000BF92CF92DF92EF92FF920F931F93CF93F1
:10141000DF93CDB7DEB7CA1BDB0B0FB6F894DEBF88
:101420000FBECDBF09942A88398848885F846E84AE
:101430007D848C849B84AA84B984C884DF80EE80F8
:10144000FD800C811B81AA81B981CE0FD11D0FB601
:10145000F894DEBF0FBECDBFED010895AA1BBB1BE4
:1014600051E107C0AA1FBB1FA617B70710F0A61BA4
:10147000B70B881F991F5A95A9F780959095BC01C5
:10148000CD010895EE0FFF1F0590F491E02D099412
:101490000CD073CF6BDF40F062DF30F021F45F3FA0
:1014A00019F054CF51119DCF57CF78DF98F399237E
:1014B000C9F35523B1F3951B550BBB27AA27621718
:1014C0007307840738F09F5F5F4F220F331F441F5D
:1014D000AA1FA9F333D00E2E3AF0E0E830D0915095
:1014E0005040E695001CCAF729D0FE2F27D0660F82
:1014F000771F881FBB1F261737074807AB07B0E8C1
:1015000009F0BB0B802DBF01FF2793585F4F2AF0D6
:101510009E3F510568F01ACF64CF5F3FECF3983ED1
:10152000DCF3869577956795B795F7959F5FC9F733
:10153000880F911D9695879597F90895E1E0660FBC
:10154000771F881FBB1F621773078407BA0720F035
:10155000621B730B840BBA0BEE1F88F7E09508959E
:1015600025DF88F09F5790F0B92F9927B751A0F049
:10157000D1F0660F771F881F991F1AF0BA95C9F727
:1015800012C0B13081F02CDFB1E0089529CF672F70
:10159000782F8827B85F39F0B93FCCF386957795D7
:1015A0006795B395D9F73EF49095809570956195C0
:1015B0007F4F8F4F9F4F0895CF93DF9382309105D8
:1015C00010F482E090E0E0912502F091260220E004
:1015D00030E0C0E0D0E0309711F1408151814817F0
:1015E0005907C0F04817590761F482819381209709
:1015F00019F09B838A832BC0909326028093250247
:1016000026C02115310519F04217530718F49A0125
:10161000BE01DF01EF010280F381E02DDCCF211557
:10162000310509F1281B390B2430310590F412964D
:101630008D919C9113976115710521F0FB019383A6
:10164000828304C09093260280932502FD01329686
:1016500044C0FD01E20FF31F8193919322503109A1
:101660002D933C933AC02091230230912402232BE6
:1016700041F4209102013091030130932402209320
:10168000230220910001309101012115310541F41F
:101690002DB73EB74091040150910501241B350B35
:1016A000E0912302F0912402E217F307A0F42E1B2D
:1016B0003F0B2817390778F0AC014E5F5F4F2417B6
:1016C000350748F04E0F5F1F5093240240932302CA
:1016D0008193919302C0E0E0F0E0CF01DF91CF91E0
:1016E00008950F931F93CF93DF93009709F48CC055
:1016F000FC0132971382128200912502109126027A
:101700000115110581F420813181820F931F2091F1
:101710002302309124022817390779F5F093240227
:10172000E093230271C0D80140E050E0AE17BF073C
:1017300050F412962D913C911397AD01211531056E
:1017400009F1D901F3CF9D01DA013383228360814E
:101750007181860F971F8217930769F4EC01288126
:101760003981260F371F2E5F3F4F318320838A81B7
:101770009B8193838283452B29F4F0932602E09387
:10178000250242C01396FC93EE931297ED01499106
:1017900059919E01240F351FE217F30771F48081E0
:1017A0009181840F951F029611969C938E9382814E
:1017B000938113969C938E931297E0E0F0E0D8010A
:1017C00012968D919C911397009719F0F8018C0156
:1017D000F6CF8D919C9198012E5F3F4F820F931F02
:1017E00020912302309124022817390769F4309799
:1017F00029F4109226021092250202C0138212824E
:101800001093240200932302DF91CF911F910F9137
:101810000895A0E0B0E0EEE0FCE0EDCDEC01009733
:1018200019F4CB01C9DEB4C0FC01E60FF71F9C011F
:1018300022503109E217F30708F4A8C0D9010D912D
:101840001C91119706171707A8F00530110508F429
:101850009BC0C80104978617970708F495C00250EB
:101860001109061B170B019311936D937C93CF0104
:1018700038DF8AC05B01A01AB10A4C01800E911EAC
:10188000A0912502B091260240E050E0E12CF12C1D
:10189000109709F44AC0A815B905D1F56D907C9050
:1018A0001197630182E0C80ED11CCA14DB0480F1D9
:1018B000A3014A195B096A0182E0C80ED11C129685
:1018C000BC9012971396AC91B5E0CB16D10440F0C2
:1018D000B282A38351834083D9016D937C930AC064
:1018E0000E5F1F4FC301800F911FF9019183808309
:1018F000EB2DFA2FE114F10431F0D7011396FC938C
:10190000EE93129741C0F0932602E09325023CC06B
:101910008D919C9111974817590708F4AC017D01EE
:1019200012960D90BC91A02DB3CF8091230290917F
:10193000240288159905E1F446175707C8F48091E9
:10194000000190910101009741F48DB79EB740913D
:10195000040150910501841B950BE817F907B0F4B9
:10196000F0932402E0932302F901718360830CC099
:10197000CB0122DE7C01009749F0A801BE010CD00A
:10198000CE01AFDEC70104C0CE0102C080E090E00E
:10199000CDB7DEB7EEE04BCDFB01DC0102C001901C
:1019A0000D9241505040D8F70895FB01DC010190A1
:0C19B0000D920020E1F70895F894FFCF9D
:1019BC0000002702800000004000140054000100C9
:1019CC0001000800400000010004010001000800B3
:1019DC002000400080000001000400000000A8026C
:1019EC007200000000006C04240200000000E502FC
:1019FC00F90101FF0AF6230025002400002300252D
:101A0C0000240001230025002400022300250024CB
:101A1C0000032300250024000423002500240005D6
:101A2C00230025002400062300250024000726009F
:101A3C002800270000260028002700012600280087
:101A4C002700022600280027000326002800270074
:101A5C00042600280027000526002800270006265B
:101A6C0000280027000729002B002A000029002B42
:101A7C00002A000129002B002A000229002B002A31
:101A8C00000329002B002A000429002B002A000542
:101A9C0029002B002A000629002B002A0007533AA4
:101AAC00004D3A004D41494E0043414C20004F50EF
:081ABC005453004D454E550046
:00000001FF
