:1000000035C000005AC0000058C0000012C20000F5
:1000100054C0000088C1000050C000004EC0000065
:100020004CC000004AC0000048C0000046C00000AC
:1000300044C0000042C0000040C000003EC00000BC
:10004000AEC100003AC0000038C0000036C0000059
:1000500034C0000032C0000030C000002EC00000DC
:100060002CC000002AC000007C0C6C0C11241FBEA8
:10007000CFEFD8E0DEBFCDBF22E0A8EFB1E001C0F6
:100080001D92A932B207E1F711E0A0E0B1E0E0E68D
:10009000F2E202C005900D92A83FB107D9F710E037
:1000A000C5E3D0E004C02197FE010E94210EC433B5
:1000B000D107C9F767D40C942411A2CFEF92FF9215
:1000C0000F931F93CF93DF938C01C0E0D0E0E62E17
:1000D000F12CF80180859185C817D90770F4B70114
:1000E0000C2E02C0759567950A94E2F76170C801FD
:1000F0008C0F9D1F1FD32196ECCFC801DF91CF91AC
:100100001F910F91FF90EF900895CF92DF92EF92A1
:10011000FF920F931F93CF93DF936C017A018B01B2
:10012000C0E0D0E0CE15DF0589F0D8016D918D01DA
:10013000D601ED91FC910190F081E02DC601099569
:10014000892B11F47E0102C02196ECCFC701DF910B
:10015000CF911F910F91FF90EF90DF90CF90089576
:100160000895DC01EC91B7E0EB9FF0011124EA5C0B
:10017000FE4FA081B1818C9190E0068002C09595E0
:1001800087950A94E2F7817008950F931F93CF9398
:10019000DF93EC0188819981009729F02A813B81C6
:1001A0002617370788F48B016F5F7F4F0E9451102D
:1001B000009761F0998388831B830A832C813D819A
:1001C000232B11F4FC01108281E001C080E0DF915B
:1001D000CF911F910F910895CF92DF92EF92FF92EE
:1001E0000F931F93CF93DF93CDB7DEB727970FB64B
:1001F000F894DEBF0FBECDBF8C01CB014AE09E015B
:100200002F5F3F4F6901B9010E94940CF6010190E4
:100210000020E9F73197EC19FD09D8011496ED900B
:10022000FC9015973097B1F0EE0EFF1EB701C80194
:10023000ACDF882381F0F8012081318184819581B0
:10024000B601820F931F0E941D11D8011596FC92D2
:10025000EE92149781E027960FB6F894DEBF0FBE9A
:10026000CDBFDF91CF911F910F91FF90EF90DF9065
:10027000CF900895EF92FF920F931F93CF93DF9348
:1002800000D0CDB7DEB78C0169831A82FC01E4800F
:10029000F580FFEFEF1AFF0AB70177DF882381F0BF
:1002A000F8012081318184819581BE016F5F7F4F8C
:1002B000820F931F0E941D11F801F582E48281E0F4
:1002C0000F900F90DF91CF911F910F91FF90EF90C2
:1002D0000895EF92FF920F931F93CF93DF93EC015A
:1002E0007B018A01BA0151DF2881398181110DC05A
:1002F0002115310519F0C9010E94B90F1982188220
:100300001D821C821B821A8206C01D830C83B701CA
:10031000C9010E941D11CE01DF91CF911F910F9154
:10032000FF90EF9008951F920F920FB60F92112435
:100330002F933F934F935F936F937F938F939F93ED
:10034000AF93BF93EF93FF938FE19CE10197F1F798
:1003500000C00000809112029091130202DF81110F
:1003600003C081E08093110280910F0290911002EE
:10037000F8DE811103C081E080930E02FF91EF91BE
:10038000BF91AF919F918F917F916F915F914F91AD
:100390003F912F910F900FBE0F901F9018951F92B5
:1003A0000F920FB60F9211242F933F938F939F9329
:1003B000AF93BF9380910A0290910B02A0910C021F
:1003C000B0910D023091240223E0230F2D3720F449
:1003D0000196A11DB11D05C026E8230F0296A11D9F
:1003E000B11D2093240280930A0290930B02A093E4
:1003F0000C02B0930D028091200290912102A091F5
:100400002202B09123020196A11DB11D809320020A
:1004100090932102A0932202B0932302BF91AF9147
:100420009F918F913F912F910F900FBE0F901F9032
:1004300018951F920F920FB60F9211241F932F93AE
:100440003F934F935F936F937F938F939F93AF935C
:10045000BF93CF93DF93EF93FF938FE891E00197E2
:10046000F1F700C00000C0910802D0910902888114
:10047000998177DE182F8A819B8173DE9C81181306
:1004800002C0915001C09F5F9C838C818F3F11F40B
:100490008AE803C0811102C086E78C83FF91EF9147
:1004A000DF91CF91BF91AF919F918F917F916F918C
:1004B0005F914F913F912F911F910F900FBE0F9021
:1004C0001F901895DC01ED91FC910190F081E02DD9
:1004D00009946115710579F0FB0101900020E9F79D
:1004E0003197AF01461B570BDC01ED91FC91028067
:1004F000F381E02D099480E090E00895DC01ED9116
:10050000FC91DB0114964D915C9115976D917C9156
:100510000280F381E02D0994CF93DF93EC01FB017E
:1005200086179707A9F0608171816115710521F027
:1005300044815581CEDE0CC088819981009711F0ED
:100540000E94B90F198218821D821C821B821A8296
:10055000CE01DF91CF910895FC01808191810C94AF
:10056000B90FFC011182108213821282158214824B
:100570006115710549F0FB0101900020E9F7319701
:10058000AF01461B570BA5CE0895EF92FF920F9334
:100590001F93CF93DF93EC018A0179016DEE71E037
:1005A000E0DFE114F104B1F0EA94EF28E1F429E08E
:1005B000209FC001219F900D112465E070E00E94F2
:1005C0000D0E605E7F4FCE0107DE6FEDCE0152DE75
:1005D00066E407C0B801CE01FFDD6FEDCE014ADE53
:1005E00063E4CE0147DECE01DF91CF911F910F91E1
:1005F000FF90EF900895FC01789480818830A0F4FA
:100600008091680081608093680040916B0021E0D8
:1006100030E0C901008002C0880F991F0A94E2F7F8
:10062000842B80936B000895803198F4809168004A
:1006300082608093680030916C002081285081E0B6
:1006400090E001C0880F2A95EAF7832B80936C0015
:100650000895883190F480916800846080936800E8
:1006600030916D002081205181E090E001C0880F21
:100670002A95EAF7832B80936D000895CF93DF933B
:10068000DC01EC9197E09E9FF0011124EA5CFE4FA3
:10069000C281D381588121E030E0B901068002C0D7
:1006A000660F771F0A94E2F7462F4095452348834B
:1006B000EC919E9FF0011124EA5CFE4FA481B5816C
:1006C0008C91068002C0220F331F0A94E2F7282B78
:1006D0002C93DF91CF910895CF93DF93DC01EC91C0
:1006E00097E09E9FF0011124EA5CFE4FC481D58102
:1006F000588121E030E0B901068002C0660F771F03
:100700000A94E2F7462F409545234883EC919E9F3B
:10071000F0011124EA5CFE4FA281B3818C91068026
:1007200002C0220F331F0A94E2F7282B2C93DF918B
:10073000CF910895DC01EC91662399F0B7E0EB9F2F
:10074000F0011124EA5CFE4FA281B3814C9121E0BB
:1007500030E0068002C0220F331F0A94E2F7242BF8
:1007600013C027E0E29FF0011124EA5CFE4FA28152
:10077000B3814C9121E030E0068002C0220F331F8C
:100780000A94E2F7209524232C93DC01EC91B7E046
:10079000EB9FF0011124EA5CFE4FA481B5812C91FE
:1007A00081E090E0068002C0880F991F0A94E2F76A
:1007B000822B8C930895CF93DF93EC01289660E011
:1007C000CE01B8DF85E08A95F1F7000061E0CE0147
:1007D000B1DF95E09A95F1F7000060E0CE01AADF65
:1007E0008FE891E00197F1F700C00000DF91CF9111
:1007F0000895CF93DF93EC01099660DCCE01DF9181
:10080000CF91D9CF1F93CF93DF93EC01162F642F95
:10081000069690DFCE0107962F812531D1F48B8982
:10082000612F84FF08C0CE01099648DCCE01DF911C
:10083000CF911F91C0CF70E084E0759567958A9540
:10084000E1F7CE01D6DF612FCE01DF91CF911F916D
:10085000D0CF60E06FDFE3CF41E0D4DF81E090E014
:10086000089540E0CFCFCF93DF93CDB7DEB7289781
:100870000FB6F894DEBF0FBECDBF9C0188E0EEE25C
:10088000F1E0DE01119601900D928A95E1F7F901F0
:100890008789481710F04FEF480FFE013196E40F9B
:1008A000F11DE40FF11D9081690F6068C901289660
:1008B0000FB6F894DEBF0FBECDBFDF91CF91D1CF81
:1008C00061E0CFDF8FE39FE10197F1F700C0000007
:1008D0000895CF93DF93EB01809106029091070278
:1008E000EFDF40E060E08091060290910702BBDFFD
:1008F0006CE38091060290910702E4DD40E062E043
:100900008091060290910702AEDFBE01809106023F
:1009100090910702F3DD40E067E08091060290913C
:100920000702A1DF6EE38091060290910702CADD03
:1009300041E060E0809106029091070294DF6CE351
:100940008091060290910702BDDD41E062E0809156
:1009500006029091070287DF6AE172E08091060249
:1009600090910702CBDD41E067E080910602909113
:10097000070279DF6EE38091060290910702DF9112
:10098000CF91A0CDCF93DF93CDB7DEB7C25DD109B4
:100990000FB6F894DEBF0FBECDBF8E010B571F4FB1
:1009A000D80113961C921E92129786E291E011963E
:1009B0009C938E9315961C921E9214978AE016961D
:1009C0008C93169785E117968C9317979BE0189652
:1009D0009C9318979DE019969C93199790E11A960D
:1009E0009C931A979CE01B969C931B9791E11C96F5
:1009F0009C931C971D968C931D971E968C931E9707
:100A00001F968C931F9750968C93509752961C92DA
:100A10001E925197F801399698012F5E3F4F8191B0
:100A2000853109F044C760E0C801069683DE60E0C6
:100A3000C80108967FDEF80184819581892B11F425
:100A4000138A02C080E1838BCE018E539F4FFC013D
:100A50001082319727E12083C255DF4F1982188217
:100A6000CE5AD04020E8C355DF4F2883CD5AD0401E
:100A7000C755DF4F99838883C95AD040C555DF4F8A
:100A8000F983E883CB5AD04027DEC555DF4F8881F4
:100A90009981CB5AD04020DEC755DF4F888199819C
:100AA000C95AD040A8DD29EA30E02C0F3D1F309311
:100AB0000902209308025E0130ECA30EB11C85E10F
:100AC000D5018C93C50108DEC50195DD4E01BFEB54
:100AD0008B0E911C86E1F4018083C401FDDDC4010D
:100AE0008ADD6E01FCEBCF0ED11C88E0D6018C9321
:100AF00012961C921E9211973898EC91B7E0EB9FDA
:100B0000F0011124EA5CFE4FA281B3812C9181E0B7
:100B100090E0068002C0880F991F0A94E2F7809542
:100B200082238C9380E480937C00F60190819A303C
:100B3000B1F040F4983079F09930E9F580917C007B
:100B40008B7F2DC09C30E9F098F09D30A1F580910D
:100B50007C00846024C080917C008B7F15C08091D4
:100B60007C008B7F80937C0080917C00826011C030
:100B700080917C008B7F80937C0080917C008260E0
:100B800013C080917C00846080937C0080917C0005
:100B90008D7F80937C0080917C008E7F0AC0809343
:100BA0007C0080917C008D7F80937C0080917C0014
:100BB000816080937C0080917A00846080937A00C9
:100BC00080917A00826080937A0080917A008160BF
:100BD00080937A0080917A00806880937A00D601B1
:100BE00011968D919C9112970097D1F00197E9F49D
:100BF00080917A00806280937A0080917B008B7F65
:100C000080937B0080917B008D7F80937B0080911F
:100C10007B008E7F80937B0080917A00806403C08C
:100C200080917A008F7D80937A007E01BCE5EB0E87
:100C3000F11C92E0D7019D938CE0E6E0F1E0019099
:100C40000D928A95E1F780E1E2E1F1E0D7011D968E
:100C500001900D928A95E1F7F701168E21E030E0C0
:100C6000C256DF4F39832883CE59D040C056DF4F5C
:100C700019821882C05AD040CC55DF4F1882C45A0E
:100C8000D040CB55DF4F39832883C55AD04022E06E
:100C900030E0C955DF4F39832883C75AD0401093BD
:100CA000070200930602D80153968C9153978860EF
:100CB00053968C93539757969C93579758961C929C
:100CC000BFEFE0E7F2E0B150E040F040E1F700C0F4
:100CD000000060E0C80106962DDD60E0C8010896BE
:100CE00029DDD80117968C91853109F0EFC5F801FF
:100CF000638964FD1FC063E0C8017BDD8FE496E477
:100D00000197F1F700C0000063E0C80172DDAFE4B5
:100D1000B6E41197F1F700C0000063E0C80169DD97
:100D2000E7E5F2E03197F1F700C0000062E0C801AA
:100D300060DD1BC06062C80194DD8FE496E401971A
:100D4000F1F700C00000D80153966C916062C801B1
:100D500088DDE7E5F2E03197F1F700C00000D80147
:100D600053966C916062C8017CDDF8016389606212
:100D7000C80177DD84E0D80154968C936CE0C801FB
:100D800070DDC8019DDD82E0F801858B66E0C80159
:100D900068DD809106029091070292DD40E060E0FC
:100DA00080910602909107025EDDB0921302A0923C
:100DB00012029092100280920F0229EA30E02C0F6A
:100DC0003D1F3093F9012093F8011C821B8281E0C2
:100DD00090E09E838D831F8240E050E066E973E4DB
:100DE000488759876A877B879E012C5E3F4F3FAFBC
:100DF0002EAF2C5F3F4F3DAF2CAF2C5F3F4F229665
:100E00003FAF2EAF22976B961FAE6B9766961CAEC8
:100E10001DAE1EAE1FAE669740E050E06FE773E474
:100E20006A964CAF5DAF6EAF7FAF6A9744E650E015
:100E300060E070E062964CAF5DAF6EAF7FAF6297DF
:100E400019AE18AE9BAF8AAF21E06C962FAF6C97AE
:100E500080E090E0A0E0B0E488A399A3AAA3BBA39C
:100E600040E050E060EA70E44CA35DA36EA37FA372
:100E700040E050E060E87FE348A759A76AA77BA756
:100E80008CA79DA7AEA7BFA780E090E0A0E0BFE33E
:100E900088AB99ABAAABBBAB80E090E0A0E2B1E439
:100EA0008CAB9DABAEABBFAB3FB7F89480910A0261
:100EB00090910B02A0910C02B0910D023FBF62967F
:100EC0004CAD5DAD6EAD7FAD6297841B950BA60BEF
:100ED000B70B26968CAF9DAFAEAFBFAF2697DB8A20
:100EE000CA8AF98AE88A80E090E4ACE1B6E4F701C6
:100EF00081A392A3A3A3B4A38AE0868F258F6381E5
:100F0000748180E496E089D670A3678F80819BEE20
:100F1000980F923008F456C0813041F580918000DE
:100F2000806880938000809180008F7B8093800018
:100F3000809180008E7F809380008091800082600D
:100F400080938000809181008860809381008091EF
:100F50008100806180938100878D90A190938700AC
:100F60008093860090918100858D29C0823051F553
:100F700080918000806280938000809180008F7ECD
:100F800080938000809180008E7F8093800080918C
:100F900080008260809380008091810088608093CF
:100FA000810080918100806180938100878D90A174
:100FB000909387008093860090918100858D892B86
:100FC000809381008889998959DB81E090E09D8731
:100FD0008C879F878E8766961CAE1DAE1EAE1FAE99
:100FE0006697812C912C88ECA82E82E4B82E6A9604
:100FF0008CAE9DAEAEAEBFAE6A976B968FAD6B9763
:10100000882309F448C00EAD1FADF801C080D1801F
:10101000E280F380A5019401C701B60111D718162B
:101020003CF4D8018D929D92AD92BC9213970DC065
:1010300020E030E0A901C701B6019FD487FF05C0B9
:10104000F80110821182128213822A968CAC9DAC18
:10105000AEACBFAC2A976A96CCACDDACEEACFFACC4
:101060006A97A7019601C501B401EAD618166CF07B
:101070006696CCACDDACEEACFFAC6697A7019601F2
:10108000C501B4017AD487FF06C02A96CCAEDDAE86
:10109000EEAEFFAE2A97FF81CD53DF4FF883C35CDE
:1010A000D0408B819C819A8389838D819E819F878B
:1010B0008E879D878C8788859985AA85BB858C8F2F
:1010C0009D8FAE8FBF8F2EE930E02C0F3D1F2E5F1E
:1010D0003F4FCF52DF4F39832883C15DD0403FEF70
:1010E00041EE54E0315040405040E1F700C0000074
:1010F000E091F801F091F901848190E894838A38B5
:1011000018F083E090E004C0813828F081E090E09E
:10111000968385830CC0873718F484E090E0F8CF7D
:1011200087FD03C082E090E0F3CF168215828581AF
:10113000968101978430910540F4FC01E65DFE4FF5
:101140006081062E000C770B02C060E070E03091E9
:10115000110220910E021092110210920E028E8541
:101160009F85009709F458C08130910509F08AC025
:10117000332361F031E0CD53DF4FA881C35CD04011
:10118000A327CD53DF4FA883C35CD040222349F06F
:101190009D878C871F861E86CC55DF4F1882C45AC8
:1011A000D040CD53DF4FB881C35CD040B11110C0E7
:1011B000072E000C880B990BE6D39B01AC016C8DBC
:1011C0007D8D8E8D9F8D44D56C8F7D8F8E8F9F8F63
:1011D000CC8CDD8CEE8CFF8C20E030E048EC53E4CE
:1011E000C701B6012DD618162CF480E090E0A8ECCB
:1011F000B3E40DC020E030E048EC52E4C701B60192
:10120000BCD387FF3FC080E090E0A8ECB2E48C8FB5
:101210009D8FAE8FBF8F36C0332331F08C859D8577
:101220009F878E871D861C86222391F0CC55DF4F29
:101230008881C45AD040FE01E256FF4FE80FF11DED
:10124000E80FF11D878190859F878E871D861C86FC
:101250001616170614F481E010C0672B99F0CC55D0
:10126000DF4F8881C45AD04090E0019730F4CC55CC
:10127000DF4F1882C45AD04005C0CC55DF4F888359
:10128000C45AD040EA89FB8981819281892BE1F09F
:10129000609178007091790080E090E072D32AEF3D
:1012A0003EE74AE25FE3CED326E636E648E153E482
:1012B000CED4688F798F8A8F9B8F6B968FAD6B970B
:1012C000882309F44CC10AC080917A00806480931D
:1012D0007A0080917A0086FDFCCFDACF8FB7F89440
:1012E00020910A0230910B0240910C0250910D02A4
:1012F000C353DF4F288339834A835B83CD5CD0405F
:101300008FBF26968CAD9DADAEADBFAD2697C353B6
:10131000DF4F488159816A817B81CD5CD040481B79
:10132000590B6A0B7B0B62968CAD9DADAEADBFAD1C
:101330006297481759076A077B0708F410C1ECAD9C
:10134000FDAD80819181A281B381CC53DF4F888331
:101350009983AA83BB83C45CD0402296EEADFFADD7
:1013600022979C01AD0160817181828193816FD44C
:101370004B015C012E962CAD3DAD4EAD5FAD2E9771
:10138000CC53DF4F688179818A819B81C45CD040D6
:101390005ED46B017C0128A939A94AA95BA9C501C2
:1013A000B40150D32A962CAD3DAD4EAD5FAD2A971A
:1013B0004FD42B013C012A966CAF7DAF8EAF9FAF0F
:1013C0002A976C969FAD6C97C853DF4F9883C85C83
:1013D000D040911112C02CA53DA54EA55FA5C70117
:1013E000B60130D39B01AC01C301B20130D42A96BF
:1013F0006CAF7DAF8EAF9FAF2A972A964CAC5DAC99
:101400006EAC7FAC2A9767961FAD679768960FAD55
:10141000689769963FAC69976A962FAC6A97212FB7
:10142000302F432D522DC301B2010AD518162CF4CA
:10143000812F902FA32DB22D1BC066962CAD3DADF4
:101440004EAD5FAD6697C753DF4F288339834A831C
:101450005B83C95CD040C301B2018FD287FF0EC04D
:10146000C753DF4F88819981AA81BB81C95CD04075
:101470002A968CAF9DAFAEAFBFAF2A97C853DF4F50
:101480009881C85CD040992351F02CA53DA54EA56C
:101490005FA5C501B401D6D24B015C0103C0812C0C
:1014A000912C54012CA93DA94EA95FA9C701B601F1
:1014B000C9D29B01AC012A966CAD7DAD8EAD9FADBE
:1014C0002A97C5D39B01AC01C501B401C1D36B01FF
:1014D0007C01212F302F432D522DB2D41816CCF081
:1014E00063961FAD639764960FAD649765963FACA6
:1014F000659766962FAC6697212F302F432D522D7E
:10150000B601C7013AD287FD04C01C2D0D2D3E2C1B
:101510002F2CEEADFFAD812F902FA32DB22D808308
:101520009183A283B383CC53DF4F288139814A81D1
:101530005B81C45CD0402E962CAF3DAF4EAF5FAF09
:101540002E97C353DF4F88819981AA81BB81CD5CDF
:10155000D04026968CAF9DAFAEAFBFAF2697CC885C
:10156000DD88EE88FF880889198920E030E0A9012C
:10157000C701B60102D2882319F1809180008062F0
:1015800080938000809180008F7E80938000D801BE
:101590005F968D919C919097BC0180E090E0F1D195
:1015A0009B01AC01C701B6014DD220E030E048EC10
:1015B00052E4B2D319D470938B0060938A000CC0AC
:1015C000909180009F7D90938000909180009F7EFD
:1015D00090938000C80152D88C8C9D8CAE8CBF8CAF
:1015E000C88CD98CEA8CFB8C6DEE71E0CE018A54EC
:1015F0009F4F0E94B1028E859F85009709F475C0A8
:10160000019709F04EC109811A81809106029091DB
:10161000070256D940E060E08091060290910702EF
:1016200022D96EED71E080910602909107020E942E
:101630006902C501B401D8D39801AB01BE0162565D
:101640007F4FCE0180559F4F0E94C502BE0160555D
:101650007F4F80910602909107020E947E02CE0188
:1016600080559F4F0E94AC0241E060E080910602ED
:1016700090910702F8D861EE71E080910602909196
:1016800007020E946902C701B601AED39801AB01FF
:10169000BE0162567F4FCE0180559F4F0E94C5020A
:1016A000BE0160557F4F80910602909107020E9413
:1016B0007E02CE0180559F4F0E94AC02CD53DF4F7A
:1016C000B881C35CD040BB2309F4EBC040E067E0C5
:1016D0008091060290910702C6D866E280910602C8
:1016E000909107020E946202DCC0CC55DF4F8881D6
:1016F000C45AD040FE01E256FF4FE80FF11DE80F3B
:10170000F11D8781908581309105B9F0029779F5B7
:10171000C055DF4F19821882C05BD040CE54DF4FD6
:1017200019821882C25BD040CC54DF4F19821882D4
:10173000C45BD0406AEF71E014C0C055DF4F19821E
:101740001882C05BD040CE54DF4F19821882C25B32
:10175000D040CC54DF4F19821882C45BD04060E087
:1017600072E0CE0180559F4F0E948C0207C06DEE43
:1017700071E0CE0180559F4F0E94B102CA54DF4FE5
:1017800088819981C65BD040009739F1C055DF4F01
:1017900068817981C05BD04061157105E9F0C8545A
:1017A000DF4F48815981C85BD040CC54DF4F28813E
:1017B0003981C45BD0404217530770F03ED5CC54FA
:1017C000DF4F88819981C45BD040C654DF4F998335
:1017D0008883CA5BD04031C0CCD3C055DF4F8881ED
:1017E0009981C05BD040CA54DF4F99838883C65B20
:1017F000D040CE54DF4F88819981C25BD040C8541D
:10180000DF4F99838883C85BD040CC54DF4F8881F9
:101810009981C45BD040C654DF4F99838883CA5BEB
:10182000D040C055DF4F19821882C05BD040CE54E3
:10183000DF4F19821882C25BD040CC54DF4F19822F
:101840001882C45BD040CE0180559F4F0E94AC02ED
:10185000C055DF4F19821882C05BD040CE54DF4F95
:1018600019821882C25BD040CC54DF4F1982188293
:10187000C45BD040BE016A547F4FCE0180559F4F5C
:101880000E948C02BE0160557F4FCF52DF4F88818E
:101890009981C15DD0401DD8CE0180559F4F0E94D7
:1018A000AC02CE018A549F4F0E94AC0218CCD801E2
:1018B00051968D919C915297019652969C938E933E
:1018C0005197E217F30709F0AAC8ADC860E0C80154
:1018D00007960E949A030BCA8AE192E00E94AC022A
:1018E0008AEF91E00E94AC0284E192E00E94AC0297
:1018F00080E092E00C94AC0264EE71E080E092E053
:101900000E94B10269EE71E084E192E00E94B102AE
:101910006EEE71E08AEF91E00E94B10263EF71E038
:101920008AE192E00C94B102BB27FB015527AA275C
:10193000880F991FAA1FA41710F0A41B839550515C
:10194000B9F7A05DAA3308F0A95DA193009779F7D4
:10195000B111B1931192CB0100C0DC01FC01672FE2
:1019600071917723E1F7329704C07C916D93708376
:101970006291AE17BF07C8F3089540D008F481E024
:101980000895E89409C097FB3EF490958095709572
:1019900061957F4F8F4F9F4F9923A9F0F92F96E9BB
:1019A000BB279395F695879577956795B795F11130
:1019B000F8CFFAF4BB0F11F460FF1BC06F5F7F4FCD
:1019C0008F4F9F4F16C0882311F096E911C07723DF
:1019D00021F09EE8872F762F05C0662371F096E8E8
:1019E000862F70E060E02AF09A95660F771F881FB7
:1019F000DAF7880F9695879597F90895990F00085B
:101A0000550FAA0BE0E8FEEF16161706E807F907D0
:101A1000C0F012161306E407F50798F0621B730B6B
:101A2000840B950B39F40A2661F0232B242B252BEC
:101A300021F408950A2609F4A140A6958FEF811D8F
:101A4000811D08950BD078C069D028F06ED018F0B1
:101A5000952309F05AC05FC01124A2C07ED0A0F324
:101A6000959FD1F3950F50E0551F629FF001729F33
:101A7000BB27F00DB11D639FAA27F00DB11DAA1F52
:101A8000649F6627B00DA11D661F829F2227B00D9F
:101A9000A11D621F739FB00DA11D621F839FA00D2A
:101AA000611D221F749F3327A00D611D231F849F7A
:101AB000600D211D822F762F6A2F11249F575040D1
:101AC0008AF0E1F088234AF0EE0FFF1FBB1F661F6C
:101AD000771F881F91505040A9F79E3F510570F025
:101AE00014C05EC05F3FECF3983EDCF386957795BB
:101AF0006795B795F795E7959F5FC1F7FE2B880F20
:101B0000911D9695879597F9089597F99F6780E8B5
:101B100070E060E008959FEF80EC089500240A943F
:101B20001616170618060906089500240A941216B8
:101B30001306140605060895092E0394000C11F4EB
:101B4000882352F0BB0F40F4BF2B11F460FF04C098
:101B50006F5F7F4F8F4F9F4F089557FD9058440FF1
:101B6000551F59F05F3F71F04795880F97FB991FFC
:101B700061F09F3F79F087950895121613061406B9
:101B8000551FF2CF4695F1DF08C016161706180646
:101B9000991FF1CF86957105610508940895E89421
:101BA000BB2766277727CB0197F908952F923F929D
:101BB0004F925F926F927F928F929F92AF92BF925D
:101BC000CF92DF92EF92FF920F931F93CF93DF9309
:101BD000CDB7DEB7CA1BDB0B0FB6F894DEBF0FBE66
:101BE000CDBF09942A88398848885F846E847D84B3
:101BF0008C849B84AA84B984C884DF80EE80FD80B5
:101C00000C811B81AA81B981CE0FD11D0FB6F8942A
:101C1000DEBF0FBECDBFED010895AA1BBB1B51E176
:101C200007C0AA1FBB1FA617B70710F0A61BB70B4C
:101C3000881F991F5A95A9F780959095BC01CD01F1
:101C40000895EE0FFF1F0590F491E02D0994505870
:101C5000BB27AA270ED070CF61DF30F066DF20F0FF
:101C600031F49F3F11F41EF456CF0EF4E095E7FBDC
:101C70004CCFE92F72DF80F3BA176207730784072E
:101C8000950718F071F49EF58ACF0EF4E0950B2EAF
:101C9000BA2FA02D0B01B90190010C01CA01A001BE
:101CA0001124FF27591B99F0593F50F4503E68F119
:101CB0001A16F040A22F232F342F4427585FF3CF5A
:101CC000469537952795A795F0405395C9F77EF42B
:101CD0001F16BA0B620B730B840BBAF09150A1F074
:101CE000FF0FBB1F661F771F881FC2F70EC0BA0FFA
:101CF000621F731F841F48F4879577956795B79582
:101D0000F7959E3F08F0B3CF9395880F08F0992779
:101D1000EE0F9795879508950CD00ECF06DF40F013
:101D2000FDDE30F021F45F3F19F0EFCE511138CFD6
:101D3000F2CE13DF98F39923C9F35523B1F3951B22
:101D4000550BBB27AA2762177307840738F09F5FDC
:101D50005F4F220F331F441FAA1FA9F333D00E2E4B
:101D60003AF0E0E830D091505040E695001CCAF7B8
:101D700029D0FE2F27D0660F771F881FBB1F26177D
:101D800037074807AB07B0E809F0BB0B802DBF0150
:101D9000FF2793585F4F2AF09E3F510568F0B5CE5C
:101DA000FFCE5F3FECF3983EDCF386957795679521
:101DB000B795F7959F5FC9F7880F911D9695879501
:101DC00097F90895E1E0660F771F881FBB1F621720
:101DD00073078407BA0720F0621B730B840BBA0BDE
:101DE000EE1F88F7E0950895C0DE88F09F5790F0C9
:101DF000B92F9927B751A0F0D1F0660F771F881F30
:101E0000991F1AF0BA95C9F712C0B13081F0C7DE38
:101E1000B1E00895C4CE672F782F8827B85F39F0D6
:101E2000B93FCCF3869577956795B395D9F73EF48E
:101E300090958095709561957F4F8F4F9F4F089536
:101E4000DDDD08F48FEF0895CF93DF9382309105A5
:101E500010F482E090E0E0912702F091280220E067
:101E600030E0C0E0D0E0309711F140815181481757
:101E70005907C0F04817590761F482819381209770
:101E800019F09B838A832BC09093280280932702AA
:101E900026C02115310519F04217530718F49A018D
:101EA000BE01DF01EF010280F381E02DDCCF2115BF
:101EB000310509F1281B390B2430310590F41296B5
:101EC0008D919C9113976115710521F0FB0193830E
:101ED000828304C09093280280932702FD013296EA
:101EE00044C0FD01E20FF31F819391932250310909
:101EF0002D933C933AC02091250230912602232B4A
:101F000041F4209102013091030130932602209385
:101F1000250220910001309101012115310541F484
:101F20002DB73EB74091040150910501241B350B9C
:101F3000E0912502F0912602E217F307A0F42E1B90
:101F40003F0B2817390778F0AC014E5F5F4F24171D
:101F5000350748F04E0F5F1F50932602409325022D
:101F60008193919302C0E0E0F0E0CF01DF91CF9147
:101F700008950F931F93CF93DF93009709F48CC0BC
:101F8000FC013297138212820091270210912802DD
:101F90000115110581F420813181820F931F209159
:101FA0002502309126022817390779F5F093260289
:101FB000E093250271C0D80140E050E0AE17BF07A2
:101FC00050F412962D913C911397AD0121153105D6
:101FD00009F1D901F3CF9D01DA01338322836081B6
:101FE0007181860F971F8217930769F4EC0128818E
:101FF0003981260F371F2E5F3F4F318320838A811F
:102000009B8193838283452B29F4F0932802E093EC
:10201000270242C01396FC93EE931297ED0149916B
:1020200059919E01240F351FE217F30771F4808147
:102030009181840F951F029611969C938E938281B5
:10204000938113969C938E931297E0E0F0E0D80171
:1020500012968D919C911397009719F0F8018C01BD
:10206000F6CF8D919C9198012E5F3F4F820F931F69
:1020700020912502309126022817390769F43097FC
:1020800029F4109228021092270202C013821282B1
:102090001093260200932502DF91CF911F910F919B
:1020A0000895A0E0B0E0E6E5F0E184CDEC01009712
:1020B00019F4CB01C9DEB4C0FC01E60FF71F9C0187
:1020C00022503109E217F30708F4A8C0D9010D9195
:1020D0001C91119706171707A8F00530110508F491
:1020E0009BC0C80104978617970708F495C0025053
:1020F0001109061B170B019311936D937C93CF016C
:1021000038DF8AC05B01A01AB10A4C01800E911E13
:10211000A0912702B091280240E050E0E12CF12C80
:10212000109709F44AC0A815B905D1F56D907C90B7
:102130001197630182E0C80ED11CCA14DB0480F140
:10214000A3014A195B096A0182E0C80ED11C1296EC
:10215000BC9012971396AC91B5E0CB16D10440F029
:10216000B282A38351834083D9016D937C930AC0CB
:102170000E5F1F4FC301800F911FF9019183808370
:10218000EB2DFA2FE114F10431F0D7011396FC93F3
:10219000EE93129741C0F0932802E09327023CC0CF
:1021A0008D919C9111974817590708F4AC017D0156
:1021B00012960D90BC91A02DB3CF809125029091E5
:1021C000260288159905E1F446175707C8F480914F
:1021D000000190910101009741F48DB79EB74091A5
:1021E000040150910501841B950BE817F907B0F421
:1021F000F0932602E0932502F901718360830CC0FD
:10220000CB0122DE7C01009749F0A801BE010CD071
:10221000CE01AFDEC70104C0CE0102C080E090E075
:10222000CDB7DEB7EEE0E2CCFB01DC0102C00190ED
:102230000D9241505040D8F70895FB01DC01019008
:102240000D920020E1F7089510E0C5E3D0E003C04F
:10225000FE01F7DC2196C633D107D1F7F894FFCF02
:102260000000290280000100010008004000000178
:10227000000401000100080020004000800000016F
:102280000004000000002C04850001FF0AF6000095
:1022900040001400540023002500240000230025E2
:1022A000002400012300250024000223002500242F
:1022B000000323002500240004230025002400053A
:1022C0002300250024000623002500240007260003
:1022D00028002700002600280027000126002800EB
:1022E00027000226002800270003260028002700D8
:1022F00004260028002700052600280027000626BF
:1023000000280027000729002B002A000029002BA5
:10231000002A000129002B002A000229002B002A94
:10232000000329002B002A000429002B002A0005A5
:1023300029002B002A000629002B002A0007533A07
:10234000004D3A004D41494E0043414C20004F5052
:082350005453004D454E5500A9
:00000001FF
