:1000000033C000004EC000004CC000000C94180922
:1000100048C000000C94920844C0000042C0000098
:1000200040C000003EC000003CC000003AC00000DC
:1000300038C0000036C0000034C0000032C00000EC
:100040000C94CE082EC000002CC000002AC0000076
:1000500028C0000026C0000024C0000022C000000C
:1000600020C000001EC0000011241FBECFEFD8E04A
:10007000DEBFCDBF22E0AAE8B2E001C01D92A63AE1
:10008000B207E1F712E0A0E0B1E0E2EFF4E202C073
:1000900005900D92AA38B107D9F70E9461090C9416
:1000A0007712AECFCF92DF92EF92FF920F931F9312
:1000B000CF93DF936C017A018B01C0E0D0E0CE15C5
:1000C000DF0589F0D8016D918D01D601ED91FC918C
:1000D0000190F081E02DC6010995892B11F47E0174
:1000E00002C02196ECCFC701DF91CF911F910F91F4
:1000F000FF90EF90DF90CF900895FC01789480817D
:100100008830A0F4809168008160809368004091FD
:100110006B0021E030E0C901008002C0880F991F08
:100120000A94E2F7842B80936B000895803198F451
:100130008091680082608093680030916C0020811B
:10014000285081E090E001C0880F2A95EAF7832BC0
:1001500080936C000895883190F4809168008460E9
:100160008093680030916D002081205181E090E003
:1001700001C0880F2A95EAF7832B80936D000895BC
:10018000CF93DF93DC01EC9197E09E9FF001112467
:10019000E856FE4FC281D381588121E030E0B90199
:1001A000068002C0660F771F0A94E2F7462F40953B
:1001B00045234883EC919E9FF0011124E856FE4FA1
:1001C000A481B5818C91068002C0220F331F0A944E
:1001D000E2F7282B2C93DF91CF910895CF93DF93F3
:1001E000DC01EC9197E09E9FF0011124E856FE4F50
:1001F000C481D581588121E030E0B901068002C078
:10020000660F771F0A94E2F7462F409545234883EF
:10021000EC919E9FF0011124E856FE4FA281B3811C
:100220008C91068002C0220F331F0A94E2F7282B1C
:100230002C93DF91CF910895DC01EC91662399F026
:10024000B7E0EB9FF0011124E856FE4FA281B38185
:100250004C9121E030E0068002C0220F331F0A9447
:10026000E2F7242B13C027E0E29FF0011124E856A7
:10027000FE4FA281B3814C9121E030E0068002C0A4
:10028000220F331F0A94E2F7209524232C93DC01DC
:10029000EC91B7E0EB9FF0011124E856FE4FA481EA
:1002A000B5812C9181E090E0068002C0880F991FF3
:1002B0000A94E2F7822B8C930895EF92FF920F93AA
:1002C0001F93CF93DF938C01C0E0D0E0E62EF12C9A
:1002D000F80180859185C817D90770F4B7010C2EF5
:1002E00002C0759567950A94E2F76170C8018C0F9A
:1002F0009D1FA2DF2196ECCFC801DF91CF911F9106
:100300000F91FF90EF9008950F931F93CF93DF937A
:10031000EC0188819981009729F02A813B81261779
:10032000370788F48B016F5F7F4F0E94A4110097FD
:1003300061F0998388831B830A832C813D81232B61
:1003400011F4FC01108281E001C080E0DF91CF91C7
:100350001F910F910895EF92FF920F931F93CF93E8
:10036000DF93EC017B018A01BA01CEDF288139815C
:1003700081110DC02115310519F0C9010E940C1120
:10038000198218821D821C821B821A8206C01D835C
:100390000C83B701C9010E947012CE01DF91CF9189
:1003A0001F910F91FF90EF900895CF93DF93EC0191
:1003B000289660E0CE0140DF85E08A95F1F70000E5
:1003C00061E0CE0139DF95E09A95F1F7000060E039
:1003D000CE0132DF8FE891E00197F1F700C0000015
:1003E000DF91CF910895CF93DF93EC01099665DFFC
:1003F000CE01DF91CF91D9CF1F93CF93DF93EC0143
:10040000162F642F069618DFCE0107962F8125310F
:10041000D1F48B89612F84FF08C0CE0109964DDF8E
:10042000CE01DF91CF911F91C0CF70E084E0759530
:1004300067958A95E1F7CE01D6DF612FCE01DF9176
:10044000CF911F91D0CF60E0F7DEE3CF41E0D4DF62
:1004500081E090E0089540E0CFCFDC01ED91FC9188
:100460000190F081E02D09946115710579F0FB018F
:1004700001900020E9F73197AF01461B570BDC01D3
:10048000ED91FC910280F381E02D099480E090E0F1
:100490000895DC01ED91FC91DB0114964D915C9186
:1004A00015976D917C910280F381E02D0994CF9294
:1004B000DF92EF92FF920F931F93CF93DF93CDB70D
:1004C000DEB727970FB6F894DEBF0FBECDBF8C0105
:1004D000CB014AE09E012F5F3F4F6901B9010E94A5
:1004E000ED0DF60101900020E9F73197EC19FD09B7
:1004F000D8011496ED90FC9015973097B1F0EE0E60
:10050000FF1EB701C80100DF882381F0F8012081B8
:10051000318184819581B601820F931F0E947012F0
:10052000D8011596FC92EE92149781E027960FB6AB
:10053000F894DEBF0FBECDBFDF91CF911F910F9119
:10054000FF90EF90DF90CF900895EF92FF920F937E
:100550001F93CF93DF9300D0CDB7DEB78C016983B3
:100560001A82FC01E480F580FFEFEF1AFF0AB70161
:10057000CBDE882381F0F80120813181848195814F
:10058000BE016F5F7F4F820F931F0E947012F801B0
:10059000F582E48281E00F900F90DF91CF911F915F
:1005A0000F91FF90EF900895CF93DF93EC01FB0143
:1005B00086179707A9F0608171816115710521F097
:1005C00044815581C8DE0CC088819981009711F063
:1005D0000E940C11198218821D821C821B821A82B1
:1005E000CE01DF91CF910895FC01808191810C941F
:1005F0000C11FC0111821082138212821582148266
:100600006115710549F0FB0101900020E9F7319770
:10061000AF01461B570B9FCE0895DC01EC91B7E06C
:10062000EB9FF0011124E856FE4FA081B1818C911F
:1006300090E0068002C0959587950A94E2F7817054
:100640000895CF93DF93CDB7DEB728970FB6F89410
:10065000DEBF0FBECDBF9C0188E0E8E0F1E0DE0127
:10066000119601900D928A95E1F7F9018789481753
:1006700010F04FEF480FFE013196E40FF11DE40F2B
:10068000F11D9081690F6068C90128960FB6F89432
:10069000DEBF0FBECDBFDF91CF91DDCE61E0DBDEEF
:1006A0008FE39FE10197F1F700C0000008950895DE
:1006B000E0919B02F0919C0224893589FC013383EF
:1006C00022830895FC01A0919B02B0919C02529656
:1006D0008D919C915397181619062CF482858111DF
:1006E00009C081E006C0892B29F08285882311F09A
:1006F0008150828750968C915097882361F082E0D8
:1007000090E090939802809397028281938155960E
:100710009C938E93549751968C915197882389F08E
:100720008285E80FF11DE80FF11D838594855596AC
:100730009C938E93549782E090E0909398028093DC
:10074000970208950895E0919B02F0919C022685FE
:100750003785FC01338322830895E0919B02F09159
:100760009C024289538926853785240F351F44858D
:1007700055852417350718F45787468708C0233C4A
:1007800041E0340714F022EC31E0378726872089D6
:10079000222369F022E030E0309398022093970200
:1007A000DC0112968D919C9113979787868781899A
:1007B000882331F082E090E0909398028093970232
:1007C00008950895E0919B02F0919C02248535855F
:1007D000FC01338322830895E0919B02F0919C02F7
:1007E0004289538924853585240F351F37FF03C07F
:1007F000158614860AC0468557854217530718F494
:100800005587448702C0358724872089222369F0D1
:1008100022E030E03093980220939702DC01129698
:100820008D919C911397958784878189882331F0D6
:1008300082E090E090939802809397020895089543
:1008400082E090E090930101809300010895CF939E
:10085000DF93FC01C0919B02D0919C028889882380
:1008600051F082E090E09093010180930001909319
:1008700098028093970289898823A1F08085DF01FF
:10088000A80FB11DA80FB11D19968D919C911A97B3
:10089000909301018093000181E090E09093980291
:1008A000809397028A899B89181619062CF48085F3
:1008B000823048F48F5F06C0892B29F08085882319
:1008C00011F081508087DF91CF910895089582E0E3
:1008D00090E090930101809300010895CF93DF93FE
:1008E000FC01C0919B02D0919C028889882331F041
:1008F00082E090E090939802809397028989882300
:10090000A1F08085DF01A80FB11DA80FB11D1996B8
:100910008D919C911A97909301018093000182E040
:1009200090E090939802809397028A899B89181689
:1009300019062CF48085823048F48F5F06C0892B1D
:1009400029F08085882311F081508087DF91CF9135
:100950000895089508958F929F92AF92BF92CF927B
:10096000DF92EF92FF92CF93DF93C0919B02D091E1
:100970009C028889882321F0988D81E08927888FBF
:100980008989882361F081E090E090930101809350
:10099000000182E090E09093980280939702888D06
:1009A000811138C06A897B89072E000C880B990B4E
:1009B0000E941C0E288139814A815B810E947B0F35
:1009C0006B017C01688379838A839B836E857F8535
:1009D00080E090E00E941A0E4B015C019B01AC018B
:1009E000C701B6010E947310181684F06C857D85CE
:1009F00080E090E00E941A0E4B015C019B01AC016B
:100A0000C701B6010E94160E87FF04C08882998232
:100A1000AA82BB82DF91CF91FF90EF90DF90CF90C1
:100A2000BF90AF909F908F900895089582E090E0DE
:100A3000909301018093000181E090E090939802EF
:100A4000809397020895089581E090E09093980232
:100A50008093970208950F931F93CF93DF9300D055
:100A600000D000D0CDB7DEB78C01FC018285B80183
:100A7000F6E08F9F600D711D1124615F7F4F1A8218
:100A800019821C821B821E821D82CE0101968CDD82
:100A90008091990290919A0201DE40E060E080919D
:100AA000990290919A02CDDDB8016C5F7F4F8091E1
:100AB000990290919A02EDDC41E060E08091990208
:100AC00090919A02BEDD6CE38091990290919A0216
:100AD000C4DC41E062E08091990290919A02B1DD1C
:100AE000BE016F5F7F4F8091990290919A02D1DC95
:100AF00041E067E08091990290919A02A2DD6EE355
:100B00008091990290919A02A8DCCE0101966CDD49
:100B100026960FB6F894DEBF0FBECDBFDF91CF9102
:100B20001F910F9108950F931F93CF93DF9300D0E0
:100B300000D000D0CDB7DEB78C01FC018085B801B4
:100B4000F6E08F9F600D711D1124615F7F4F1A8247
:100B500019821C821B821E821D82CE01019624DD19
:100B60008091990290919A0299DD40E060E0809135
:100B7000990290919A0265DD6CE3809199029091BF
:100B80009A026BDC41E062E08091990290919A02B6
:100B900058DDB8016E5F7F4F8091990290919A0263
:100BA00078DC40E067E08091990290919A0249DDFB
:100BB0006EE38091990290919A024FDC41E060E0EF
:100BC0008091990290919A023CDD6CE380919902A8
:100BD00090919A0242DC40E062E08091990290910B
:100BE0009A022FDDBE016F5F7F4F80919902909135
:100BF0009A024FDC41E067E08091990290919A025D
:100C000020DD6EE38091990290919A0226DCCE015C
:100C10000196EADC26960FB6F894DEBF0FBECDBF74
:100C2000DF91CF911F910F9108950F931F93CF9351
:100C3000DF9300D000D000D0CDB7DEB78C01FC012F
:100C40008085B801F6E08F9F600D711D1124615FF2
:100C50007F4F1A8219821C821B821E821D82CE0146
:100C60000196A2DC8091990290919A0217DD40E0F2
:100C700060E08091990290919A02E3DC6CE38091AC
:100C8000990290919A02E9DB40E062E0809199023A
:100C900090919A02D6DCBE016F5F7F4F80919902DE
:100CA00090919A02F6DB40E067E080919902909182
:100CB0009A02C7DC6EE38091990290919A02CDDB93
:100CC00041E060E08091990290919A02BADC6CE375
:100CD0008091990290919A02C0DB41E062E080919C
:100CE000990290919A02ADDCB8016E5F7F4F8091BE
:100CF000990290919A02CDDB41E067E080919902E0
:100D000090919A029EDC6EE38091990290919A02F2
:100D1000A4DBCE01019668DC26960FB6F894DEBF00
:100D20000FBECDBFDF91CF911F910F910895EF922C
:100D3000FF920F931F93CF93DF9300D000D000D08A
:100D4000CDB7DEB7E0919B02F0919C020685178536
:100D50008091990290919A02A1DC40E060E080913C
:100D6000990290919A026DDC61E772E0809199029C
:100D700090919A0279DB41E060E080919902909134
:100D80009A025FDC6CE38091990290919A0265DB94
:100D900041E062E08091990290919A0252DCE091E8
:100DA0009B02F0919C02E488F5886EE472E0CE012B
:100DB00001961FDCE114F104C1F0EA94EF2809F573
:100DC00029E0209FC001219F900D112465E070E073
:100DD0000E94660F605E7F4FCE01019668DB6FED6B
:100DE000CE010196B2DB66E409C0B801CE010196DE
:100DF0005EDB6FEDCE010196A8DB63E4CE010196C8
:100E0000A4DBBE016F5F7F4F8091990290919A029F
:100E100040DBCE010196E8DB41E067E0809199027A
:100E200090919A020EDC6EE38091990290919A0261
:100E300014DB26960FB6F894DEBF0FBECDBFDF9150
:100E4000CF911F910F91FF90EF900895EF92FF9235
:100E50000F931F93CF93DF9300D000D000D0CDB776
:100E6000DEB7E0919B02F0919C020485158580918C
:100E7000990290919A0212DC40E060E08091990220
:100E800090919A02DEDB6AE772E08091990290917C
:100E90009A02EADA41E060E08091990290919A0228
:100EA000D0DB6CE38091990290919A02D6DA41E00E
:100EB00062E08091990290919A02C3DBE0919B02DB
:100EC000F0919C02E488F5886EE472E0CE01019610
:100ED00090DBE114F104B9F0EA94EF2801F529E080
:100EE000209FC001219F900D112465E070E0EED796
:100EF000605E7F4FCE010196DADA6FEDCE0101968A
:100F000024DB66E409C0B801CE010196D0DA6FEDAA
:100F1000CE0101961ADB63E4CE01019616DBBE0119
:100F20006F5F7F4F8091990290919A02B2DACE0161
:100F300001965ADB41E067E08091990290919A0214
:100F400080DB6EE38091990290919A0286DA269670
:100F50000FB6F894DEBF0FBECDBFDF91CF911F91CA
:100F60000F91FF90EF900895EF92FF920F931F93D0
:100F7000CF93DF9300D000D0CDB7DEB77C016EE415
:100F800072E029833A834B835C8333DB29813A8186
:100F90004B815C8101151105D1F00130110519F566
:100FA000CA01B9010E94471029E0269FA001279F8E
:100FB000500D1124CA0165E070E088D7605E7F4F54
:100FC000C70175DA6FEDC701C0DA66E40AC0CA016D
:100FD000B9010E944710C7016ADA6FEDC701B5DA9F
:100FE00063E4C701B2DAC7010F900F900F900F9022
:100FF000DF91CF911F910F91FF90EF900895EF92A5
:10100000FF920F931F93CF93DF93CDB7DEB72A974D
:101010000FB6F894DEBF0FBECDBF7C018091990260
:1010200090919A023BDB40E060E0809199029091C0
:101030009A0207DBE0919B02F0919C0204891589DA
:10104000208131814281538163E872E0809199026D
:1010500090919A022F83388749875A8705DA2F8122
:10106000388549855A85B701CE0101967DDFBE01DD
:101070006F5F7F4F8091990290919A020ADACE01B8
:101080000196B2DA41E060E08091990290919A0273
:10109000D8DAE0919B02F0919C02048915892481A1
:1010A00035814681578166E872E08091990290917E
:1010B0009A022F83388749875A87D6D92F81388556
:1010C00049855A85B701CE0101964EDFBE016F5F9B
:1010D0007F4F8091990290919A02DBD9CE010196BF
:1010E00083DAE0919B02F0919C02808D882369F065
:1010F00040E067E08091990290919A02A2DA66E25C
:101100008091990290919A02A8D92A960FB6F894E4
:10111000DEBF0FBECDBFDF91CF911F910F91FF902A
:10112000EF9008951F920F920FB60F9211242F93F4
:101130003F934F935F936F937F938F939F93AF935F
:10114000BF93EF93FF938FE39FE10197F1F700C007
:10115000000080919502909196025FDA811103C0A0
:1011600081E080939402809192029091930255DAEB
:10117000811103C081E080939102FF91EF91BF91B3
:10118000AF919F918F917F916F915F914F913F911F
:101190002F910F900FBE0F901F9018951F920F92D6
:1011A0000FB60F9211242F933F938F939F93AF937A
:1011B000BF9380918D0290918E02A0918F02B09189
:1011C00090023091A10223E0230F2D3720F40196E5
:1011D000A11DB11D05C026E8230F0296A11DB11D5A
:1011E0002093A10280938D0290938E02A0938F0290
:1011F000B093900280919D0290919E02A0919F02D7
:10120000B091A0020196A11DB11D80939D02909303
:101210009E02A0939F02B093A002BF91AF919F91B5
:101220008F913F912F910F900FBE0F901F901895A7
:101230001F920F920FB60F9211241F932F933F937B
:101240004F935F936F937F938F939F93AF93BF93CE
:10125000CF93DF93EF93FF938FE891E00197F1F73E
:1012600000C00000C0918B02D0918C0288819981CE
:10127000D4D9182F8A819B81D0D99C81181302C0A0
:10128000915001C09F5F9C838C818F3F11F48AE84D
:1012900003C0811102C086E78C83FF91EF91DF913B
:1012A000CF91BF91AF919F918F917F916F915F91FE
:1012B0004F913F912F911F910F900FBE0F901F9054
:1012C0001895CF93DF93CDB7DEB7CA5ED1090FB6BD
:1012D000F894DEBF0FBECDBF8E0109531F4FD8015A
:1012E00013961C921E9212978CE391E011969C9398
:1012F0008E9315961C921E9214978AE016968C93E4
:10130000169785E117968C9317979BE018969C93F8
:1013100018979DE019969C93199790E11A969C93C3
:101320001A979CE01B969C931B9791E11C969C93AB
:101330001C971D968C931D971E968C931E971F9637
:101340008C931F9750968C93509752961C921E9296
:101350005197F801399698012F5E3F4F8191853161
:1013600009F006C460E0C80106960E941C0160E016
:10137000C80108960E941C01F80184819581892B7F
:1013800011F4138A02C080E1838BCE0186519F4FF6
:10139000FC011082319727E12083CB51DF4F198266
:1013A0001882C55ED04020E8CC51DF4F2883C45E50
:1013B000D040C052DF4F99838883C05ED040CE5169
:1013C000DF4FF983E883C25ED0400E94EE00CE5129
:1013D000DF4F88819981C25ED0400E94EE00C052EA
:1013E000DF4F88819981C05ED0400E947D0080EEF1
:1013F00090E08C0F9D1F90938C0280938B025E0176
:1014000098EEA90EB11C85E1D5018C93C5010E940F
:10141000EE00C5010E947D006E01B7EECB0ED11C1F
:1014200086E1F6018083C6010E94EE00C6010E949B
:101430007D003898409880E480937C0080917C0007
:101440008B7F80937C0080917C008D7F80937C00DB
:1014500080917C008E7F80937C0080917A008460F4
:1014600080937A0080917A00826080937A008091E4
:101470007A00816080937A0080917A0080688093FE
:101480007A0080E090E00097D1F00197E9F4809134
:101490007A00806280937A0080917B008B7F8093BA
:1014A0007B0080917B008D7F80937B0080917B000F
:1014B0008E7F80937B0080917A00806403C080914E
:1014C0007A008F7D80937A00DE01A858BF4F82E0BA
:1014D0008D938CE0E0E1F1E001900D928A95E1F7C7
:1014E00080E1ECE1F1E0A8E7B0E0AC0FBD1F1D9694
:1014F00001900D928A95E1F7CA56DF4F1882C659BE
:10150000D0407E01F1EAEF0EF11CD70150961C92FB
:10151000509751961C92519753961C921E92529737
:101520005A961C921E925997E1E0F0E05C96FC936B
:10153000EE935B975D961C925D9740E050E06AE702
:1015400073E45E964D935D936D937C93919724E63F
:1015500030E093963C932E93929780E991E0959694
:101560009C938E93949755961C921E9254975796DF
:10157000FC93EE93569758961C92F7014083518343
:101580006283738335872487978786878FB7F8941C
:1015900040918D0250918E0260918F027091900265
:1015A0008FBF80E090E4ACE1B6E4C756DF4F88839C
:1015B0009983AA83BB83C959D0408AE0CA56DF4FBA
:1015C0008883C659D04081E0CB56DF4F8883C55908
:1015D000D040ED966EAD7FADED9780E496E076D489
:1015E000C956DF4F79836883C759D040E9968FADDC
:1015F000E9979BEE980F923008F43FC0813049F490
:1016000080918000806880938000809180008F7B33
:101610000AC0823091F580918000806280938000C2
:10162000809180008F7E80938000809180008E7FEB
:101630008093800080918000826080938000809100
:101640008100886080938100809181008061809317
:101650008100C956DF4F88819981C759D040909346
:1016600087008093860090918100CB56DF4F888160
:10167000C559D040892B80938100CE0188589F4F57
:101680000E94C000FA82E9821C830B838CE891E0FF
:101690009E838D8380E891E098878F8384E491E036
:1016A0009A87898760E472E0CE010B960E94F90266
:1016B000198A86E0ECE2F1E0DE01529601900D928B
:1016C0008A95E1F765E472E0CE0148960E94F9023E
:1016D0006AE472E0CE014E960E94F9026FE472E075
:1016E000CE0184960E94F90280E591E09BA78AA72B
:1016F0006FE472E0CE018C960E94F9021AAA86E08D
:10170000E2E3F1E0DE01D39601900D928A95E1F7D4
:1017100064E572E0CE01C9960E94F9026AE572E0C2
:10172000CE01CF960E94F90262E672E0CE018B5B99
:101730009F4F0E94F90284E791E02D969FAF8EAFF4
:101740002D9788E691E061969FAF8EAF61978CE50B
:1017500091E065969FAF8EAF659767961FAE1EAE00
:10176000679760E672E0CE01895A9F4F0E94F902A6
:101770006E961FAE6E97A0961FAE1EAEA09781E02C
:1017800090E0A2969FAF8EAFA29767E672E0CE017F
:101790008E599F4F0E94F9026CE672E0CE01885983
:1017A0009F4F0E94F90280EE90E08C0F9D1FE09603
:1017B0009FAF8EAFE097B0929602A0929502D09222
:1017C0009302C092920289819A8190939C028093A5
:1017D0009B020B811C8110939A0200939902D801FD
:1017E00053968C915397886053968C93539782E0CD
:1017F00057968C93579758961C92BFEFE0E7F2E00C
:10180000B150E040F040E1F700C0000060E0C801E6
:1018100006960E941C0160E0C80108960E941C0107
:10182000C8010796D80117962C91253109F0AFC150
:10183000F801638964FD23C063E0C8010E94F301DD
:101840008FE496E40197F1F700C0000063E0C8015F
:101850000E94F301AFE4B6E41197F1F700C0000075
:1018600063E0C8010E94F301E7E5F2E03197F1F788
:1018700000C0000062E0C8010E94F3011EC0606267
:10188000C8010E942B028FE496E40197F1F700C093
:101890000000D80153966C916062C8010E942B022F
:1018A000E7E5F2E03197F1F700C00000D801539668
:1018B0006C916062C8010E942B02F801638960622A
:1018C000C8010E942B0284E0D80154968C936CE0EE
:1018D000C8010E942B02C8010E944E0382E0F80159
:1018E000858B66E0C8010E942B028091990290913D
:1018F0009A020E944E0340E060E08091990290912C
:101900009A020E942103CE010596E2969FAF8EAF08
:10191000E2971092980210929702ED81FE81048066
:10192000F581E02D099502E010E094E0C92ED12C5C
:10193000AA24A394B12C33E0832E912C80E8382E76
:10194000FFEF22E587E0F15020408040E1F700C042
:10195000000080E090E0892B09F449C06091780094
:101960007091790080E090E065D12AEF3EE74AE28D
:101970005FE3C1D126E636E648E153E4BBD2D701A6
:1019800014966D937D938D939C93179718964D9015
:101990005D906D907C901B9720E030E0A901C30121
:1019A000B20144D1882369F18091800080628093E4
:1019B0008000809180008F7E80938000C956DF4F29
:1019C00068817981C759D04080E090E033D19B0194
:1019D000AC01C301B2018FD120E030E048EC52E409
:1019E000EED255D370938B0060938A0019C080911A
:1019F0007A00806480937A0080917A0086FDFCCF23
:101A0000ADCF809180008F7D809380008091800099
:101A10008F7E80938000CE0188589F4F0E94C00027
:101A2000A981BA81E096EEADFFADE0978481348262
:101A30008A3818F09682858211C0813818F0B682F3
:101A4000A5820CC0873718F4D682C58207C087FDEF
:101A500003C01683058302C0168215828581968194
:101A600001978430910540F4FC01EC56FE4F8081D3
:101A7000082E000C990B02C080E090E053969C93D6
:101A80008E9352978091940250968C9350978091A8
:101A9000910251968C93109294021092910220918F
:101AA0008A02CE010196820F911D820F911DFC01C9
:101AB000E159FF4F408051804114510409F440CF57
:101AC0001092980210929702D201ED91FC91019030
:101AD000F081E02DC2010995D201ED91FC910280C7
:101AE000F381E02DC20109958091970290919802AF
:101AF00081309105D9F0029709F020CF20918A0218
:101B00008FEF820F80938A02CE010196820F911D82
:101B1000820F911DFC01E159FF4F80819181DC0111
:101B2000ED91FC910680F781E02D55C08091000178
:101B3000909101018330910589F144F4009709F4F3
:101B4000FDCE019741F5CE0109962AC08530910559
:101B500059F034F00697F9F4CE018D5A9F4F20C00A
:101B6000CE01855B9F4F1CC0CE01815B9F4F18C08B
:101B7000D80151968D919C915297019652969C93C3
:101B80008E935197E217F30709F0E8CBEBCB60E0B7
:101B90000E941C014DCECE01079602C0CE018A964E
:101BA00040918A024F5F40938A029E012F5F3F4F10
:101BB000240F311D240F311DF901E159FF4F91838D
:101BC00080831092980210929702DC01ED91FC91B3
:101BD0000480F581E02D0995B1CEBB27FB01552787
:101BE000AA27880F991FAA1FA41710F0A41B83957A
:101BF0005051B9F7A05DAA3308F0A95DA1930097F1
:101C000079F7B111B1931192CB0100C0DC01FC0155
:101C1000672F71917723E1F7329704C07C916D9320
:101C200070836291AE17BF07C8F3089540D008F4DF
:101C300081E00895E89409C097FB3EF49095809563
:101C4000709561957F4F8F4F9F4F9923A9F0F92F82
:101C500096E9BB279395F695879577956795B79500
:101C6000F111F8CFFAF4BB0F11F460FF1BC06F5FE6
:101C70007F4F8F4F9F4F16C0882311F096E911C0F8
:101C8000772321F09EE8872F762F05C0662371F019
:101C900096E8862F70E060E02AF09A95660F771F2D
:101CA000881FDAF7880F9695879597F90895990F09
:101CB0000008550FAA0BE0E8FEEF16161706E80716
:101CC000F907C0F012161306E407F50798F0621B37
:101CD000730B840B950B39F40A2661F0232B242B0C
:101CE000252B21F408950A2609F4A140A6958FEF2B
:101CF000811D811D08950BD078C069D028F06ED069
:101D000018F0952309F05AC05FC01124A2C07ED0FC
:101D1000A0F3959FD1F3950F50E0551F629FF001FE
:101D2000729FBB27F00DB11D639FAA27F00DB11D57
:101D3000AA1F649F6627B00DA11D661F829F2227E0
:101D4000B00DA11D621F739FB00DA11D621F839F67
:101D5000A00D611D221F749F3327A00D611D231F3D
:101D6000849F600D211D822F762F6A2F11249F578B
:101D700050408AF0E1F088234AF0EE0FFF1FBB1FAE
:101D8000661F771F881F91505040A9F79E3F51054D
:101D900070F014C05EC05F3FECF3983EDCF38695B4
:101DA00077956795B795F795E7959F5FC1F7FE2BF8
:101DB000880F911D9695879597F9089597F99F67D4
:101DC00080E870E060E008959FEF80EC08950024C3
:101DD0000A941616170618060906089500240A9490
:101DE00012161306140605060895092E0394000C16
:101DF00011F4882352F0BB0F40F4BF2B11F460FFA5
:101E000004C06F5F7F4F8F4F9F4F089557FD9058CD
:101E1000440F551F59F05F3F71F04795880F97FBAE
:101E2000991F61F09F3F79F0879508951216130668
:101E30001406551FF2CF4695F1DF08C01616170697
:101E40001806991FF1CF86957105610508940895CC
:101E5000E894BB2766277727CB0197F908952F923F
:101E60003F924F925F926F927F928F929F92AF922A
:101E7000BF92CF92DF92EF92FF920F931F93CF9377
:101E8000DF93CDB7DEB7CA1BDB0B0FB6F894DEBF0E
:101E90000FBECDBF09942A88398848885F846E8434
:101EA0007D848C849B84AA84B984C884DF80EE807E
:101EB000FD800C811B81AA81B981CE0FD11D0FB687
:101EC000F894DEBF0FBECDBFED010895AA1BBB1B6A
:101ED00051E107C0AA1FBB1FA617B70710F0A61B2A
:101EE000B70B881F991F5A95A9F780959095BC014B
:101EF000CD0108955058BB27AA270ED076CF67DFB3
:101F000030F06CDF20F031F49F3F11F41EF45CCF11
:101F10000EF4E095E7FB52CFE92F78DF80F3BA1794
:101F2000620773078407950718F071F49EF590CF48
:101F30000EF4E0950B2EBA2FA02D0B01B9019001E4
:101F40000C01CA01A0011124FF27591B99F0593F28
:101F500050F4503E68F11A16F040A22F232F342F70
:101F60004427585FF3CF469537952795A795F040BE
:101F70005395C9F77EF41F16BA0B620B730B840BD3
:101F8000BAF09150A1F0FF0FBB1F661F771F881F8B
:101F9000C2F70EC0BA0F621F731F841F48F48795E3
:101FA00077956795B795F7959E3F08F0B3CF9395D2
:101FB000880F08F09927EE0F9795879508950CD014
:101FC00014CF0CDF40F003DF30F021F45F3F19F055
:101FD000F5CE51113ECFF8CE19DF98F39923C9F30E
:101FE0005523B1F3951B550BBB27AA27621773071F
:101FF000840738F09F5F5F4F220F331F441FAA1FD3
:10200000A9F333D00E2E3AF0E0E830D09150504092
:10201000E695001CCAF729D0FE2F27D0660F771F40
:10202000881FBB1F261737074807AB07B0E809F022
:10203000BB0B802DBF01FF2793585F4F2AF09E3FB7
:10204000510568F0BBCE05CF5F3FECF3983EDCF363
:10205000869577956795B795F7959F5FC9F7880F30
:10206000911D9695879597F90895E1E0660F771F82
:10207000881FBB1F621773078407BA0720F0621B13
:10208000730B840BBA0BEE1F88F7E0950895C6DE3C
:1020900088F09F5790F0B92F9927B751A0F0D1F051
:1020A000660F771F881F991F1AF0BA95C9F712C0DB
:1020B000B13081F0CDDEB1E00895CACE672F782F20
:1020C0008827B85F39F0B93FCCF386957795679547
:1020D000B395D9F73EF490958095709561957F4FB3
:1020E0008F4F9F4F0895E3DD08F48FEF0895CF934E
:1020F000DF938230910510F482E090E0E091A40239
:10210000F091A50220E030E0C0E0D0E0309711F17E
:102110004081518148175907C0F04817590761F4A9
:1021200082819381209719F09B838A832BC090939F
:10213000A5028093A40226C02115310519F042178B
:10214000530718F49A01BE01DF01EF010280F38109
:10215000E02DDCCF2115310509F1281B390B243086
:10216000310590F412968D919C911397611571052C
:1021700021F0FB019383828304C09093A502809396
:10218000A402FD01329644C0FD01E20FF31F8193CA
:102190009193225031092D933C933AC02091A20291
:1021A0003091A302232B41F42091040130910501C9
:1021B0003093A3022093A2022091020130910301E7
:1021C0002115310541F42DB73EB7409106015091DC
:1021D0000701241B350BE091A202F091A302E21744
:1021E000F307A0F42E1B3F0B2817390778F0AC013A
:1021F0004E5F5F4F2417350748F04E0F5F1F509317
:10220000A3024093A2028193919302C0E0E0F0E028
:10221000CF01DF91CF9108950F931F93CF93DF9359
:10222000009709F48CC0FC0132971382128200914E
:10223000A4021091A5020115110581F420813181BC
:10224000820F931F2091A2023091A3022817390711
:1022500079F5F093A302E093A20271C0D80140E0A7
:1022600050E0AE17BF0750F412962D913C91139792
:10227000AD012115310509F1D901F3CF9D01DA0135
:102280003383228360817181860F971F82179307A2
:1022900069F4EC0128813981260F371F2E5F3F4FEB
:1022A000318320838A819B8193838283452B29F408
:1022B000F093A502E093A40242C01396FC93EE9320
:1022C0001297ED01499159919E01240F351FE21794
:1022D000F30771F480819181840F951F0296119606
:1022E0009C938E938281938113969C938E931297E5
:1022F000E0E0F0E0D80112968D919C911397009741
:1023000019F0F8018C01F6CF8D919C9198012E5F08
:102310003F4F820F931F2091A2023091A3022817F2
:10232000390769F4309729F41092A5021092A4029B
:1023300002C0138212821093A3020093A202DF91C3
:10234000CF911F910F910895A0E0B0E0E9EAF1E18B
:102350008ACDEC01009719F4CB01C9DEB4C0FC01B1
:10236000E60FF71F9C0122503109E217F30708F42A
:10237000A8C0D9010D911C91119706171707A8F055
:102380000530110508F49BC0C8010497861797070C
:1023900008F495C002501109061B170B0193119305
:1023A0006D937C93CF0138DF8AC05B01A01AB10A1C
:1023B0004C01800E911EA091A402B091A50240E0B4
:1023C00050E0E12CF12C109709F44AC0A815B9058A
:1023D000D1F56D907C901197630182E0C80ED11CFD
:1023E000CA14DB0480F1A3014A195B096A0182E087
:1023F000C80ED11C1296BC9012971396AC91B5E002
:10240000CB16D10440F0B282A38351834083D9011B
:102410006D937C930AC00E5F1F4FC301800F911F05
:10242000F90191838083EB2DFA2FE114F10431F04F
:10243000D7011396FC93EE93129741C0F093A50237
:10244000E093A4023CC08D919C91119748175907C5
:1024500008F4AC017D0112960D90BC91A02DB3CF74
:102460008091A2029091A30288159905E1F4461784
:102470005707C8F48091020190910301009741F43D
:102480008DB79EB74091060150910701841B950BB3
:10249000E817F907B0F4F093A302E093A202F90160
:1024A000718360830CC0CB0122DE7C01009749F070
:1024B000A801BE010CD0CE01AFDEC70104C0CE0121
:1024C00002C080E090E0CDB7DEB7EEE0E8CCFB01E3
:1024D000DC0102C001900D9241505040D8F70895A0
:1024E000FB01DC0101900D920020E1F70895F894C2
:0224F000FFCF1C
:1024F20002000000A6028000000040001400540008
:102502000100010008004000000100040100010078
:1025120008002000400080000001000402000700C3
:10252200030004000500060000000000260252001D
:10253200000000006E041506670466040000000037
:102542002704930520041F040000000062032B05EA
:102552005803570300000000AD039706A303A2032C
:1025620000000000EC032607E203E1030000000084
:10257200AB04FF07AA04A9040000000024052305F8
:102582001605150501FF0AF6230025002400002385
:102592000025002400012300250024000223002539
:1025A2000024000323002500240004230025002426
:1025B200000523002500240006230025002400072F
:1025C20026002800270000260028002700012600F8
:1025D20028002700022600280027000326002800E2
:1025E20027000426002800270005260028002700CF
:1025F200062600280027000729002B002A000029B0
:10260200002B002A000129002B002A000229002B9E
:10261200002A000329002B002A000429002B002A8B
:10262200000529002B002A000629002B002A00079A
:102632004D454E55004D41494E0043414C20004FFF
:10264200505453004D494E5F54004D41585F540061
:10265200545F554E49540043454C5300464148523D
:10266200004D41585F54454D50004D494E5F544511
:0A2672004D5000533A004D3A0000AD
:00000001FF
