:1000000033C000004EC000004CC00000D6C7000046
:1000100048C0000046C0000044C0000042C00000CC
:1000200040C000003EC000003CC000003AC00000DC
:1000300038C0000036C0000034C0000032C00000EC
:1000400030C000002EC000002CC000002AC00000FC
:1000500028C0000026C0000024C0000022C000000C
:1000600020C000001EC0000011241FBECFEFD8E04A
:10007000DEBFCDBF21E0A0EDB1E001C01D92A83DE3
:10008000B207E1F711E0A0E0B1E0ECE7F4E202C072
:1000900005900D92A03DB107D9F70E94460A0C9435
:1000A0003C12AECFCF92DF92FF920F931F93CF936C
:1000B000DF936C01EC0188859985892B09F458C080
:1000C00070E0D60120E030E041E050E032C087E04F
:1000D000E89FF0011124EE5DFE4F02811381E801DB
:1000E0009881EA01068002C0CC0FDD1F0A94E2F776
:1000F0008C2F80958923F8018083ED9187E0E89F1C
:10010000F0011124EE5DFE4F04811581E801F880B5
:10011000CA01068002C0880F991F0A94E2F78F294E
:1001200088832F5F3F4FF601808591852817390717
:10013000F8F4CB01022E02C0959587950A94E2F758
:10014000EC9180FFC4CFD7E0ED9FF0011124EF01C7
:10015000CE5DDE4F0A811B81F801F080CA010E805E
:1001600002C0880F991F0A94E2F78F298083C5CFB8
:10017000C601DF91CF911F910F91FF90DF90CF903B
:100180000895CF93DF93DC01EC9187E0E89FF001C5
:100190001124EE5DFE4FC481D581488121E030E01D
:1001A000B901068002C0660F771F0A94E2F7962F06
:1001B000909594239883EC9187E0E89FF0011124B7
:1001C000EE5DFE4FA281B3818C91068002C0220FAA
:1001D000331F0A94E2F7282B2C93DF91CF910895D7
:1001E000EF92FF920F931F93CF93DF93CDB7DEB7BC
:1001F00028970FB6F894DEBF0FBECDBF8C0161E02B
:100200008091D0019091D10126D58FE39FE1019794
:10021000F1F700C000008091D0019091D10128E059
:10022000E6E0F1E0DE01119601900D922A95E1F7EA
:10023000E1E0DC0157962C912111E0E0E195F0E03E
:10024000EE0FFF1F21E030E02C0F3D1FE20FF31FE8
:100250006081606800D5D8011496ED90FC901597E8
:100260008091D0019091D101DC01ED91FC9102804F
:10027000F381E02D42E050E06AEC71E00995D8018D
:100280001296ED91FC911397408151819701B8012D
:10029000CE0101960AD78091D0019091D101DC0165
:1002A000ED91FC914D815E8169817A810280F381BB
:1002B000E02D099589819A810E94D1108091D00109
:1002C0009091D10128E0E6E0F1E0DE011196019085
:1002D0000D922A95E1F7DC015796EC91E23008F097
:1002E0004BC0E150F0E0EE0FFF1F21E030E02C0F9B
:1002F0003D1FE20FF31F60816068ADD4D8011496F2
:10030000ED90FC9015978091D0019091D101DC0186
:10031000ED91FC910280F381E02D42E050E06DEC24
:1003200071E00995D801ED91FC91408151819701CF
:10033000B801CE010196B9D68091D0019091D1013A
:10034000DC01ED91FC914D815E8169817A810280B1
:10035000F381E02D099589819A810E94D110289618
:100360000FB6F894DEBF0FBECDBFDF91CF911F91C6
:100370000F91FF90EF900895E1E0F0E0B4CFCF93BC
:10038000DF93FC01A08587E0A89FD0011124AE5D1A
:10039000BE4F1296CD91DC911397988121E030E009
:1003A000A90116960C9002C0440F551F0A94E2F75B
:1003B000842F809589238883A08597E0A99FD00109
:1003C0001124AE5DBE4F1496CD91DC9115974881F6
:1003D000C90116960C9002C0880F991F0A94E2F783
:1003E000842B888385E08A95F1F70000A08597E04B
:1003F000A99FD0011124AE5DBE4F1296CD91DC9124
:1004000013974881C90116960C9002C0880F991F56
:100410000A94E2F7842B8883A08587E0A89FD00107
:100420001124AE5DBE4F1496CD91DC911597488195
:10043000C90116960C9002C0880F991F0A94E2F722
:10044000842B888395E09A95F1F70000A08587E0DA
:10045000A89FD0011124AE5DBE4F1296CD91DC91C4
:1004600013979881A90116960C9002C0440F551F4E
:100470000A94E2F7842F809589238883E08597E0AA
:10048000E99FF0011124EE5DFE4FA481B5818C91AE
:10049000068002C0220F331F0A94E2F7282B2C9308
:1004A0008FE891E00197F1F700C00000DF91CF9154
:1004B00008952F923F924F925F926F927F928F9208
:1004C0009F92AF92BF92CF92DF92EF92FF920F93E3
:1004D0001F93CF93DF934115510509F4D7C13A011A
:1004E0008C017B01C12CD12CC1E0D0E04C0129E072
:1004F000820E911CD801ED91FC910190F081E02DCC
:10050000D7016D917D01B4E0E934FB0709F0B8C172
:10051000D8011696EC91B7E0EB9FF0011124EE5D47
:10052000FE4FA281B3812C91CE01068002C0880FBC
:10053000991F0A94E2F7822B8C93D8011696EC91BE
:10054000B7E0EB9FF0011124EE5DFE4FA481B58171
:100550002C91CE01068002C0880F991F0A94E2F701
:10056000822B8C93D8011796EC91E53149F127E065
:10057000E29FF0011124EE5DFE4FA281B3819C91B8
:100580009E01068002C0220F331F0A94E2F7822FD9
:10059000809589238C93D8011796EC91B7E0EB9F57
:1005A000F0011124EE5DFE4FA481B5812C91CE01A6
:1005B000068002C0880F991F0A94E2F7822B8C9361
:1005C000F801838984FDF6C0A62EB12CC50195954E
:1005D0008795959587959595879595958795218983
:1005E0003289232B09F461C0D40120E030E03AC005
:1005F00047E0E49FF0011124BF016E5D7E4FFB01D7
:1006000042815381FA0150801E01FB01068002C025
:10061000220C331C0A94E2F7B10160956521FA01BE
:100620006083ED9147E0E49FF0011124BF016E5D0E
:100630007E4FFB0144815581FA0150801E01FB0170
:10064000068002C0220C331C0A94E2F7B10165292E
:10065000FA0160832F5F3F4FF801418952892417C7
:10066000350718F5AC01022E02C0559547950A943E
:10067000E2F7EC9140FFBCCF47E0E49FF00111248A
:10068000BF016E5D7E4FFB0142815381FA015080B4
:100690001E01FB01068002C0220C331C0A94E2F703
:1006A000B1016529FA016083BCCFC80168DEF80199
:1006B00081899289892B09F460C0D40180E090E09F
:1006C00039C027E0E29FF0011124AF014E5D5E4F7B
:1006D000FA0122813381F90160811E01FA0106804D
:1006E00002C0220C331C0A94E2F7A1014095462374
:1006F000F9014083ED9127E0E29FF0011124AF0161
:100700004E5D5E4FFA0124813581F90160811E0141
:10071000FA01068002C0220C331C0A94E2F7A10100
:10072000462BF90140830196F8012189328982170D
:10073000930718F59501082E02C0359527950A9460
:10074000E2F7EC9120FFBDCF27E0E29FF0011124FA
:10075000AF014E5D5E4FFA0122813381F901608164
:100760001E01FA01068002C0220C331C0A94E2F733
:10077000A101462BF9014083BDCFC80100DEFFEF88
:10078000CF1ADF0A6C147D0409F0B4CEC601DF91E4
:10079000CF911F910F91FF90EF90DF90CF90BF907E
:1007A000AF909F908F907F906F905F904F903F9011
:1007B0002F90089581899289892BF9F270E0D401F4
:1007C00080E090E03AC027E0E29FF0011124AF0101
:1007D0004E5D5E4FFA0122813381F901B0801E0126
:1007E000FA01068002C0220C331C0A94E2F7A10130
:1007F00040954B21F9014083ED9127E0E29FF00104
:100800001124AF014E5D5E4FFA0124813581F9015B
:10081000B0801E01FA01068002C0220C331C0A942B
:10082000E2F7A1014B29F90140830196F8012189E2
:1008300032898217930708F0A0CF9B01082E02C0CF
:10084000359527950A94E2F7EC9120FFBCCF27E07D
:10085000E29FF0011124AF014E5D5E4FFA0122814B
:100860003381F901B0801E01FA01068002C0220C1A
:10087000331C0A94E2F7A1014B29F9014083BCCF54
:10088000C8010995892B09F07ACF80CFC12CD12CD2
:100890007DCFAF92BF92CF92DF92EF92FF920F93F4
:1008A0001F93CF93DF93EC01EE8127E0E29FF001ED
:1008B0001124EE5DFE4FA281B3814C9181E090E066
:1008C0009C01068002C0220F331F0A94E2F7242BFA
:1008D0002C93EE8147E0E49FF0011124EE5DFE4F82
:1008E000A481B5814C919C01068002C0220F331F68
:1008F0000A94E2F7242B2C93EF81E53131F127E0C4
:10090000E29FF0011124EE5DFE4FA281B3813C9184
:10091000AC01068002C0440F551F0A94E2F7242F51
:10092000209523232C93EF8147E0E49FF0011124CD
:10093000EE5DFE4FA481B5812C91068002C0880F28
:10094000991F0A94E2F7822B8C938B8984FDEBC06C
:10095000062F10E0A8015595479555954795559553
:1009600047955595479589899A89892B09F463C0DC
:10097000DE01199680E090E021E030E039C067E0C8
:10098000E69FF0011124BF016E5D7E4F5B01FB010C
:10099000E280F380F70170816901F501068002C0F1
:1009A000CC0CDD1C0A94E2F76C2D60956723F701EF
:1009B0006083ED9167E0E69FF0011124BF016E5D59
:1009C0007E4FFB01E480F580F701D0805901FB01E7
:1009D000068002C0AA0CBB1C0A94E2F7B5016D297F
:1009E000F7016083019669897A898617970718F558
:1009F000BA01082E02C0759567950A94E2F7EC914A
:100A000060FFBDCF67E0E69FF0011124BF016E5D7E
:100A10007E4FFB01E280F380F701D0805901FB019A
:100A2000068002C0AA0CBB1C0A94E2F7B5016D292E
:100A3000F7016083BECFCE01A2DC89899A89892B18
:100A400009F462C0DE01199680E090E021E030E018
:100A500038C047E0E49FF0011124BF016E5D7E4F76
:100A6000FB01E280F380F70150815901FB01068010
:100A700002C0AA0CBB1C0A94E2F74A2D40954523FC
:100A8000F7014083ED9147E0E49FF0011124AF01AD
:100A90004E5D5E4FFA0164817581FB01F080590162
:100AA000FA01068002C0AA0CBB1C0A94E2F7A50159
:100AB0004F29FB014083019649895A89841795077C
:100AC00018F5A801082E02C0559547950A94E2F73B
:100AD000EC9140FFBECF47E0E49FF0011124AF014D
:100AE0004E5D5E4FFA0162817381FB01F080590116
:100AF000FA01068002C0AA0CBB1C0A94E2F7A50109
:100B00004F29FB014083BECFCE0139DC81E090E06C
:100B1000DF91CF911F910F91FF90EF90DF90CF90D9
:100B2000BF90AF90089589899A89892B69F370E005
:100B3000DE01199680E090E021E030E03AC047E025
:100B4000E49FF0011124AF014E5D5E4F6A01FA018E
:100B500002811381F80150817901F601068002C0FB
:100B6000EE0CFF1C0A94E2F74E2D40954523F80148
:100B70004083ED9147E0E49FF0011124AF014E5D09
:100B80005E4FFA0104811581F801F0805901FA01E4
:100B9000068002C0AA0CBB1C0A94E2F7A5014F29EB
:100BA000F8014083019649895A898417950708F00E
:100BB000ABCFAB01082E02C0559547950A94E2F7DA
:100BC000EC9140FFBCCF57E0E59FF0011124AF014D
:100BD0004E5D5E4FFA0102811381F801F0805901E8
:100BE000FA01068002C0AA0CBB1C0A94E2F7A50118
:100BF0004F29F8014083BDCFCF93DF93DC01EC9107
:100C000087E0E89FF0011124EE5DFE4FC281D381A1
:100C1000488121E030E0B901068002C0660F771FED
:100C20000A94E2F7962F909594239883EC9187E0AD
:100C3000E89FF0011124EE5DFE4FA481B5818C91F7
:100C4000068002C0220F331F0A94E2F7282B2C9350
:100C5000DF91CF910895AF92BF92CF92DF92EF9242
:100C6000FF920F931F93CF93DF93EC01EE8127E068
:100C7000E29FF0011124EE5DFE4FA281B3813C9111
:100C800081E090E0AC01068002C0440F551F0A9439
:100C9000E2F7242F209523232C93EE8147E0E49F55
:100CA000F0011124EE5DFE4FA481B5814C919C01B1
:100CB000068002C0220F331F0A94E2F7242B2C93E4
:100CC000EF81E53131F127E0E29FF0011124EE5D83
:100CD000FE4FA281B3813C91AC01068002C0440F5B
:100CE000551F0A94E2F7242F209523232C93EF819C
:100CF00047E0E49FF0011124EE5DFE4FA481B58131
:100D00002C91068002C0880F991F0A94E2F7822B6B
:100D10008C938B8984FDE8C0062F10E0A8015595BF
:100D20004795559547955595479555954795898983
:100D30009A89892B09F463C0DE01199680E090E05E
:100D400021E030E039C067E0E69FF0011124BF01E7
:100D50006E5D7E4F5B01FB01E280F380F7017081E5
:100D60006901F501068002C0CC0CDD1C0A94E2F793
:100D70006C2D60956723F7016083ED9167E0E69F36
:100D8000F0011124BF016E5D7E4FFB01E480F58010
:100D9000F701D0805901FB01068002C0AA0CBB1CE0
:100DA0000A94E2F7B5016D29F7016083019669891C
:100DB0007A898617970718F5BA01082E02C075952B
:100DC00067950A94E2F7EC9160FFBDCF67E0E69F7C
:100DD000F0011124BF016E5D7E4FFB01E280F380C4
:100DE000F701D0805901FB01068002C0AA0CBB1C90
:100DF0000A94E2F7B5016D29F7016083BECFCE01F9
:100E0000BEDA89899A89892B09F462C0DE011996B4
:100E100080E090E021E030E038C047E0E49FF0015E
:100E20001124BF016E5D7E4FFB01E280F380F7016C
:100E300050815901FB01068002C0AA0CBB1C0A9418
:100E4000E2F74A2D40954523F7014083ED9147E0B5
:100E5000E49FF0011124AF014E5D5E4FFA01648101
:100E60007581FB01F0805901FA01068002C0AA0CCD
:100E7000BB1C0A94E2F7A5014F29FB0140830196B0
:100E800049895A898417950718F5A801082E02C0C8
:100E9000559547950A94E2F7EC9140FFBECF47E0A5
:100EA000E49FF0011124AF014E5D5E4FFA016281B3
:100EB0007381FB01F0805901FA01068002C0AA0C7F
:100EC000BB1C0A94E2F7A5014F29FB014083BECF6A
:100ED000CE01DF91CF911F910F91FF90EF90DF90A6
:100EE000CF90BF90AF904BCA89899A89892B81F3A3
:100EF00070E0DE01199680E090E021E030E03AC039
:100F000047E0E49FF0011124AF014E5D5E4F6A019E
:100F1000FA0102811381F80150817901F6010680FE
:100F200002C0EE0CFF1C0A94E2F74E2D40954523BB
:100F3000F8014083ED9147E0E49FF0011124AF01F7
:100F40004E5D5E4FFA0104811581F801F080590170
:100F5000FA01068002C0AA0CBB1C0A94E2F7A501A4
:100F60004F29F8014083019649895A8984179507CA
:100F700008F0AECFAB01082E02C0559547950A94F4
:100F8000E2F7EC9140FFBCCF57E0E59FF001112460
:100F9000AF014E5D5E4FFA0102811381F801F080CE
:100FA0005901FA01068002C0AA0CBB1C0A94E2F7A0
:100FB000A5014F29F8014083BDCF1F920F920FB6B4
:100FC0000F9211242F933F934F935F938F939F938F
:100FD000AF93BF93CF93DF93EF93FF938FE891E0AD
:100FE0000197F1F700C00000A091D201B091D301A8
:100FF000ED91FC911197C08197E0C99FE001112408
:10100000CE5DDE4FE881F98120811296ED91FC9151
:101010001397E08187E0E89FF0011124AF014E5D56
:101020005E4FFA0180819181FC01808130E00E8069
:1010300002C0359527950A94E2F7217090E0FA01F5
:10104000068002C0959587950A94E2F7817028176B
:10105000F9F014968C9114978F5F14968C931497D3
:101060008F3FF9F0811103C086E714968C93FF91AE
:10107000EF91DF91CF91BF91AF919F918F915F9150
:101080004F913F912F910F900FBE0F901F90189589
:1010900014968C911497815014968C9314978F3FCB
:1010A00009F78AE814968C93E2CFAF92BF92CF9261
:1010B000DF92EF92FF920F931F93CF93DF93CDB701
:1010C000DEB727970FB6F894DEBF0FBECDBF8C01F9
:1010D0006A017901DC0111961C921E9213961C92F2
:1010E0001E92129715961C921E92149761E070E062
:1010F00080E090E00E946911F801009709F4AEC009
:10110000918380831382128215821482DC011C92E7
:10111000E114F10409F4B7C0EA94EF2809F08CC097
:101120009601220F331F220F331F220F331F2C0D66
:101130003D1DADECBCEC80D6969587959695879530
:101140004AE09E012F5F3F4F7901B9018096FBD4A1
:10115000F70101900020E9F73197EE19FF09D80156
:1011600014962D913C911597309709F007C16901AC
:10117000BFEFCB1ADB0A8FED89831A82F8018081D9
:101180009181009729F0428153814C155D05C8F487
:10119000B9016E5F7F4F0E946911009709F452C137
:1011A000D80111969C938E931396DC92CE9212974F
:1011B00014962D913C9115972115310511F4FC01E0
:1011C0001082B701820F931F0E943512D801159625
:1011D000DC92CE92149786E489831A825601BFEF7F
:1011E000AB1ABB0AF80180819181009729F0228116
:1011F00033812A153B05C0F4B6016E5F7F4F0E9414
:1012000069110097C9F0D80111969C938E9313969B
:10121000BC92AE9212971496CD90DC901597C114A3
:10122000D10411F4FC011082B7018C0D9D1D0E94A8
:101230003512F801B582A482C80127960FB6F8943A
:10124000DEBF0FBECDBFDF91CF911F910F91FF90F9
:10125000EF90DF90CF90BF90AF9008958081918103
:10126000009709F09ED7D80111961C921E921596F0
:101270001C921E92149713961C921E921297E114C0
:10128000F10409F049CF4AE0FE0131967F01BF0128
:10129000C60159D4F70101900020E9F73197EE1902
:1012A000FF09D80114962D913C911597309709F0BC
:1012B00094C06901BFEFCB1ADB0A8FED89831A82D4
:1012C000F80180819181009729F0428153814C156A
:1012D0005D05C0F4B9016E5F7F4FFBD7009709F43D
:1012E000ABC0D80111969C938E931396DC92CE924C
:1012F000129714962D913C9115972115310511F4F3
:10130000FC011082B701820F931F0E943512F80171
:10131000D582C48283E489831A825601BFEFAB1A57
:10132000BB0AF80180819181009729F022813381E5
:101330002A153B05C0F4B6016E5F7F4FCAD70097F0
:1013400009F47ACFD80111969C938E931396BC9290
:10135000AE9212971496CD90DC901597C114D104DB
:1013600011F4FC011082B7018C0D9D1D0E943512F5
:10137000D8011596BC92AE9214975ECF5F01A20E73
:10138000B31E8D919C911197009741F012964D914B
:101390005C9113974A155B0508F05FC06501EFEF9C
:1013A000CE1ADE0AB60195D7009709F465C0F80198
:1013B00091838083B382A2822481358121153105F6
:1013C00011F4DC011C92B701820F931F0E943512A9
:1013D000F801B582A4829501CECE5F01A20EB31EA4
:1013E0008D919C911197009739F012964D915C91D7
:1013F00013974A155B0560F56501FFEFCF1ADF0A09
:10140000B60167D7009771F1F80191838083B382A9
:10141000A282248135812115310511F4DC011C9251
:10142000B701820F931F0E943512D8011596BC9206
:10143000AE921497950141CFD8011496CD90DC90CF
:10144000159768CFD8011496CD90DC901597C3CE30
:101450006501FFEFCF1ADF0AE3CF6501BFEFCB1ABB
:10146000DB0AB1CFD80114962D913C9115976901F3
:10147000BFEFCB1ADB0A21CFD80114962D913C91F6
:1014800015976901BFEFCB1ADB0A75CECF93DF93B7
:10149000CDB7DEB7C855D1090FB6F894DEBF0FBE81
:1014A000CDBF5E0123E5A20EB11C8CE291E0D50117
:1014B0008D939C936E01B1E5CB0ED11C8EE591E02E
:1014C000F601918380831DA61CA68EE191E09BA767
:1014D0008AA71FA61EA68AE088AB85E189AB9BE0A0
:1014E0009AAB9DE09BAB30E13CAB9CE09DAB91E1C6
:1014F0009EAB8FAB88AF89AF8AAF81E090E044E0CC
:1015000050E05CAF4BAF4298E8A927E0E29FF001C2
:101510001124EE5DFE4FA481B5812C91AC010680B3
:1015200002C0440F551F0A94E2F7422B4C93EAA9DC
:10153000A7E0EA9FF0011124EE5DFE4FA281B38186
:101540002C91AC01068002C0440F551F0A94E2F7AB
:10155000409524232C93EAA9B7E0EB9FF0011124D6
:10156000EE5DFE4FA481B5812C91068002C0880FEC
:10157000991F0A94E2F7822B8C938EA59FA5892B45
:1015800009F4DFC23DAFFE01E85AFF4F10829E0111
:10159000295A3F4F87E1D9018C938E01065B1F4F7B
:1015A000D80116961C921E92159780E814968C937B
:1015B00014971196FC93EE9313963C932E931297E7
:1015C0002098E081B7E0EB9FF0011124EE5DFE4F23
:1015D000A281B3814C9181E090E09C01068002C021
:1015E000220F331F0A94E2F7242B2C93F801A281D7
:1015F000B381EC9127E0E29FF0011124AF014E5D31
:101600005E4FFA0164817581FB0120817C01FA0142
:10161000068002C0EE0CFF1C0A94E2F7A701409579
:101620002423FB012083EC9127E0E29FF0011124A9
:10163000EE5DFE4FA281B3814C919C01068002C0F9
:10164000220F331F0A94E2F7242B2C93D801ED913B
:10165000FC9178942081283008F462C2203108F48B
:101660004EC2283180F420916800246020936800E5
:1016700030916D002081205101C0880F2A95EAF732
:10168000832B80936D001093D3010093D20185E1E9
:1016900067968FAF679786E166968FAF6697CE01A4
:1016A0008A5A9F4F0E94C100CE018B5A9F4F0E94C1
:1016B000C1007E01BAE2EB0EF11CF092D101E09282
:1016C000D0018DAD88608DAF82E022968FAF2297DA
:1016D00023961FAE2397EFEFF0E722E0E150F040B2
:1016E0002040E1F700C00000CE01C09685DACE01AF
:1016F000C29682DA89A9853119F0CE01C1967CDAC9
:101700008DAD84FFC9C1682F6062C701A4DA8FE480
:1017100096E40197F1F700C000006DAD6062C7016B
:101720009ADAA7E5B2E01197F1F700C000006DADBD
:101730006062C70190DA6DAD6062C7018CDA84E047
:101740008EAF6CE0C70187DA61E0C70184DAEFE3AE
:10175000FFE13197F1F700C0000082E08FAF66E053
:10176000C70179DA61E08091D0019091D10173DAFB
:101770008FE39FE10197F1F700C000002091D001B5
:101780003091D10188E0E6E0F1E0DE0111960190B0
:101790000D928A95E1F791E0D90157968C918111CC
:1017A00090E0E92FE195F0E0EE0FFF1FEE24E394C7
:1017B000F12CEC0EFD1EEE0DFF1D60816068C9016D
:1017C0004ADA29961FAE1EAE29972A961FAE2A978F
:1017D0002596DFAECEAE25972796BFAEAEAE279745
:1017E0008CE0EEE0F1E0DE01129601900D928A9518
:1017F000E1F76C817D8180E496E02DD380918000BB
:10180000806280938000809180008F7E8093800032
:10181000809180008E7F8093800080918000826024
:101820008093800080918100886080938100809106
:1018300081008061809381007093870060938600AF
:10184000809181008160809381002A9A229A809100
:101850008000806280938000809180008F7E8093E2
:10186000800080E090E09CD11B012C0120E030E062
:1018700048E452E4F6D120E030E048EC52E464D38E
:10188000CBD370938B0060938A003898409880E4A3
:1018900080937C0080917C008B7F80937C00809182
:1018A0007C008D7F80937C0080917C008E7F809374
:1018B0007C0080917A00846080937A0080917A0025
:1018C000826080937A0080917A00816080937A00B0
:1018D00080917A00806880937A0080917A0080629B
:1018E00080937A0080917B008B7F80937B00809136
:1018F0007B008D7F80937B0080917B008E7F809327
:101900007B0080917A00806480937A00CE018D5BA9
:101910009F4F0E94F000C12CD12C58E4E52E52E4D8
:10192000F52E60E8762E73E0872E912C28C020E0FB
:1019300030E0A901C701B6012FD187FDA3C020E087
:1019400030E0A901C701B60127D1811153C08091B0
:1019500080008F7D80938000809180008F7E8093B7
:1019600080002A98229A8091780090917900F50160
:1019700091838083CE018D5B9F4F0E94F0002FEFFB
:1019800081EE94E0215080409040E1F700C00000DB
:10199000D80114968C91149714967C9214978A38D7
:1019A00008F042C0813808F04DC0873708F459C0AC
:1019B00087FD6CC0E2E0F0E0D8011696FC93EE9350
:1019C000159720E030E040E85FE3C701B60157D249
:1019D0006B017C0120E030E048EC52E4C701B60125
:1019E00047D318160CF0A3CFC12CD12C88ECE82ECD
:1019F00082E4F82E80918000806280938000809144
:101A000080008F7E80938000A2019101C701B60102
:101A100028D120E030E048EC52E496D2FDD2709319
:101A20008B0060938A009FCF16969C928E9215979A
:101A300020E030E040E251E4C701B60121D26B0161
:101A40007C01C8CF81E090E0F8019683858320E097
:101A500030E040E85FE3C701B60112D26B017C01C0
:101A6000B9CFE4E0F0E0D8011696FC93EE93159719
:101A700020E030E040E251E4C701B60100D26B0142
:101A80007C01A8CFC12CD12C760161CFD80116964C
:101A90001C921E9215979ECF63E0CE01C3960E94C2
:101AA0005200C7010E94BF018FE496E40197F1F74D
:101AB00000C0000063E0CE01C3960E945200C7013F
:101AC0000E94BF01AFE4B6E41197F1F700C0000037
:101AD00063E0CE01C3960E945200C7010E94BF017D
:101AE000E7E5F2E03197F1F700C0000062E0CE01D7
:101AF000C3960E945200C7010E94BF011CCE2091D4
:101B0000680022602093680030916C00208128508A
:101B100001C0880F2A95EAF7832B80936C00B3CD20
:101B20002091680021602093680020916B00008064
:101B300002C0880F991F0A94E2F7822B80936B00F2
:101B4000A2CD1DAE20CDBB27FB015527AA27880FAC
:101B5000991FAA1FA41710F0A41B83955051B9F721
:101B6000A05DAA3308F0A95DA193009779F7B111A0
:101B7000B1931192CB0100C0DC01FC01672F719180
:101B80007723E1F7329704C07C916D937083629163
:101B9000AE17BF07C8F3089540D008F481E0089558
:101BA000E89409C097FB3EF49095809570956195F7
:101BB0007F4F8F4F9F4F9923A9F0F92F96E9BB27AD
:101BC0009395F695879577956795B795F111F8CF29
:101BD000FAF4BB0F11F460FF1BC06F5F7F4F8F4F94
:101BE0009F4F16C0882311F096E911C0772321F08A
:101BF0009EE8872F762F05C0662371F096E8862F22
:101C000070E060E02AF09A95660F771F881FDAF778
:101C1000880F9695879597F90895990F0008550FA5
:101C2000AA0BE0E8FEEF16161706E807F907C0F062
:101C300012161306E407F50798F0621B730B840B6A
:101C4000950B39F40A2661F0232B242B252B21F444
:101C500008950A2609F4A140A6958FEF811D811DE4
:101C600008950BD078C069D028F06ED018F0952375
:101C700009F05AC05FC01124A2C07ED0A0F3959F86
:101C8000D1F3950F50E0551F629FF001729FBB2763
:101C9000F00DB11D639FAA27F00DB11DAA1F649F0F
:101CA0006627B00DA11D661F829F2227B00DA11DC2
:101CB000621F739FB00DA11D621F839FA00D611D48
:101CC000221F749F3327A00D611D231F849F600D69
:101CD000211D822F762F6A2F11249F5750408AF0A2
:101CE000E1F088234AF0EE0FFF1FBB1F661F771F2E
:101CF000881F91505040A9F79E3F510570F014C0C5
:101D00005EC05F3FECF3983EDCF386957795679570
:101D1000B795F795E7959F5FC1F7FE2B880F911D4B
:101D20009695879597F9089597F99F6780E870E0F1
:101D300060E008959FEF80EC089500240A94161641
:101D4000170618060906089500240A9412161306A9
:101D5000140605060895092E0394000C11F4882337
:101D600052F0BB0F40F4BF2B11F460FF04C06F5F53
:101D70007F4F8F4F9F4F089557FD9058440F551F29
:101D800059F05F3F71F04795880F97FB991F61F0FD
:101D90009F3F79F087950895121613061406551F74
:101DA000F2CF4695F1DF08C0161617061806991FE0
:101DB000F1CF86957105610508940895E894BB27D5
:101DC00066277727CB0197F908952F923F924F927C
:101DD0005F926F927F928F929F92AF92BF92CF92BB
:101DE000DF92EF92FF920F931F93CF93DF93CDB7C4
:101DF000DEB7CA1BDB0B0FB6F894DEBF0FBECDBF3C
:101E000009942A88398848885F846E847D848C840C
:101E10009B84AA84B984C884DF80EE80FD800C8115
:101E20001B81AA81B981CE0FD11D0FB6F894DEBFF8
:101E30000FBECDBFED010895A29FB001B39FC001B9
:101E4000A39F700D811D1124911DB29F700D811DE6
:101E50001124911D0895AA1BBB1B51E107C0AA1FA5
:101E6000BB1FA617B70710F0A61BB70B881F991F3B
:101E70005A95A9F780959095BC01CD0108955058C9
:101E8000BB27AA270ED067CF58DF30F05DDF20F0E8
:101E900031F49F3F11F41EF44DCF0EF4E095E7FBB3
:101EA00043CFE92F69DF80F3BA176207730784070E
:101EB000950718F071F49EF581CF0EF4E0950B2E86
:101EC000BA2FA02D0B01B90190010C01CA01A0018C
:101ED0001124FF27591B99F0593F50F4503E68F1E7
:101EE0001A16F040A22F232F342F4427585FF3CF28
:101EF000469537952795A795F0405395C9F77EF4F9
:101F00001F16BA0B620B730B840BBAF09150A1F041
:101F1000FF0FBB1F661F771F881FC2F70EC0BA0FC7
:101F2000621F731F841F48F4879577956795B7954F
:101F3000F7959E3F08F0B3CF9395880F08F0992747
:101F4000EE0F9795879508950CD005CFFDDE40F0F4
:101F5000F4DE30F021F45F3F19F0E6CE51112FCFBF
:101F6000E9CE0ADF98F39923C9F35523B1F3951B02
:101F7000550BBB27AA2762177307840738F09F5FAA
:101F80005F4F220F331F441FAA1FA9F333D00E2E19
:101F90003AF0E0E830D091505040E695001CCAF786
:101FA00029D0FE2F27D0660F771F881FBB1F26174B
:101FB00037074807AB07B0E809F0BB0B802DBF011E
:101FC000FF2793585F4F2AF09E3F510568F0ACCE33
:101FD000F6CE5F3FECF3983EDCF3869577956795F8
:101FE000B795F7959F5FC9F7880F911D96958795CF
:101FF00097F90895E1E0660F771F881FBB1F6217EE
:1020000073078407BA0720F0621B730B840BBA0BAB
:10201000EE1F88F7E0950895B7DE88F09F5790F09F
:10202000B92F9927B751A0F0D1F0660F771F881FFD
:10203000991F1AF0BA95C9F712C0B13081F0BEDE0F
:10204000B1E00895BBCE672F782F8827B85F39F0AD
:10205000B93FCCF3869577956795B395D9F73EF45C
:1020600090958095709561957F4F8F4F9F4F089504
:10207000D4DD08F48FEF0895CF93DF93823091057C
:1020800010F482E090E0E091D601F091D70120E0D9
:1020900030E0C0E0D0E0309711F140815181481725
:1020A0005907C0F04817590761F48281938120973E
:1020B00019F09B838A832BC09093D7018093D6011C
:1020C00026C02115310519F04217530718F49A015B
:1020D000BE01DF01EF010280F381E02DDCCF21158D
:1020E000310509F1281B390B2430310590F4129683
:1020F0008D919C9113976115710521F0FB019383DC
:10210000828304C09093D7018093D601FD0132965B
:1021100044C0FD01E20FF31F8193919322503109D6
:102120002D933C933AC02091D4013091D501232BBB
:1021300041F420910201309103013093D5012093A5
:10214000D40120910001309101012115310541F4A4
:102150002DB73EB74091040150910501241B350B6A
:10216000E091D401F091D501E217F307A0F42E1B02
:102170003F0B2817390778F0AC014E5F5F4F2417EB
:10218000350748F04E0F5F1F5093D5014093D4019F
:102190008193919302C0E0E0F0E0CF01DF91CF9115
:1021A00008950F931F93CF93DF93009709F48CC08A
:1021B000FC013297138212820091D6011091D7014F
:1021C0000115110581F420813181820F931F209127
:1021D000D4013091D5012817390779F5F093D5014D
:1021E000E093D40171C0D80140E050E0AE17BF07C2
:1021F00050F412962D913C911397AD0121153105A4
:1022000009F1D901F3CF9D01DA0133832283608183
:102210007181860F971F8217930769F4EC0128815B
:102220003981260F371F2E5F3F4F318320838A81EC
:102230009B8193838283452B29F4F093D701E0930C
:10224000D60142C01396FC93EE931297ED0149918B
:1022500059919E01240F351FE217F30771F4808115
:102260009181840F951F029611969C938E93828183
:10227000938113969C938E931297E0E0F0E0D8013F
:1022800012968D919C911397009719F0F8018C018B
:10229000F6CF8D919C9198012E5F3F4F820F931F37
:1022A0002091D4013091D5012817390769F430976E
:1022B00029F41092D7011092D60102C01382128223
:1022C0001093D5010093D401DF91CF911F910F910D
:1022D0000895A0E0B0E0EEE6F1E17BCDEC010097DF
:1022E00019F4CB01C9DEB4C0FC01E60FF71F9C0155
:1022F00022503109E217F30708F4A8C0D9010D9163
:102300001C91119706171707A8F00530110508F45E
:102310009BC0C80104978617970708F495C0025020
:102320001109061B170B019311936D937C93CF0139
:1023300038DF8AC05B01A01AB10A4C01800E911EE1
:10234000A091D601B091D70140E050E0E12CF12CF2
:10235000109709F44AC0A815B905D1F56D907C9085
:102360001197630182E0C80ED11CCA14DB0480F10E
:10237000A3014A195B096A0182E0C80ED11C1296BA
:10238000BC9012971396AC91B5E0CB16D10440F0F7
:10239000B282A38351834083D9016D937C930AC099
:1023A0000E5F1F4FC301800F911FF901918380833E
:1023B000EB2DFA2FE114F10431F0D7011396FC93C1
:1023C000EE93129741C0F093D701E093D6013CC041
:1023D0008D919C9111974817590708F4AC017D0124
:1023E00012960D90BC91A02DB3CF8091D401909105
:1023F000D50188159905E1F446175707C8F480916F
:10240000000190910101009741F48DB79EB7409172
:10241000040150910501841B950BE817F907B0F4EE
:10242000F093D501E093D401F901718360830CC06E
:10243000CB0122DE7C01009749F0A801BE010CD03F
:10244000CE01AFDEC70104C0CE0102C080E090E043
:10245000CDB7DEB7EEE0D9CCFB01DC0102C00190C4
:102460000D9241505040D8F70895FB01DC010190D6
:0C2470000D920020E1F70895F894FFCFD2
:10247C000000D8018000000040001400540001004E
:10248C0001000800400000010004000000004904A5
:10249C0059022300250024000023002500240001FC
:1024AC002300250024000223002500240003230020
:1024BC00250024000423002500240005230025000A
:1024CC0024000623002500240007260028002700EE
:1024DC0000260028002700012600280027000226DD
:1024EC0000280027000326002800270004260028C7
:1024FC0000270005260028002700062600280027B4
:10250C00000729002B002A000029002B002A0001BB
:10251C0029002B002A000229002B002A0003290085
:10252C002B002A000429002B002A000529002B006F
:10253C002A000629002B002A0007533A004D3A00C6
:00000001FF
