:1000000033C000004EC000004CC00000CAC7000052
:1000100048C0000046C0000044C0000042C00000CC
:1000200040C000003EC000003CC000003AC00000DC
:1000300038C0000036C0000034C0000032C00000EC
:1000400030C000002EC000002CC000002AC00000FC
:1000500028C0000026C0000024C0000022C000000C
:1000600020C000001EC0000011241FBECFEFD8E04A
:10007000DEBFCDBF21E0A4ECB1E001C01D92AC3CDD
:10008000B207E1F711E0A0E0B1E0ECE9FDE102C068
:1000900005900D92A43CB107D9F70E94310A0C9447
:1000A000CC0EAECFCF92DF92FF920F931F93CF93E0
:1000B000DF936C01EC0188859985892B09F458C080
:1000C00070E0D60120E030E041E050E032C087E04F
:1000D000E89FF0011124EA5EFE4F02811381E801DE
:1000E0009881EA01068002C0CC0FDD1F0A94E2F776
:1000F0008C2F80958923F8018083ED9187E0E89F1C
:10010000F0011124EA5EFE4F04811581E801F880B8
:10011000CA01068002C0880F991F0A94E2F78F294E
:1001200088832F5F3F4FF601808591852817390717
:10013000F8F4CB01022E02C0959587950A94E2F758
:10014000EC9180FFC4CFD7E0ED9FF0011124EF01C7
:10015000CA5EDE4F0A811B81F801F080CA010E8061
:1001600002C0880F991F0A94E2F78F298083C5CFB8
:10017000C601DF91CF911F910F91FF90DF90CF903B
:100180000895CF93DF93DC01EC9187E0E89FF001C5
:100190001124EA5EFE4FC481D581488121E030E020
:1001A000B901068002C0660F771F0A94E2F7962F06
:1001B000909594239883EC9187E0E89FF0011124B7
:1001C000EA5EFE4FA281B3818C91068002C0220FAD
:1001D000331F0A94E2F7282B2C93DF91CF910895D7
:1001E000EF92FF920F931F93CF93DF93CDB7DEB7BC
:1001F00028970FB6F894DEBF0FBECDBF8C0180915B
:10020000C4019091C50128E0E6E0F1E0DE0111961D
:1002100001900D922A95E1F7E1E0DC0157962C91CF
:100220002111E0E0E195F0E0EE0FFF1F21E030E06A
:100230002C0F3D1FE20FF31F6081606800D5D801CD
:100240001496ED90FC9015978091C4019091C50192
:10025000DC01ED91FC910280F381E02D42E050E061
:100260006EEB71E00995D8011296ED91FC91139710
:10027000408151819701B801CE0101960AD7809142
:10028000C4019091C501DC01ED91FC914D815E812D
:1002900069817A810280F381E02D099589819A81B3
:1002A0000E94610D8091C4019091C50128E0E6E0B3
:1002B000F1E0DE01119601900D922A95E1F7DC0143
:1002C0005796EC91E23008F04BC0E150F0E0EE0FB1
:1002D000FF1F21E030E02C0F3D1FE20FF31F608174
:1002E0006068ADD4D8011496ED90FC90159780917C
:1002F000C4019091C501DC01ED91FC910280F38174
:10030000E02D42E050E061EC71E00995D801ED91FB
:10031000FC91408151819701B801CE010196B9D677
:100320008091C4019091C501DC01ED91FC914D815A
:100330005E8169817A810280F381E02D099589814E
:100340009A810E94610D28960FB6F894DEBF0FBE09
:10035000CDBFDF91CF911F910F91FF90EF90089546
:10036000E1E0F0E0B4CFCF93DF93FC01A08587E01C
:10037000A89FD0011124AA5EBE4F1296CD91DC91A8
:100380001397988121E030E0A90116960C9002C0E5
:10039000440F551F0A94E2F7842F809589238883A0
:1003A000A08597E0A99FD0011124AA5EBE4F1496A4
:1003B000CD91DC9115974881C90116960C9002C029
:1003C000880F991F0A94E2F7842B888385E08A9529
:1003D000F1F70000A08597E0A99FD0011124AA5E43
:1003E000BE4F1296CD91DC9113974881C9011696A4
:1003F0000C9002C0880F991F0A94E2F7842B88831F
:10040000A08587E0A89FD0011124AA5EBE4F149654
:10041000CD91DC9115974881C90116960C9002C0C8
:10042000880F991F0A94E2F7842B888395E09A95A8
:10043000F1F70000A08587E0A89FD0011124AA5EF3
:10044000BE4F1296CD91DC9113979881A901169613
:100450000C9002C0440F551F0A94E2F7842F809538
:1004600089238883E08597E0E99FF0011124EA5E03
:10047000FE4FA481B5818C91068002C0220F331FEC
:100480000A94E2F7282B2C938FE891E00197F1F77B
:1004900000C00000DF91CF9108952F923F924F92BC
:1004A0005F926F927F928F929F92AF92BF92CF9204
:1004B000DF92EF92FF920F931F93CF93DF9341153B
:1004C000510509F4D7C13A018C017B01C12CD12C13
:1004D000C1E0D0E04C0129E0820E911CD801ED91E1
:1004E000FC910190F081E02DD7016D917D01B4E088
:1004F000ED33FB0709F0B8C1D8011696EC91B7E0CF
:10050000EB9FF0011124EA5EFE4FA281B3812C9192
:10051000CE01068002C0880F991F0A94E2F7822B51
:100520008C93D8011696EC91B7E0EB9FF001112463
:10053000EA5EFE4FA481B5812C91CE01068002C0F7
:10054000880F991F0A94E2F7822B8C93D801179693
:10055000EC91E53149F127E0E29FF0011124EA5ED8
:10056000FE4FA281B3819C919E01068002C0220FA2
:10057000331F0A94E2F7822F809589238C93D80148
:100580001796EC91B7E0EB9FF0011124EA5EFE4F65
:10059000A481B5812C91CE01068002C0880F991FDD
:1005A0000A94E2F7822B8C93F801838984FDF6C0CC
:1005B000A62EB12CC501959587959595879595950E
:1005C00087959595879521893289232B09F461C0F8
:1005D000D40120E030E03AC047E0E49FF00111246C
:1005E000BF016A5E7E4FFB0142815381FA01508058
:1005F0001E01FB01068002C0220C331C0A94E2F7A4
:10060000B10160956521FA016083ED9147E0E49FB7
:10061000F0011124BF016A5E7E4FFB0144815581C8
:10062000FA0150801E01FB01068002C0220C331C1F
:100630000A94E2F7B1016529FA0160832F5F3F4F09
:10064000F801418952892417350718F5AC01022EAB
:1006500002C0559547950A94E2F7EC9140FFBCCF54
:1006600047E0E49FF0011124BF016A5E7E4FFB0169
:1006700042815381FA0150801E01FB01068002C0B5
:10068000220C331C0A94E2F7B1016529FA01608358
:10069000BCCFC80168DEF80181899289892B09F4F1
:1006A00060C0D40180E090E039C027E0E29FF00113
:1006B0001124AF014A5E5E4FFA0122813381F901B4
:1006C00060811E01FA01068002C0220C331C0A94CC
:1006D000E2F7A10140954623F9014083ED9127E01F
:1006E000E29FF0011124AF014A5E5E4FFA012481BE
:1006F0003581F90160811E01FA01068002C0220CD9
:10070000331C0A94E2F7A101462BF90140830196BC
:10071000F801218932898217930718F59501082E6F
:1007200002C0359527950A94E2F7EC9120FFBDCFE2
:1007300027E0E29FF0011124AF014A5E5E4FFA010B
:1007400022813381F90160811E01FA01068002C015
:10075000220C331C0A94E2F7A101462BF9014083D5
:10076000BDCFC80100DEFFEFCF1ADF0A6C147D0495
:1007700009F0B4CEC601DF91CF911F910F91FF9088
:10078000EF90DF90CF90BF90AF909F908F907F9031
:100790006F905F904F903F902F900895818992893C
:1007A000892BF9F270E0D40180E090E03AC027E0B4
:1007B000E29FF0011124AF014A5E5E4FFA012281EF
:1007C0003381F901B0801E01FA01068002C0220CBB
:1007D000331C0A94E2F7A10140954B21F9014083B3
:1007E000ED9127E0E29FF0011124AF014A5E5E4FD8
:1007F000FA0124813581F901B0801E01FA010680D9
:1008000002C0220C331C0A94E2F7A1014B29F90122
:1008100040830196F801218932898217930708F0F5
:10082000A0CF9B01082E02C0359527950A94E2F7C8
:10083000EC9120FFBCCF27E0E29FF0011124AF0133
:100840004A5E5E4FFA0122813381F901B0801E01B8
:10085000FA01068002C0220C331C0A94E2F7A101BF
:100860004B29F9014083BCCFC8010995892B09F0B8
:100870007ACF80CFC12CD12C7DCFAF92BF92CF92B7
:10088000DF92EF92FF920F931F93CF93DF93EC01D0
:10089000EE8127E0E29FF0011124EA5EFE4FA28183
:1008A000B3814C9181E090E09C01068002C0220F50
:1008B000331F0A94E2F7242B2C93EE8147E0E49F48
:1008C000F0011124EA5EFE4FA481B5814C919C0198
:1008D000068002C0220F331F0A94E2F7242B2C93C8
:1008E000EF81E53131F127E0E29FF0011124EA5E6A
:1008F000FE4FA281B3813C91AC01068002C0440F3F
:10090000551F0A94E2F7242F209523232C93EF817F
:1009100047E0E49FF0011124EA5EFE4FA481B58117
:100920002C91068002C0880F991F0A94E2F7822B4F
:100930008C938B8984FDEBC0062F10E0A8015595A0
:100940004795559547955595479555954795898967
:100950009A89892B09F463C0DE01199680E090E042
:1009600021E030E039C067E0E69FF0011124BF01CB
:100970006A5E7E4F5B01FB01E280F380F7017081CC
:100980006901F501068002C0CC0CDD1C0A94E2F777
:100990006C2D60956723F7016083ED9167E0E69F1A
:1009A000F0011124BF016A5E7E4FFB01E480F580F7
:1009B000F701D0805901FB01068002C0AA0CBB1CC4
:1009C0000A94E2F7B5016D29F70160830196698900
:1009D0007A898617970718F5BA01082E02C075950F
:1009E00067950A94E2F7EC9160FFBDCF67E0E69F60
:1009F000F0011124BF016A5E7E4FFB01E280F380AB
:100A0000F701D0805901FB01068002C0AA0CBB1C73
:100A10000A94E2F7B5016D29F7016083BECFCE01DC
:100A2000A2DC89899A89892B09F462C0DE011996B2
:100A300080E090E021E030E038C047E0E49FF00142
:100A40001124BF016A5E7E4FFB01E280F380F70153
:100A500050815901FB01068002C0AA0CBB1C0A94FC
:100A6000E2F74A2D40954523F7014083ED9147E099
:100A7000E49FF0011124AF014A5E5E4FFA016481E8
:100A80007581FB01F0805901FA01068002C0AA0CB1
:100A9000BB1C0A94E2F7A5014F29FB014083019694
:100AA00049895A898417950718F5A801082E02C0AC
:100AB000559547950A94E2F7EC9140FFBECF47E089
:100AC000E49FF0011124AF014A5E5E4FFA0162819A
:100AD0007381FB01F0805901FA01068002C0AA0C63
:100AE000BB1C0A94E2F7A5014F29FB014083BECF4E
:100AF000CE0139DC81E090E0DF91CF911F910F9121
:100B0000FF90EF90DF90CF90BF90AF9008958989CC
:100B10009A89892B69F370E0DE01199680E090E0F4
:100B200021E030E03AC047E0E49FF0011124AF013A
:100B30004A5E5E4F6A01FA0102811381F801508119
:100B40007901F601068002C0EE0CFF1C0A94E2F760
:100B50004E2D40954523F8014083ED9147E0E49FF9
:100B6000F0011124AF014A5E5E4FFA010481158144
:100B7000F801F0805901FA01068002C0AA0CBB1CE2
:100B80000A94E2F7A5014F29F801408301964989AB
:100B90005A898417950708F0ABCFAB01082E02C025
:100BA000559547950A94E2F7EC9140FFBCCF57E08A
:100BB000E59FF0011124AF014A5E5E4FFA01028108
:100BC0001381F801F0805901FA01068002C0AA0CD5
:100BD000BB1C0A94E2F7A5014F29F8014083BDCF61
:100BE000CF93DF93DC01EC9187E0E89FF0011124C3
:100BF000EA5EFE4FC281D381488121E030E0B90135
:100C0000068002C0660F771F0A94E2F7962F909530
:100C100094239883EC9187E0E89FF0011124EA5E29
:100C2000FE4FA481B5818C91068002C0220F331F34
:100C30000A94E2F7282B2C93DF91CF910895AF927D
:100C4000BF92CF92DF92EF92FF920F931F93CF93B9
:100C5000DF93EC01EE8127E0E29FF0011124EA5ED0
:100C6000FE4FA281B3813C9181E090E0AC0106800F
:100C700002C0440F551F0A94E2F7242F2095232326
:100C80002C93EE8147E0E49FF0011124EA5EFE4FD1
:100C9000A481B5814C919C01068002C0220F331FB4
:100CA0000A94E2F7242B2C93EF81E53131F127E010
:100CB000E29FF0011124EA5EFE4FA281B3813C91D4
:100CC000AC01068002C0440F551F0A94E2F7242F9E
:100CD000209523232C93EF8147E0E49FF00111241A
:100CE000EA5EFE4FA481B5812C91068002C0880F78
:100CF000991F0A94E2F7822B8C938B8984FDE8C0BC
:100D0000062F10E0A801559547955595479555959F
:100D100047955595479589899A89892B09F463C028
:100D2000DE01199680E090E021E030E039C067E014
:100D3000E69FF0011124BF016A5E7E4F5B01FB015B
:100D4000E280F380F70170816901F501068002C03D
:100D5000CC0CDD1C0A94E2F76C2D60956723F7013B
:100D60006083ED9167E0E69FF0011124BF016A5EA8
:100D70007E4FFB01E480F580F701D0805901FB0133
:100D8000068002C0AA0CBB1C0A94E2F7B5016D29CB
:100D9000F7016083019669897A898617970718F5A4
:100DA000BA01082E02C0759567950A94E2F7EC9196
:100DB00060FFBDCF67E0E69FF0011124BF016A5ECE
:100DC0007E4FFB01E280F380F701D0805901FB01E7
:100DD000068002C0AA0CBB1C0A94E2F7B5016D297B
:100DE000F7016083BECFCE01BEDA89899A89892B4B
:100DF00009F462C0DE01199680E090E021E030E065
:100E000038C047E0E49FF0011124BF016A5E7E4FC5
:100E1000FB01E280F380F70150815901FB0106805C
:100E200002C0AA0CBB1C0A94E2F74A2D4095452348
:100E3000F7014083ED9147E0E49FF0011124AF01F9
:100E40004A5E5E4FFA0164817581FB01F0805901B1
:100E5000FA01068002C0AA0CBB1C0A94E2F7A501A5
:100E60004F29FB014083019649895A8984179507C8
:100E700018F5A801082E02C0559547950A94E2F787
:100E8000EC9140FFBECF47E0E49FF0011124AF0199
:100E90004A5E5E4FFA0162817381FB01F080590165
:100EA000FA01068002C0AA0CBB1C0A94E2F7A50155
:100EB0004F29FB014083BECFCE01DF91CF911F911F
:100EC0000F91FF90EF90DF90CF90BF90AF904BCA03
:100ED00089899A89892B81F370E0DE01199680E077
:100EE00090E021E030E03AC047E0E49FF0011124B7
:100EF000AF014A5E5E4F6A01FA0102811381F80177
:100F000050817901F601068002C0EE0CFF1C0A94A4
:100F1000E2F74E2D40954523F8014083ED9147E0DF
:100F2000E49FF0011124AF014A5E5E4FFA01048193
:100F30001581F801F0805901FA01068002C0AA0C5F
:100F4000BB1C0A94E2F7A5014F29F80140830196E2
:100F500049895A898417950708F0AECFAB01082E4E
:100F600002C0559547950A94E2F7EC9140FFBCCF3B
:100F700057E0E59FF0011124AF014A5E5E4FFA0190
:100F800002811381F801F0805901FA01068002C044
:100F9000AA0CBB1C0A94E2F7A5014F29F801408373
:100FA000BDCF1F920F920FB60F9211242F933F9334
:100FB0004F935F938F939F93AF93BF93CF93DF93A1
:100FC000EF93FF938FE891E00197F1F700C00000E5
:100FD000A091C601B091C701ED91FC911197C0811C
:100FE00097E0C99FE0011124CA5EDE4FE881F981D4
:100FF00020811296ED91FC911397E08187E0E89FA4
:10100000F0011124AF014A5E5E4FFA0180819181A7
:10101000FC01808130E00E8002C0359527950A944E
:10102000E2F7217090E0FA01068002C0959587955D
:101030000A94E2F781702817F9F014968C911497AE
:101040008F5F14968C9314978F3FF9F0811103C032
:1010500086E714968C93FF91EF91DF91CF91BF912A
:10106000AF919F918F915F914F913F912F910F90F1
:101070000FBE0F901F90189514968C911497815065
:1010800014968C9314978F3F09F78AE814968C93E3
:10109000E2CFAF92BF92CF92DF92EF92FF920F9387
:1010A0001F93CF93DF93CDB7DEB727970FB6F89492
:1010B000DEBF0FBECDBF8C016A017901DC01119644
:1010C0001C921E9213961C921E92129715961C92B9
:1010D0001E92149761E070E080E090E08AD5F801FC
:1010E000009709F4AAC0918380831382128215822B
:1010F0001482DC011C92E114F10409F4B3C0EA94F7
:10110000EF2809F088C09601220F331F220F331FEA
:10111000220F331F2C0D3D1DADECBCEC2ED496954B
:101120008795969587954AE09E012F5F3F4F7901FD
:10113000B9018096C2D3F70101900020E9F73197F9
:10114000EE19FF09D80114962D913C91159730970F
:1011500009F001C16901BFEFCB1ADB0A8FED89836A
:101160001A82F80180819181009729F04281538190
:101170004C155D05C0F4B9016E5F7F4F3AD50097FD
:1011800009F44BC1D80111969C938E931396DC926F
:10119000CE92129714962D913C91159721153105F9
:1011A00011F4FC011082B701820F931FEED5D80114
:1011B0001596DC92CE92149786E489831A825601A2
:1011C000BFEFAB1ABB0AF80180819181009729F02B
:1011D000228133812A153B05B8F4B6016E5F7F4F3B
:1011E00008D50097C1F0D80111969C938E93139661
:1011F000BC92AE9212971496CD90DC901597C114C4
:10120000D10411F4FC011082B7018C0D9D1DBDD5D8
:10121000F801B582A482C80127960FB6F894DEBF04
:101220000FBECDBFDF91CF911F910F91FF90EF9037
:10123000DF90CF90BF90AF9008958081918100970B
:1012400009F03FD4D80111961C921E9215961C925B
:101250001E92149713961C921E921297E114F10499
:1012600009F04DCF4AE0FE0131967F01BF01C60172
:1012700024D3F70101900020E9F73197EE19FF0917
:10128000D80114962D913C911597309709F091C093
:101290006901BFEFCB1ADB0A8FED89831A82F8014F
:1012A00080819181009729F0428153814C155D0521
:1012B000C0F4B9016E5F7F4F9CD4009709F4A7C0BA
:1012C000D80111969C938E931396DC92CE9212972E
:1012D00014962D913C9115972115310511F4FC01BF
:1012E0001082B701820F931F50D5F801D582C482B6
:1012F00083E489831A825601BFEFAB1ABB0AF80157
:1013000080819181009729F0228133812A153B0544
:10131000C0F4B6016E5F7F4F6CD4009709F47BCFA9
:10132000D80111969C938E931396BC92AE9212970D
:101330001496CD90DC901597C114D10411F4FC01E2
:101340001082B7018C0D9D1D20D5D8011596BC9239
:10135000AE92149760CF5F01A20EB31E8D919C9147
:101360001197009741F012964D915C9113974A1591
:101370005B0508F05DC06501EFEFCE1ADE0AB6012D
:1013800038D4009709F463C0F80191838083B38255
:10139000A282248135812115310511F4DC011C92D2
:1013A000B701820F931FF1D4F801B582A482950191
:1013B000D5CE5F01A20EB31E8D919C91119700971F
:1013C00039F012964D915C9113974A155B0558F5CB
:1013D0006501FFEFCF1ADF0AB6010BD4009769F160
:1013E000F80191838083B382A28224813581211503
:1013F000310511F4DC011C92B701820F931FC5D493
:10140000D8011596BC92AE921497950145CFD8019C
:101410001496CD90DC9015976BCFD8011496CD9093
:10142000DC901597C9CE6501FFEFCF1ADF0AE4CF34
:101430006501BFEFCB1ADB0AB3CFD80114962D910B
:101440003C9115976901BFEFCB1ADB0A25CFD80174
:1014500014962D913C9115976901BFEFCB1ADB0AC9
:101460007DCECF93DF93CDB7DEB7E0970FB6F8947C
:10147000DEBF0FBECDBF8CE291E09CA78BA78EE5AF
:1014800091E09AA789A718AA87E18FA785E18EA77F
:1014900096E19DA71C821B8222E131E03A832983D9
:1014A0001E821D829AE09F8388879BE099879DE03A
:1014B0009A8730E13B879CE09C8791E19D878E87EE
:1014C0008F87888B898B81E090E044E050E05B8BD4
:1014D0004A8B4298EF8107E0E09FF0011124EA5E19
:1014E000FE4FA481B5812C91AC01068002C0440F4F
:1014F000551F0A94E2F7422B4C93E98517E0E19FD0
:10150000F0011124EA5EFE4FA281B3812C91AC015F
:10151000068002C0440F551F0A94E2F74095242329
:101520002C93E98527E0E29FF0011124EA5EFE4F4B
:10153000A481B5812C91068002C0880F991F0A945E
:10154000E2F7822B8C938D819E81892B09F4B3C1A4
:101550003C8B1FA21EA218A6CE0189969BA38AA32C
:1015600002969DA38CA303960E94C100CE018D9686
:101570000E94C1008E010F5F1F4F1093C5010093A1
:10158000C4018C8988608C8B82E0888F198E8FEFE4
:1015900090E7E2E081509040E040E1F700C00000B9
:1015A000CE0107961DDBCE0109961ADB88858531B1
:1015B00019F0CE01089614DB8C8984FF49C1682F8D
:1015C0006062C8013CDBEFE4F6E43197F1F700C05C
:1015D00000006C896062C80132DB87E592E0019708
:1015E000F1F700C000006C896062C80128DB6C89DB
:1015F0006062C80124DB84E08D8B6CE0C8011FDBD6
:1016000061E0C8011CDBEFE3FFE13197F1F700C0B7
:10161000000082E08E8B66E0C80111DB61E0809102
:10162000C4019091C5010BDB8FE39FE10197F1F7B6
:1016300000C000002091C4013091C50188E0E6E0BF
:10164000F1E0DE015A9601900D928A95E1F791E062
:10165000F9018789811190E0E92FE195F0E0EE0F23
:10166000FF1FE00FF11F618D6068C901E8DA18A261
:101670001F8E80E88E8FCE01C0969B8F8A8F019738
:101680009D8F8C8FE8A907E0E09FF0011124EA5EAE
:10169000FE4FA481B5812C9181E090E0AC010680E1
:1016A00002C0440F551F0A94E2F7409524232C935F
:1016B000E8A917E0E19FF0011124EA5EFE4FA28144
:1016C000B3814C919C01068002C0220F331F0A9403
:1016D000E2F7242B2C93AC8DBD8DEC9127E0E29F9B
:1016E000F0011124AF014A5E5E4FFA0164817581F9
:1016F000FB0120818C01FA01068002C0000F111F3E
:101700000A94E2F7A80140952423FB012083EC9181
:1017100007E0E09FF0011124EA5EFE4FA281B38151
:101720004C919C01068002C0220F331F0A94E2F7FD
:10173000242B2C93EA8DFB8D78942081283008F49B
:1017400076C0203108F462C0283180F4209168000E
:1017500024602093680030916D002081205101C0E9
:10176000880F2A95EAF7832B80936D00CE014A9665
:101770009093C7018093C60108960E94F00080E80C
:10178000982E92E0A92EB12C24E0C22ED12CEE246A
:10179000E394F12C03E010E011C0813820F5873785
:1017A00050F187FD30C0B8A2AF8E8BA59CA50197E4
:1017B0009CA78BA7CE0182960E94F0002FEF81EEAE
:1017C00094E0215080409040E1F700C000008E8DF1
:1017D0009E8E8A3810F318A30F8F8BA59CA50A96AE
:1017E0009CA78BA7E7CFF8A2EF8E8BA59CA50196AF
:1017F0009CA78BA7DFCFD8A2CF8E8BA59CA50A97DD
:101800009CA78BA7D7CF18A21F8ED4CF209168009A
:1018100022602093680030916C002081285001C024
:10182000880F2A95EAF7832B80936C009FCF209135
:10183000680021602093680020916B00008002C046
:10184000880F991F0A94E2F7822B80936B008ECF4A
:1018500063E0CE010A960E945200C8010E94B301C3
:101860008FE496E40197F1F700C0000063E0CE0139
:101870000A960E945200C8010E94B301EFE4F6E408
:101880003197F1F700C0000063E0CE010A960E9494
:101890005200C8010E94B30187E592E00197F1F779
:1018A00000C0000062E0CE010A960E945200C8010A
:1018B0000E94B3019CCE1C8A4CCEBB27FB0155274E
:1018C000AA27880F991FAA1FA41710F0A41B83959D
:1018D0005051B9F7A05DAA3308F0A95DA193009714
:1018E00079F7B111B1931192CB0100C0DC01FC0179
:1018F000672F71917723E1F7329704C07C916D9344
:1019000070836291AE17BF07C8F308952F923F927C
:101910004F925F926F927F928F929F92AF92BF92FF
:10192000CF92DF92EF92FF920F931F93CF93DF93AB
:10193000CDB7DEB7CA1BDB0B0FB6F894DEBF0FBE08
:10194000CDBF09942A88398848885F846E847D8455
:101950008C849B84AA84B984C884DF80EE80FD8057
:101960000C811B81AA81B981CE0FD11D0FB6F894CD
:10197000DEBF0FBECDBFED010895A29FB001B39FA2
:10198000C001A39F700D811D1124911DB29F700D88
:10199000811D1124911D0895CF93DF93823091050D
:1019A00010F482E090E0E091CA01F091CB0120E0D8
:1019B00030E0C0E0D0E0309711F14081518148170C
:1019C0005907C0F04817590761F482819381209725
:1019D00019F09B838A832BC09093CB018093CA011B
:1019E00026C02115310519F04217530718F49A0142
:1019F000BE01DF01EF010280F381E02DDCCF211574
:101A0000310509F1281B390B2430310590F4129669
:101A10008D919C9113976115710521F0FB019383C2
:101A2000828304C09093CB018093CA01FD0132965A
:101A300044C0FD01E20FF31F8193919322503109BD
:101A40002D933C933AC02091C8013091C901232BBA
:101A500041F420910201309103013093C901209398
:101A6000C80120910001309101012115310541F497
:101A70002DB73EB74091040150910501241B350B51
:101A8000E091C801F091C901E217F307A0F42E1B01
:101A90003F0B2817390778F0AC014E5F5F4F2417D2
:101AA000350748F04E0F5F1F5093C9014093C8019E
:101AB0008193919302C0E0E0F0E0CF01DF91CF91FC
:101AC00008950F931F93CF93DF93009709F48CC071
:101AD000FC013297138212820091CA011091CB014E
:101AE0000115110581F420813181820F931F20910E
:101AF000C8013091C9012817390779F5F093C90158
:101B0000E093C80171C0D80140E050E0AE17BF07B4
:101B100050F412962D913C911397AD01211531058A
:101B200009F1D901F3CF9D01DA013383228360816A
:101B30007181860F971F8217930769F4EC01288142
:101B40003981260F371F2E5F3F4F318320838A81D3
:101B50009B8193838283452B29F4F093CB01E093FF
:101B6000CA0142C01396FC93EE931297ED0149917E
:101B700059919E01240F351FE217F30771F48081FC
:101B80009181840F951F029611969C938E9382816A
:101B9000938113969C938E931297E0E0F0E0D80126
:101BA00012968D919C911397009719F0F8018C0172
:101BB000F6CF8D919C9198012E5F3F4F820F931F1E
:101BC0002091C8013091C9012817390769F430976D
:101BD00029F41092CB011092CA0102C01382128222
:101BE0001093C9010093C801DF91CF911F910F910C
:101BF0000895A0E0B0E0EEEFFDE08CCEEC010097A0
:101C000019F4CB01C9DEB4C0FC01E60FF71F9C013B
:101C100022503109E217F30708F4A8C0D9010D9149
:101C20001C91119706171707A8F00530110508F445
:101C30009BC0C80104978617970708F495C0025007
:101C40001109061B170B019311936D937C93CF0120
:101C500038DF8AC05B01A01AB10A4C01800E911EC8
:101C6000A091CA01B091CB0140E050E0E12CF12CF1
:101C7000109709F44AC0A815B905D1F56D907C906C
:101C80001197630182E0C80ED11CCA14DB0480F1F5
:101C9000A3014A195B096A0182E0C80ED11C1296A1
:101CA000BC9012971396AC91B5E0CB16D10440F0DE
:101CB000B282A38351834083D9016D937C930AC080
:101CC0000E5F1F4FC301800F911FF9019183808325
:101CD000EB2DFA2FE114F10431F0D7011396FC93A8
:101CE000EE93129741C0F093CB01E093CA013CC040
:101CF0008D919C9111974817590708F4AC017D010B
:101D000012960D90BC91A02DB3CF8091C8019091F7
:101D1000C90188159905E1F446175707C8F4809161
:101D2000000190910101009741F48DB79EB7409159
:101D3000040150910501841B950BE817F907B0F4D5
:101D4000F093C901E093C801F901718360830CC06D
:101D5000CB0122DE7C01009749F0A801BE010CD026
:101D6000CE01AFDEC70104C0CE0102C080E090E02A
:101D7000CDB7DEB7EEE0EACDFB01DC0102C0019099
:101D80000D9241505040D8F70895FB01DC010190BD
:0C1D90000D920020E1F70895F894FFCFB9
:101D9C000000CC0180000000400014005400000042
:101DAC0000003D044D0223002500240000230025E3
:101DBC000024000123002500240002230025002418
:101DCC000003230025002400042300250024000523
:101DDC0023002500240006230025002400072600EC
:101DEC0028002700002600280027000126002800D4
:101DFC0027000226002800270003260028002700C1
:101E0C0004260028002700052600280027000626A7
:101E1C0000280027000729002B002A000029002B8E
:101E2C00002A000129002B002A000229002B002A7D
:101E3C00000329002B002A000429002B002A00058E
:101E4C0029002B002A000629002B002A0007533AF0
:041E5C00004D3A00FB
:00000001FF
