:1000000033C000004DC000004BC0000049C00000DC
:1000100047C0000045C0000043C0000041C00000D0
:100020003FC000003DC000003BC0000039C00000E0
:1000300037C0000035C0000033C0000031C00000F0
:100040002FC000002DC000002BC0000029C0000000
:1000500027C0000025C0000023C0000021C0000010
:100060001FC000001DC0000011241FBECFEFD8E04C
:10007000DEBFCDBF21E0A6EBB1E001C01D92AC3BDD
:10008000B207E1F711E0A0E0B1E0E4E6F1E102C07F
:1000900005900D92A63BB107D9F77BD40C94B0081C
:1000A000AFCFCF92DF92FF920F931F93CF93DF9347
:1000B0006C01EC0188859985892B09F458C070E0A2
:1000C000D60120E030E041E050E032C087E0E89F18
:1000D000F0011124EA5EFE4F02811381E80198814C
:1000E000EA01068002C0CC0FDD1F0A94E2F78C2FD4
:1000F00080958923F8018083ED9187E0E89FF001E6
:100100001124EA5EFE4F04811581E801F880CA01DE
:10011000068002C0880F991F0A94E2F78F2988830E
:100120002F5F3F4FF6018085918528173907F8F436
:10013000CB01022E02C0959587950A94E2F7EC91C7
:1001400080FFC4CFD7E0ED9FF0011124EF01CA5E1C
:10015000DE4F0A811B81F801F080CA010E8002C0C7
:10016000880F991F0A94E2F78F298083C5CFC601B3
:10017000DF91CF911F910F91FF90DF90CF90089565
:10018000CF93DF93DC01EC9187E0E89FF00111242D
:10019000EA5EFE4FC281D381488121E030E0B9019F
:1001A000068002C0660F771F0A94E2F7962F90959B
:1001B00094239883EC9187E0E89FF0011124EA5E94
:1001C000FE4FA481B5818C91068002C0220F331F9F
:1001D0000A94E2F7282B2C93DF91CF9108956115B3
:1001E000710579F0FB0101900020E9F73197AF012B
:1001F000461B570BDC01ED91FC910280F381E02D51
:10020000099480E090E008950F931F93CF93DF93BC
:10021000FC0180819181009729F02281338126178A
:10022000370788F48B01EF016F5F7F4FC6D60097C9
:1002300081F0998388831B830A832C813D81232B42
:1002400011F4FC01108281E0DF91CF911F910F9199
:10025000089580E0F9CFEF92FF920F931F93CF9311
:10026000DF9300D0CDB7DEB77C0169831A82FC0131
:10027000048115810F5F1F4FB801C6DF882379F015
:10028000F7012081318184819581BE016F5F7F4FAD
:10029000820F931F5ED7F7011583048381E00F90CF
:1002A0000F90DF91CF911F910F91FF90EF900895E4
:1002B000CF92DF92EF92FF920F931F93CF93DF9332
:1002C000CDB7DEB727970FB6F894DEBF0FBECDBF10
:1002D0007C01CB014AE08E010F5F1F4FB801CCD4E7
:1002E000F80101900020E9F73197E01BF10BD701ED
:1002F00014966D917C911597309781F481E0279643
:100300000FB6F894DEBF0FBECDBFDF91CF911F9126
:100310000F91FF90EF90DF90CF9008956F01C60E80
:10032000D71EB601C70170DF882349F3F70120818A
:10033000318184819581B801820F931F0AD7D7013B
:100340001596DC92CE92149781E0D9CFEF92FF926E
:100350000F931F93CF93DF93EC017A0189011982E8
:1003600018821B821A821D821C8261E070E080E08C
:1003700090E023D6009749F1998388831B821A82E3
:100380001D821C82FC0110820115110561F10130F2
:10039000110599F429E02E9DC0012F9D900D112487
:1003A00065E070E0C9D4605E7F4FCE0181DF6FED04
:1003B000CE0151DF66E4CE014EDFCE01DF91CF9159
:1003C0001F910F91FF90EF90089588819981009778
:1003D00009F05BD5198218821D821C821B821A8249
:1003E00001151105A1F6B701CE0162DF6FEDCE0157
:1003F00032DF63E4CE012FDFE0CFCF93DF93FC0148
:10040000A08587E0A89FD0011124AA5EBE4F129656
:10041000CD91DC911397988121E030E0A9011696E7
:100420000C9002C0440F551F0A94E2F7842F809568
:1004300089238883A08597E0A99FD0011124AA5E13
:10044000BE4F1496CD91DC9115974881C90116963F
:100450000C9002C0880F991F0A94E2F7842B8883BE
:1004600085E08A95F1F70000A08597E0A99FD0016B
:100470001124AA5EBE4F1296CD91DC91139748814C
:10048000C90116960C9002C0880F991F0A94E2F7D2
:10049000842B8883A08587E0A89FD0011124AA5EC1
:1004A000BE4F1496CD91DC9115974881C9011696DF
:1004B0000C9002C0880F991F0A94E2F7842B88835E
:1004C00095E09A95F1F70000A08587E0A89FD001FC
:1004D0001124AA5EBE4F1296CD91DC91139798819C
:1004E000A90116960C9002C0440F551F0A94E2F71A
:1004F000842F809589238883E08597E0E99FF00128
:100500001124EA5EFE4FA481B5818C91068002C061
:10051000220F331F0A94E2F7282B2C938FE891E0E7
:100520000197F1F700C00000DF91CF910895AF92DD
:10053000BF92CF92DF92EF92FF920F931F93CF93D0
:10054000DF93EC01EE8141113DC147E0E49FF001F2
:100550001124EA5EFE4FA281B3812C9181E090E0EC
:10056000068002C0880F991F0A94E2F780958223C3
:100570008C93EE8157E0E59FF0011124EA5EFE4F77
:10058000A481B5814C9181E090E09C01068002C07D
:10059000220F331F0A94E2F7242B2C93EF81E531CD
:1005A00031F127E0E29FF0011124EA5EFE4FA281C3
:1005B000B3813C91AC01068002C0440F551F0A94E0
:1005C000E2F7242F209523232C93EF8147E0E49F2B
:1005D000F0011124EA5EFE4FA481B5812C910680C2
:1005E00002C0880F991F0A94E2F7822B8C938B89A3
:1005F00084FDFCC0062F10E0A80155954795559540
:100600004795559547955595479589899A89892B99
:1006100009F463C0DE01199680E090E021E030E04B
:1006200039C067E0E69FF0011124BF016A5E7E4F8A
:100630005B01FB01E280F380F70170816901F50144
:10064000068002C0CC0CDD1C0A94E2F76C2D60958C
:100650006723F7016083ED9167E0E69FF0011124C5
:10066000BF016A5E7E4FFB01E480F580F701D08018
:100670005901FB01068002C0AA0CBB1C0A94E2F7D8
:10068000B5016D29F7016083019669897A8986171A
:10069000970718F5BA01082E02C0759567950A9458
:1006A000E2F7EC9160FFBDCF67E0E69FF001112417
:1006B000BF016A5E7E4FFB01E280F380F701D080CC
:1006C0005901FB01068002C0AA0CBB1C0A94E2F788
:1006D000B5016D29F7016083BECFCE018EDE898919
:1006E0009A89892B09F462C0DE01199680E090E0B6
:1006F00021E030E038C047E0E49FF0011124BF0161
:100700006A5E7E4FFB01E280F380F7015081590160
:10071000FB01068002C0AA0CBB1C0A94E2F74A2D1A
:1007200040954523F7014083ED9147E0E49FF001B8
:100730001124AF014A5E5E4FFA0164817581FB01AD
:10074000F0805901FA01068002C0AA0CBB1C0A9471
:10075000E2F7A5014F29FB014083019649895A8997
:100760008417950718F5A801082E02C055954795DE
:100770000A94E2F7EC9140FFBECF47E0E49FF0011E
:100780001124AF014A5E5E4FFA0162817381FB0161
:10079000F0805901FA01068002C0AA0CBB1C0A9421
:1007A000E2F7A5014F29FB014083BECFCE01DF91C7
:1007B000CF911F910F91FF90EF90DF90CF90BF905E
:1007C000AF901BCE27E0E29FF0011124EA5EFE4FBE
:1007D000A281B3812C9181E090E0068002C0880F55
:1007E000991F0A94E2F7822B8C93C3CE89899A8948
:1007F000892BE1F270E0DE01199680E090E021E0C3
:1008000030E03AC047E0E49FF0011124AF014A5EB6
:100810005E4F6A01FA0102811381F801508179016A
:10082000F601068002C0EE0CFF1C0A94E2F74E2D82
:1008300040954523F8014083ED9147E0E49FF001A6
:100840001124AF014A5E5E4FFA0104811581F8015F
:10085000F0805901FA01068002C0AA0CBB1C0A9460
:10086000E2F7A5014F29F8014083019649895A8989
:100870008417950708F09ACFAB01082E02C0559552
:1008800047950A94E2F7EC9140FFBCCF47E0E49F24
:10089000F0011124AF014A5E5E4FFA01028113811B
:1008A000F801F0805901FA01068002C0AA0CBB1CB5
:1008B0000A94E2F7A5014F29F8014083BDCFCF93F9
:1008C000DF93CDB7DEB728970FB6F894DEBF0FBE23
:1008D000CDBF28E0E6E0F1E0DE01119601900D9237
:1008E0002A95E1F7FC012789621710F06FEF620F7C
:1008F000E62FF0E0EE0FFF1F21E030E02C0F3D1F50
:10090000E20FF31F6081606840E028960FB6F8940C
:10091000DEBF0FBECDBFDF91CF9109CE41E007DE34
:1009200081E090E00895CF92DF92EF92FF920F93D3
:100930001F93CF93DF934115510541F16A018C015B
:100940007B01C0E0D0E007C041E0C801F0DD2196A6
:10095000CC16DD0689F0D801ED91FC910190F08173
:10096000E02DD7016D917D01B4E0EE38FB0761F316
:10097000C8010995892B59F7CE01DF91CF911F91BD
:100980000F91FF90EF90DF90CF900895C0E0D0E0FE
:10099000F3CFCF93DF93CDB7DEB7A6970FB6F8941A
:1009A000DEBF0FBECDBF2D98259A55985D9A1C824B
:1009B0001B8282E191E09A8389831E821D8280E1FD
:1009C0008F8385E1888791E1998793E19A871B86D8
:1009D00092E19C8791E09D878E878F87888B898B9A
:1009E00081E090E024E030E03B8B2A8B4298EF815D
:1009F00027E0E29FF0011124EA5EFE4FA481B58159
:100A00004C919C01068002C0220F331F0A94E2F72A
:100A1000242B2C93E985A7E0EA9FF0011124EA5EDC
:100A2000FE4FA281B3812C91AC01068002C0440F1D
:100A3000551F0A94E2F7409524232C93E985B7E0EB
:100A4000EB9FF0011124EA5EFE4FA481B5812C9149
:100A5000068002C0880F991F0A94E2F7822B8C93BC
:100A60008D819E81892B09F4DAC088E18E010F5FA8
:100A70001F4F1093B7010093B6018C8B82E0888FD3
:100A8000198E2FEF80E792E0215080409040E1F7EF
:100A900000C00000CE01079673DBCE01099670DB23
:100AA0008885853119F0CE0108966ADB8C8984FF30
:100AB000B8C0682F606240E0C80139DD8FE496E479
:100AC0000197F1F700C000006C89606240E0C80146
:100AD0002EDDA7E5B2E01197F1F700C000006C89A8
:100AE000606240E0C80123DD6C89606240E0C801BB
:100AF0001EDD84E08D8B40E06CE0C80118DD40E035
:100B000061E0C80114DD8FE39FE10197F1F700C0B8
:100B1000000082E08E8B40E066E0C80108DD40E026
:100B200061E08091B6019091B70101DDAFE3BFE1D3
:100B30001197F1F700C0000060E08091B60190913C
:100B4000B701BDDE8CE291E09B8F8A8F8EE591E04C
:100B50009D8F8C8F1F8E1E8E18A240E061E08091C9
:100B6000B6019091B701E3DC8FE39FE10197F1F7C4
:100B700000C0000060E08091B6019091B7019FDE57
:100B80000E8D1F8D60EB71E08091B6019091B701E1
:100B900026DB4C8D5D8D9801BE01665E7F4FCE01D8
:100BA0008196D4DB8091B6019091B701DC01ED9183
:100BB000FC914DA15EA169A17AA10280F381E02D93
:100BC000099589A19AA161D161E08091B6019091C6
:100BD000B70175DE0E8D1F8D63EB71E08091B6015C
:100BE0009091B701FCDA4A8D5B8D9801BE01665E7B
:100BF0007F4FCE018196AADB8091B6019091B7011B
:100C0000DC01ED91FC914DA15EA169A17AA1028068
:100C1000F381E02D099589A19AA137D1FFCF88E012
:100C200025CF63E0CE010A963CDAC801E6DBAFE4EB
:100C3000B6E41197F1F700C0000063E0CE010A9618
:100C400030DAC801DADB8FE496E40197F1F700C0EF
:100C5000000063E0CE010A9624DAC801CEDBA7E5E6
:100C6000B2E01197F1F700C0000062E0CE010A96F1
:100C700018DAC801C2DB38CFBB27FB015527AA27EA
:100C8000880F991FAA1FA41710F0A41B8395505119
:100C9000B9F7A05DAA3308F0A95DA193009779F791
:100CA000B111B1931192CB0100C0DC01FC01672F9F
:100CB00071917723E1F7329704C07C916D93708333
:100CC0006291AE17BF07C8F308952F923F924F92DB
:100CD0005F926F927F928F929F92AF92BF92CF92CC
:100CE000DF92EF92FF920F931F93CF93DF93CDB7D5
:100CF000DEB7CA1BDB0B0FB6F894DEBF0FBECDBF4D
:100D000009942A88398848885F846E847D848C841D
:100D10009B84AA84B984C884DF80EE80FD800C8126
:100D20001B81AA81B981CE0FD11D0FB6F894DEBF09
:100D30000FBECDBFED010895AA1BBB1B51E107C03B
:100D4000AA1FBB1FA617B70710F0A61BB70B881F5B
:100D5000991F5A95A9F780959095BC01CD010895EA
:100D6000CF93DF938230910510F482E090E0E09120
:100D7000BA01F091BB0120E030E0C0E0D0E0309754
:100D800011F14081518148175907C0F048175907A0
:100D900061F482819381209719F09B838A832BC011
:100DA0009093BB018093BA0126C02115310519F03B
:100DB0004217530718F49A01BE01DF01EF010280C8
:100DC000F381E02DDCCF2115310509F1281B390B0A
:100DD0002430310590F412968D919C9113976115F2
:100DE000710521F0FB019383828304C09093BB01C2
:100DF0008093BA01FD01329644C0FD01E20FF31F5A
:100E000081939193225031092D933C933AC02091C4
:100E1000B8013091B901232B41F4209102013091A6
:100E200003013093B9012093B80120910001309162
:100E300001012115310541F42DB73EB74091040160
:100E400050910501241B350BE091B801F091B901D7
:100E5000E217F307A0F42E1B3F0B2817390778F091
:100E6000AC014E5F5F4F2417350748F04E0F5F1FF0
:100E70005093B9014093B8018193919302C0E0E08F
:100E8000F0E0CF01DF91CF9108950F931F93CF939F
:100E9000DF93009709F48CC0FC0132971382128211
:100EA0000091BA011091BB010115110581F4208157
:100EB0003181820F931F2091B8013091B901281719
:100EC000390779F5F093B901E093B80171C0D80101
:100ED00040E050E0AE17BF0750F412962D913C91C0
:100EE0001397AD012115310509F1D901F3CF9D010A
:100EF000DA013383228360817181860F971F821705
:100F0000930769F4EC0128813981260F371F2E5F82
:100F10003F4F318320838A819B8193838283452B3A
:100F200029F4F093BB01E093BA0142C01396FC93FD
:100F3000EE931297ED01499159919E01240F351FAF
:100F4000E217F30771F480819181840F951F029657
:100F500011969C938E938281938113969C938E938A
:100F60001297E0E0F0E0D80112968D919C911397D2
:100F7000009719F0F8018C01F6CF8D919C919801A2
:100F80002E5F3F4F820F931F2091B8013091B9011E
:100F90002817390769F4309729F41092BB01109291
:100FA000BA0102C0138212821093B9010093B801F2
:100FB000DF91CF911F910F910895A0E0B0E0E2EE94
:100FC000F7E087CEEC01009719F4CB01C9DEB4C07D
:100FD000FC01E60FF71F9C0122503109E217F307CD
:100FE00008F4A8C0D9010D911C9111970617170795
:100FF000A8F00530110508F49BC0C80104978617B6
:10100000970708F495C002501109061B170B0193AE
:1010100011936D937C93CF0138DF8AC05B01A01AD6
:10102000B10A4C01800E911EA091BA01B091BB0192
:1010300040E050E0E12CF12C109709F44AC0A815CB
:10104000B905D1F56D907C901197630182E0C80ECF
:10105000D11CCA14DB0480F1A3014A195B096A019F
:1010600082E0C80ED11C1296BC9012971396AC91D8
:10107000B5E0CB16D10440F0B282A3835183408304
:10108000D9016D937C930AC00E5F1F4FC301800F7F
:10109000911FF90191838083EB2DFA2FE114F10464
:1010A00031F0D7011396FC93EE93129741C0F09361
:1010B000BB01E093BA013CC08D919C9111974817F8
:1010C000590708F4AC017D0112960D90BC91A02D3A
:1010D000B3CF8091B8019091B90188159905E1F4D9
:1010E00046175707C8F480910001909101010097BD
:1010F00041F48DB79EB74091040150910501841BC6
:10110000950BE817F907B0F4F093B901E093B80133
:10111000F901718360830CC0CB0122DE7C01009752
:1011200049F0A801BE010CD0CE01AFDEC70104C05A
:10113000CE0102C080E090E0CDB7DEB7EEE0E5CDB5
:10114000FB01DC0102C001900D9241505040D8F7E4
:101150000895FB01DC0101900D920020E1F7089554
:04116000F894FFCF31
:101164000000BC0180000000400014005400000096
:1011740000008E04930429002B002A000029002B70
:10118400002A000129002B002A000229002B002A32
:10119400000329002B002A000429002B002A000543
:1011A40029002B002A000629002B002A000723000F
:1011B400250024000023002500240001230025002D
:1011C400240002230025002400032300250024001A
:1011D40004230025002400052600280027000026FB
:1011E40000280027000126002800270002260028E6
:1011F40000270003260028002700042600280027D3
:1012040000052600280027000626002800270007DE
:06121400533A004D3A00C0
:00000001FF
