:1000000033C000004CC000004AC0000048C00000DF
:1000100046C0000044C0000042C0000040C00000D4
:100020003EC000003CC000003AC0000038C00000E4
:1000300036C0000034C0000032C0000030C00000F4
:100040002EC000002CC000002AC0000028C0000004
:1000500026C0000024C0000022C0000020C0000014
:100060001EC000001CC0000011241FBECFEFD8E04E
:10007000DEBFCDBF21E0A0EBB1E001C01D92A23BED
:10008000B207E1F711E0A0E0B1E0E8E3FBE002C075
:1000900005900D92A03BB107D9F7DDD34BC5B0CF8A
:1000A000DC01ED91FC910190F081E02D0994CF925B
:1000B000DF92FF920F931F93CF93DF936C01EC01BC
:1000C00088859985892B09F458C070E0D60120E015
:1000D00030E041E050E032C087E0E89FF0011124B9
:1000E000E05FFE4F02811381E8019881EA010680FA
:1000F00002C0CC0FDD1F0A94E2F78C2F8095892374
:10010000F8018083ED9187E0E89FF0011124E05F22
:10011000FE4F04811581E801F880CA01068002C003
:10012000880F991F0A94E2F78F2988832F5F3F4F2A
:10013000F6018085918528173907F8F4CB01022E46
:1001400002C0959587950A94E2F7EC9180FFC4CFA1
:10015000D7E0ED9FF0011124EF01C05FDE4F0A816F
:100160001B81F801F080CA010E8002C0880F991F20
:100170000A94E2F78F298083C5CFC601DF91CF9122
:100180001F910F91FF90DF90CF900895CF93DF9351
:10019000DC01EC9187E0E89FF0011124E05FFE4F65
:1001A000C281D381488121E030E0B901068002C0DC
:1001B000660F771F0A94E2F7962F90959423988301
:1001C000EC9187E0E89FF0011124E05FFE4FA481ED
:1001D000B5818C91068002C0220F331F0A94E2F78A
:1001E000282B2C93DF91CF9108956115710579F03B
:1001F000FB0101900020E9F73197AF01461B570B37
:10020000DC01ED91FC910280F381E02D099480E006
:1002100090E008958F929F92AF92BF92DF92EF92FB
:10022000FF920F931F93CF93DF93CDB7DEB7A197C4
:100230000FB6F894DEBF0FBECDBF7C01F42FD52ED4
:10024000CB0119A22230C8F1822E912CA12CB12C05
:100250008E010F5D1F4F08C0E0E3E60FD801EC935D
:10026000232B242B252BA1F06F2F7D2DA50194018D
:100270003FD4F22FD32ECA01015011096A3064F322
:10028000E7E3E60FD801EC93232B242B252B61F712
:10029000B801C701AADFA1960FB6F894DEBF0FBE62
:1002A000CDBFDF91CF911F910F91FF90EF90DF9025
:1002B000BF90AF909F908F9008952AE0C5CFCF93C5
:1002C000DF93FC01A08587E0A89FD0011124A05FE7
:1002D000BE4F1296CD91DC911397988121E030E0CA
:1002E000A90116960C9002C0440F551F0A94E2F71C
:1002F000842F809589238883A08597E0A99FD001CA
:100300001124A05FBE4F1496CD91DC9115974881C2
:10031000C90116960C9002C0880F991F0A94E2F743
:10032000842B888385E08A95F1F70000A08597E00B
:10033000A99FD0011124A05FBE4F1296CD91DC91F0
:1003400013974881C90116960C9002C0880F991F17
:100350000A94E2F7842B8883A08587E0A89FD001C8
:100360001124A05FBE4F1496CD91DC911597488162
:10037000C90116960C9002C0880F991F0A94E2F7E3
:10038000842B888395E09A95F1F70000A08587E09B
:10039000A89FD0011124A05FBE4F1296CD91DC9191
:1003A00013979881A90116960C9002C0440F551F0F
:1003B0000A94E2F7842F809589238883E08597E06B
:1003C000E99FF0011124E05FFE4FA481B5818C917B
:1003D000068002C0220F331F0A94E2F7282B2C93C9
:1003E0008FE891E00197F1F700C00000DF91CF9115
:1003F0000895AF92BF92CF92DF92EF92FF920F9348
:100400001F93CF93DF93EC01EE8141113DC147E093
:10041000E49FF0011124E05FFE4FA281B3812C9193
:1004200081E090E0068002C0880F991F0A94E2F7ED
:10043000809582238C93EE8157E0E59FF001112493
:10044000E05FFE4FA481B5814C9181E090E09C017A
:10045000068002C0220F331F0A94E2F7242B2C934C
:10046000EF81E53131F127E0E29FF0011124E05FF7
:10047000FE4FA281B3813C91AC01068002C0440FC3
:10048000551F0A94E2F7242F209523232C93EF8104
:1004900047E0E49FF0011124E05FFE4FA481B581A5
:1004A0002C91068002C0880F991F0A94E2F7822BD4
:1004B0008C938B8984FDFCC0062F10E0A801559514
:1004C00047955595479555954795559547958989EC
:1004D0009A89892B09F463C0DE01199680E090E0C7
:1004E00021E030E039C067E0E69FF0011124BF0150
:1004F000605F7E4F5B01FB01E280F380F70170815A
:100500006901F501068002C0CC0CDD1C0A94E2F7FB
:100510006C2D60956723F7016083ED9167E0E69F9E
:10052000F0011124BF01605F7E4FFB01E480F58084
:10053000F701D0805901FB01068002C0AA0CBB1C48
:100540000A94E2F7B5016D29F70160830196698984
:100550007A898617970718F5BA01082E02C0759593
:1005600067950A94E2F7EC9160FFBDCF67E0E69FE4
:10057000F0011124BF01605F7E4FFB01E280F38038
:10058000F701D0805901FB01068002C0AA0CBB1CF8
:100590000A94E2F7B5016D29F7016083BECFCE0161
:1005A0008EDE89899A89892B09F462C0DE01199649
:1005B00080E090E021E030E038C047E0E49FF001C7
:1005C0001124BF01605F7E4FFB01E280F380F701E1
:1005D00050815901FB01068002C0AA0CBB1C0A9481
:1005E000E2F74A2D40954523F7014083ED9147E01E
:1005F000E49FF0011124AF01405F5E4FFA01648176
:100600007581FB01F0805901FA01068002C0AA0C35
:10061000BB1C0A94E2F7A5014F29FB014083019618
:1006200049895A898417950718F5A801082E02C030
:10063000559547950A94E2F7EC9140FFBECF47E00D
:10064000E49FF0011124AF01405F5E4FFA01628127
:100650007381FB01F0805901FA01068002C0AA0CE7
:10066000BB1C0A94E2F7A5014F29FB014083BECFD2
:10067000CE01DF91CF911F910F91FF90EF90DF900E
:10068000CF90BF90AF901BCE27E0E29FF0011124E6
:10069000E05FFE4FA281B3812C9181E090E0068063
:1006A00002C0880F991F0A94E2F7822B8C93C3CE65
:1006B00089899A89892BE1F270E0DE01199680E040
:1006C00090E021E030E03AC047E0E49FF0011124DF
:1006D000AF01405F5E4F6A01FA0102811381F801A8
:1006E00050817901F601068002C0EE0CFF1C0A94CD
:1006F000E2F74E2D40954523F8014083ED9147E008
:10070000E49FF0011124AF01405F5E4FFA010481C4
:100710001581F801F0805901FA01068002C0AA0C87
:10072000BB1C0A94E2F7A5014F29F801408301960A
:1007300049895A898417950708F09ACFAB01082E8A
:1007400002C0559547950A94E2F7EC9140FFBCCF63
:1007500047E0E49FF0011124AF01405F5E4FFA01D2
:1007600002811381F801F0805901FA01068002C06C
:10077000AA0CBB1C0A94E2F7A5014F29F80140839B
:10078000BDCFCF93DF93CDB7DEB728970FB6F894E0
:10079000DEBF0FBECDBF28E0E0E0F1E0DE01119644
:1007A00001900D922A95E1F7FC012789621710F05C
:1007B0006FEF620FE62FF0E0EE0FFF1F21E030E059
:1007C0002C0F3D1FE20FF31F6081606840E0289608
:1007D0000FB6F894DEBF0FBECDBFDF91CF9109CE2B
:1007E00041E007DE81E090E00895CF92DF92EF9242
:1007F000FF920F931F93CF93DF934115510541F162
:100800006A018C017B01C0E0D0E007C041E0C80173
:10081000F0DD2196CC16DD0689F0D801ED91FC9132
:100820000190F081E02DD7016D917D01B3E0E03FB3
:10083000FB0761F3C8010995892B59F7CE01DF91B8
:10084000CF911F910F91FF90EF90DF90CF9008957F
:10085000C0E0D0E0F3CFCF93DF93CDB7DEB7699799
:100860000FB6F894DEBF0FBECDBF2D98259A5598D0
:100870005D9A1C821B828CE091E09A8389831E82A0
:100880001D8280E18F8385E1888791E1998793E1DB
:100890009A871B8692E19C8791E09D878E878F8740
:1008A000888B898B81E090E024E030E03B8B2A8BC1
:1008B0004298EF8127E0E29FF0011124E05FFE4FB4
:1008C000A481B5814C919C01068002C0220F331F88
:1008D0000A94E2F7242B2C93E98527E0E29FF001AC
:1008E0001124E05FFE4FA281B3812C91AC01068000
:1008F00002C0440F551F0A94E2F7409524232C931D
:10090000E98527E0E29FF0011124E05FFE4FA4811A
:10091000B5812C91068002C0880F991F0A94E2F7D6
:10092000822B8C938D819E81892B09F4B4C088E140
:100930008E010F5F1F4F1093B1010093B0018C8B9C
:1009400082E0888F198E8FEF90E722E081509040EF
:100950002040E1F700C00000CE01079617DCCE0171
:10096000099614DC8885853119F0CE0108960EDCD5
:100970008C8984FF92C0682F606240E0C80139DD35
:100980008FE496E40197F1F700C000006C89606283
:1009900040E0C8012EDD87E592E00197F1F700C045
:1009A00000006C89606240E0C80123DD6C896062F0
:1009B00040E0C8011EDD84E08D8B40E06CE0C801A2
:1009C00018DD40E061E0C80114DD8FE39FE101978D
:1009D000F1F700C0000082E08E8B40E066E0C801C5
:1009E00008DD40E061E08091B0019091B10101DD4E
:1009F0008FE39FE10197F1F700C0000060E0809174
:100A0000B0019091B101BDDE60E08091B0019091A4
:100A1000B101B7DE6AEA71E08091B0019091B10155
:100A2000E4DB2AE04CE251E060E070E08091B0014C
:100A30009091B101EFDB6FED8091B0019091B10128
:100A40002FDB63E48091B0019091B10129DB61E07B
:100A50008091B0019091B10194DE6DEA71E08091D6
:100A6000B0019091B101C1DB2AE04AEF50E060E0B3
:100A700070E08091B0019091B101CCDB6FED80917D
:100A8000B0019091B1010CDB63E48091B0019091D1
:100A9000B10106DBFFCF88E04BCF63E0CE010A96C1
:100AA00006DBC8010CDC8FE496E40197F1F700C087
:100AB000000063E0CE010A96FADAC80100DC8FE498
:100AC00096E40197F1F700C0000063E0CE010A96BA
:100AD000EEDAC801F4DB87E592E00197F1F700C098
:100AE000000062E0CE010A96E2DAC801E8DB5ECFE0
:100AF000A1E21A2EAA1BBB1BFD010DC0AA1FBB1F22
:100B0000EE1FFF1FA217B307E407F50720F0A21B93
:100B1000B30BE40BF50B661F771F881F991F1A9400
:100B200069F760957095809590959B01AC01BD012A
:080B3000CF010895F894FFCFF6
:100B3800000040001400540000000000F003F5031A
:100B480029002B002A000029002B002A0001290077
:100B58002B002A000229002B002A000329002B0061
:100B68002A000429002B002A000529002B002A004E
:100B78000629002B002A0007230025002400002353
:100B8800002500240001230025002400022300255D
:100B9800002400032300250024000423002500244A
:100BA800000526002800270000260028002700014D
:100BB8002600280027000226002800270003260018
:100BC8002800270004260028002700052600280002
:100BD80027000626002800270007533A004D3A0050
:00000001FF
