:1000000033C0000044C0000042C0000040C00000F7
:100010003EC000003CC000003AC0000038C00000F4
:1000200036C0000034C0000032C0000030C0000004
:100030002EC000002CC000002AC0000028C0000014
:1000400026C0000024C0000022C0000020C0000024
:100050001EC000001CC000001AC0000018C0000034
:1000600016C0000014C0000011241FBECFEFD8E05E
:10007000DEBFCDBF11E0A0E0B1E0E4EFF8E002C0E8
:1000800005900D92AC3AB107D9F73DD331C4B8CF42
:10009000CF92DF92FF920F931F93CF93DF936C0168
:1000A000EC0188859985892B09F458C070E0D60148
:1000B00020E030E041E050E032C087E0E89FF0010E
:1000C0001124E85FFE4F02811381E8019881EA0163
:1000D000068002C0CC0FDD1F0A94E2F78C2F8095BA
:1000E0008923F8018083ED9187E0E89FF0011124D6
:1000F000E85FFE4F04811581E801F880CA0106809F
:1001000002C0880F991F0A94E2F78F2988832F5F16
:100110003F4FF6018085918528173907F8F4CB0108
:10012000022E02C0959587950A94E2F7EC9180FF24
:10013000C4CFD7E0ED9FF0011124EF01C85FDE4F7F
:100140000A811B81F801F080CA010E8002C0880F6D
:10015000991F0A94E2F78F298083C5CFC601DF91EA
:10016000CF911F910F91FF90DF90CF900895CF9383
:10017000DF93DC01EC9187E0E89FF0011124E85F58
:10018000FE4FC281D381488121E030E0B901068071
:1001900002C0660F771F0A94E2F7962F909594237A
:1001A0009883EC9187E0E89FF0011124E85FFE4F0F
:1001B000A481B5818C91068002C0220F331F0A945E
:1001C000E2F7282B2C93DF91CF910895CF93DF9303
:1001D000FC01A08587E0A89FD0011124A85FBE4F35
:1001E0001296CD91DC911397988121E030E0A9011E
:1001F00016960C9002C0440F551F0A94E2F7842F04
:10020000809589238883A08597E0A99FD001112438
:10021000A85FBE4F1496CD91DC9115974881C90116
:1002200016960C9002C0880F991F0A94E2F7842B4F
:10023000888385E08A95F1F70000A08597E0A99F63
:10024000D0011124A85FBE4F1296CD91DC91139777
:100250004881C90116960C9002C0880F991F0A9414
:10026000E2F7842B8883A08587E0A89FD001112422
:10027000A85FBE4F1496CD91DC9115974881C901B6
:1002800016960C9002C0880F991F0A94E2F7842BEF
:10029000888395E09A95F1F70000A08587E0A89FF4
:1002A000D0011124A85FBE4F1296CD91DC91139717
:1002B0009881A90116960C9002C0440F551F0A940C
:1002C000E2F7842F809589238883E08597E0E99F72
:1002D000F0011124E85FFE4FA481B5818C91068066
:1002E00002C0220F331F0A94E2F7282B2C938FE8C9
:1002F00091E00197F1F700C00000DF91CF910895E0
:10030000AF92BF92CF92DF92EF92FF920F931F9323
:10031000CF93DF93EC01EE8141113DC147E0E49FB3
:10032000F0011124E85FFE4FA281B3812C9181E09E
:1003300090E0068002C0880F991F0A94E2F780952A
:1003400082238C93EE8157E0E59FF0011124E85F52
:10035000FE4FA481B5814C9181E090E09C01068024
:1003600002C0220F331F0A94E2F7242B2C93EF8153
:10037000E53131F127E0E29FF0011124E85FFE4F03
:10038000A281B3813C91AC01068002C0440F551F8D
:100390000A94E2F7242F209523232C93EF8147E042
:1003A000E49FF0011124E85FFE4FA481B5812C91F8
:1003B000068002C0880F991F0A94E2F7822B8C9363
:1003C0008B8984FDFCC0062F10E0A8015595479548
:1003D00055954795559547955595479589899A8996
:1003E000892B09F463C0DE01199680E090E021E0DA
:1003F00030E039C067E0E69FF0011124BF01685F7B
:100400007E4F5B01FB01E280F380F701708169019F
:10041000F501068002C0CC0CDD1C0A94E2F76C2DBD
:1004200060956723F7016083ED9167E0E69FF00137
:100430001124BF01685F7E4FFB01E480F580F70166
:10044000D0805901FB01068002C0AA0CBB1C0A9493
:10045000E2F7B5016D29F7016083019669897A8910
:100460008617970718F5BA01082E02C0759567958B
:100470000A94E2F7EC9160FFBDCF67E0E69FF001E0
:100480001124BF01685F7E4FFB01E280F380F7011A
:10049000D0805901FB01068002C0AA0CBB1C0A9443
:1004A000E2F7B5016D29F7016083BECFCE018EDE84
:1004B00089899A89892B09F462C0DE01199680E046
:1004C00090E021E030E038C047E0E49FF0011124E3
:1004D000BF01685F7E4FFB01E280F380F70150812E
:1004E0005901FB01068002C0AA0CBB1C0A94E2F76A
:1004F0004A2D40954523F7014083ED9147E0E49F65
:10050000F0011124AF01485F5E4FFA0164817581EB
:10051000FB01F0805901FA01068002C0AA0CBB1C45
:100520000A94E2F7A5014F29FB014083019649890E
:100530005A898417950718F5A801082E02C0559509
:1005400047950A94E2F7EC9140FFBECF47E0E49F65
:10055000F0011124AF01485F5E4FFA01628173819F
:10056000FB01F0805901FA01068002C0AA0CBB1CF5
:100570000A94E2F7A5014F29FB014083BECFCE01CB
:10058000DF91CF911F910F91FF90EF90DF90CF906F
:10059000BF90AF901BCE27E0E29FF0011124E85FEF
:1005A000FE4FA281B3812C9181E090E0068002C0D1
:1005B000880F991F0A94E2F7822B8C93C3CE898906
:1005C0009A89892BE1F270E0DE01199680E090E0D3
:1005D00021E030E03AC047E0E49FF0011124AF0190
:1005E000485F5E4F6A01FA0102811381F801508170
:1005F0007901F601068002C0EE0CFF1C0A94E2F7B6
:100600004E2D40954523F8014083ED9147E0E49F4E
:10061000F0011124AF01485F5E4FFA01048115819A
:10062000F801F0805901FA01068002C0AA0CBB1C37
:100630000A94E2F7A5014F29F80140830196498900
:100640005A898417950708F09ACFAB01082E02C08B
:10065000559547950A94E2F7EC9140FFBCCF47E0EF
:10066000E49FF0011124AF01485F5E4FFA0102815F
:100670001381F801F0805901FA01068002C0AA0C2A
:10068000BB1C0A94E2F7A5014F29F8014083BDCFB6
:1006900041E036DE81E090E00895CF92DF92EF9264
:1006A000FF920F931F93CF93DF934115510541F1B3
:1006B0006A018C017B01C0E0D0E007C041E0C801C5
:1006C0001FDE2196CC16DD0689F0D801ED91FC9154
:1006D0000190F081E02DD7016D917D01B3E0E83408
:1006E000FB0761F3C8010995892B59F7CE01DF910A
:1006F000CF911F910F91FF90EF90DF90CF900895D1
:10070000C0E0D0E0F3CFCF93DF93CDB7DEB76997EA
:100710000FB6F894DEBF0FBECDBF1C821B8284E0F3
:1007200091E09A8389831E821D8280E18F8385E117
:10073000888791E1998793E19A871B8692E19C874C
:1007400091E09D878E878F87888B898B81E090E0F1
:1007500024E030E03B8B2A8B4298EF8127E0E29F38
:10076000F0011124E85FFE4FA481B5814C919C01FA
:10077000068002C0220F331F0A94E2F7242B2C9329
:10078000E98527E0E29FF0011124E85FFE4FA28196
:10079000B3812C91AC01068002C0440F551F0A940E
:1007A000E2F7409524232C93E98527E0E29FF001AE
:1007B0001124E85FFE4FA481B5812C91068002C010
:1007C000880F991F0A94E2F7822B8C938D819E816A
:1007D000892B09F45DC088E18C8B82E0888F198EAB
:1007E0008FEF90E722E0815090402040E1F700C079
:1007F0000000CE010796BBDCCE010996B8DC8885E7
:10080000853119F0CE010896B2DC8C8984FF42C094
:10081000682F606240E08E010F5F1F4FC80170DDDE
:100820008FE496E40197F1F700C000006C896062E4
:1008300040E0C80165DD87E592E00197F1F700C06F
:1008400000006C89606240E0C8015ADD6C8960621A
:1008500040E0C80155DD84E08D8B40E06CE0C801CC
:100860004FDD40E061E0C8014BDD8FE39FE1019780
:10087000F1F700C0000082E08E8B40E066E0C80126
:100880003FDD48E050E062EA71E0C80106DFFFCFDB
:1008900088E0A2CF63E0CE010A96FADB8E010F5FFB
:1008A0001F4FC80193DC8FE496E40197F1F700C075
:1008B000000063E0CE010A96EBDBC80187DC8FE421
:1008C00096E40197F1F700C0000063E0CE010A96BC
:1008D000DFDBC8017BDC87E592E00197F1F700C020
:1008E000000062E0CE010A96D3DBC8016FDCAECF18
:0408F000F894FFCFAA
:1008F4000000000048034D0329002B002A000029B2
:10090400002B002A000129002B002A000229002BB9
:10091400002A000329002B002A000429002B002AA6
:10092400000529002B002A000629002B002A0007B5
:1009340023002500240000230025002400012300B7
:1009440025002400022300250024000323002500A1
:100954002400042300250024000526002800270085
:100964000026002800270001260028002700022670
:10097400002800270003260028002700042600285A
:100984000027000526002800270006260028002747
:0C099400000766756E63696F6E610000FD
:00000001FF
